:400000000080002011000000650700006507000008B5044B1A6803F53F5302331A6000F0A9FB00BFFA46004010B5054C237833B9044B13B10448AFF300800123237010BDFB
:400040006881FF1F0000000010250000084B10B51BB108490848AFF300800848036803B910BD074B002BFBD0BDE81040184700BF000000006C81FF1F10250000C880FF1F58
:400080000000000008B50121002000F0EDFC00F029FD20B100F020FD08B100F0EFFE08BD08B500F01FFD20B100F016FD08B100F0E5FE08BD08B500F00FFD28B100F07AFF30
:4000C00010B10122014B1A7008BD00BF8481FF1F08B5FFF7D7FF08BD0122014B1A7070478581FF1F2DE9F8438946012A09D1464B1A7842F001021A701B78DBB2434A136056
:4001000008E0414B1A7802F0FE021A701B78DBB23F4A13603F4C237803F0FE0323702378DBB23B4F3B60237803F0F70323702378DBB23B60DFF8E08088F80000237803F004
:40014000FB0323702378DBB23B602F4D2B7843F002032B702B78DBB22C4E3360012002F057F9237843F0040323702378DBB233602B7803F0FD032B702B78DBB23B602378DF
:4001800043F0080323702378DBB23360012002F03FF9237843F0010323702378DBB23360237803F0F70323702378DBB23B6088F80090237803F0FB0323702378DBB23B6078
:4001C0002B7843F002032B702B78DBB23360012002F01EF9237843F0040323702378DBB233602B7803F0FD032B702B78DBB23B60237843F0080323702378DBB23360012035
:4002000002F006F9BDE8F883F05100408C81FF1F1082FF1FC05100402051004038B50F4C237843F0800323702378DBB20C4D2B600C4B1870237803F07F0323702378DBB26D
:40024000094A13600A2001F0A5FF237843F0800323702378DBB22B6038BD00BF005100408C81FF1F205100401082FF1F10B5002002F09AF80A2001F077FF012002F094F8F8
:400280000A2001F071FF002406E0002221462820FFF728FF0134E4B2062CF6D910BD00BF08B5012002F06EF8012002F05FF8012002F050F8012002F077F8002002F03EF89E
:4002C000002002F02FF8FF2002F068F808BD00BF08B59F20FFF7A2FFBF20FFF79FFFDF20FFF79CFFFF20FFF799FFFFF7D9FFFFF7BDFF08BD08B5FFF7EBFF62B6FFF7E8FE37
:4003000008BD00BF2DE9F04F83B0FFF7F3FF724802F070F800F05AFE0028FBD06F4800F0F9FD002412E025466D4800EB84106D4B1B78002BFBD000F055FE02AB1D4405F899
:40034000040C0022674B1A700134E4B2012CEAD94FF00008C146454644464746604EB24601E04FF00009604B1B78012BFBD12DB1013DADB200225C4B1A70F4E7234606EB5C
:40038000040B325D612A2ED00CD8502A19D004D80B2A57D04F2A11D05FE0A2F15201012916D95AE07F2A06D8702A33D2622A27D0632A2AD051E08F2A34D94EE00234E4B2A4
:4003C0004BE00133F05CFFF729FF0234E4B244E0601C023302F00102F15C305CFFF782FE0334E4B239E0631CF35CA21CB55C03EB0525ADB20334E4B23DB3013DADB22CE0EF
:400400000134E4B240F2DE2527E00134E4B240F2713522E00134E4B212F00F0518D0013DADB21AE001330022F15C2A20FFF75AFE9BF800500234E4B215F00F050BD0013D94
:40044000ADB20AE0FFF744FF07E04FF0010904E04FF0010901E04FF00109B8F1000F09D0032000F04FFB012804D0032000F07EFC4FF00008BB4602AB3B4413F8043C013B00
:400480009C4220DB0137194E17EA060303D5013B63F0010301331F46114E06EB8316114B1B78002BFBD040225146032000F006FC02AB9B440BF8040C00240A4B1C70FFB285
:4004C000B2464FF00108B9F1000F7FF44AAF0022054B1A7047E700BFD9000000142500009081FF1F8481FF1F8581FF1F01000080FEE700BFF0B40022174611E050F827601E
:40050000F3B226F0FF0608E001EB420511F812406D78A5550132013BDBB2002BF4D101370C2FEBD9F0BC7047064B1B78DBB203F00701054A11701B09013213704422034B56
:400540001A707047CF0100496E5800407658004008B50A46002101F0D2FF08BD38B50C22294B1A801823294A13700521023211800232137040F2124102321180023213705B
:400580000622234B1A705222A3F580731A70214B1B78DBB2204A137040F617321F4B1A8041F25122023B1A80002419250CE01C4B1B7803F0010343EA440404F003044FF427
:4005C000F07001F025FF013D0DB1032CEFD115B90320FFF78DFF134A4FF48073138007231370002310490B7048200231087013700532137002220D4B1A700D4A137843F0F3
:400600000703137038BD00BF8040004082400040004300400F010049A14600402242004025420040044000400640004001400040A243004008B501F057FF08BD38B572B69B
:40064000314A137843F00403137000240CE02F4D630019194A0011462A44084691882858FFF776FF0134E4B2052CF0D928494FF09040FFF73FFF04212648FFF769FF0421A6
:400680002548FFF765FF04212448FFF761FF244A137843F0020313701032137843F00203137008221F492048FFF7C4FF08221F491F48FFF7BFFF0A221E491F48FFF7BAFF47
:4006C00008221E491E48FFF7B5FF08221D491E48FFF7B0FF08221D491D48FFF7ABFF1D4A137843F0080313701B4C61232370FFF735FFC1232370FFF717FF0E22174918485B
:40070000FFF798FF38BD00BFE8460040182500003400004800760040087600401076004003500140880000480251004090000048C251004098000048F0510040A4000048A8
:4007400012510040AC00004822510040B4000048325100402243004000480040A0430040B043004008B501F093FE03680C2B00D1FEE7FEE708B5104E104D16E029686B689F
:40078000AC68002204E051F8040B43F8040B0432A242F8D1E868002203E0002143F8041B04328242F9D11035013E002EE6D101F075FEFFF7A7FDFEE701000000342700005E
:4007C00008B5114A114B1A60114A136843F40073136000230AE0032B03D80E4A52F8231000E00D490D4A42F8231001332F2BF2D90B4B1A780B4B1A70084A0B4B1A60FFF7FA
:400800001DFF01F0D1FB08BD0004FA050CED00E014ED00E000000000650700000080FF1FBC760040C080FF1F08ED00E0F8B501F0F7FD0546484A137843F0010313701032B8
:40084000137843F0010313700127444B1F700226943B1E7002F5E2521B32137803F07F031370002001F096FC3D4C237803F0F90323703C4A137803F0DF03137023783B43A2
:400880002370384601F086FC282001F083FC364B1A7802F07F021A701A7802F0BF021A70237833432370304601F074FC237843F00403237000232D4A13700132137004E083
:4008C000FF212B4AD15401339BB2082BF8D9284601F0AAFD0721172001F07AFC2549172001F062FC0721182001F072FC2249182001F05AFC0721152001F06AFC1F491520FF
:4009000001F052FC0721002001F062FC1C49002001F04AFC0721012001F05AFC1949012001F042FC0721022001F052FC1649022001F03AFC0021162001F04AFC1349162092
:4009400001F032FC07210C2001F042FC10490C2001F02AFCF8BD00BFA54300409D6000409443004012600040F8510040846000402082FF1F99150000791300009515000046
:40098000ED1400001D15000055150000A11500004516000008B5264B18700023254A1370254A1370254A1370254A1370254A1370254A1370254A1370254B4FF400021A60E3
:4009C0004FF080721A604FF400121A6001221A6002221A6004221A6007201E4A10704FF480021A6020221C4B1A7011B1012906D00BE01A4A137803F0FE0313700AE0174AC3
:400A0000137843F00103137004E0144A137843F0010313700322124B1A708022203B1A70012001F0F5FC04220E4B1A7008BD00BF4582FF1F4882FF1F6482FF1F6782FF1FEF
:400A40005C82FF1F6682FF1F6982FF1F4482FF1F00E100E09E6000409C60004009600040286000401260004038B504460D46064B1B7823B9FFF7DAFE0122034B1A702946A7
:400A80002046FFF787FF38BD8681FF1F00230A4A13700A4A13700A4A13700A4A13700A4A13700A4A13700A4A13700322094B1A708022203B1A7070474882FF1F6482FF1F09
:400AC0006782FF1F5C82FF1F6682FF1F6982FF1F4482FF1F28600040014B1878704700BF6782FF1F064B1B7813F0FF0F05D0044B1878C0B200221A7070470020704700BFCB
:400B00006482FF1F00EB40008300024A13445878704700BF6C82FF1F431EDBB2072B0BD8064B00011A18185C00F00F00537843EA0020023880B2704700207047FC5F004067
:400B400010B5044600EB40039800184B1844037913F0800F03D00A0C4FF4804302E00B0C4FF48042022C0AD0032C0FD0012C13D10021084601F0B8FB0D4B18550CE00021DA
:400B8000084601F093FB0A4B185505E00021084601F06EFB064B1855631EDBB2072B03D801F0A4FA034B185510BD00BF6C82FF1F1482FF1F2082FF1F431EDBB2072B6FD862
:400BC0002DE9F04104460E46154600EB40029300344A1344DB889BB2C3F500739D4209D900EB400293002F4A1344DD88ADB2C5F50075ADB204EB440293002A4A1344DB78BC
:400C000043EA15232849220188188B54EBB24370264B1B5DFF2B03D131462046FFF790FF04EB440293001F4A134400225A705EB355B31F4F385D01F0EDF9DFF87080112341
:400C4000FE22294618F8040001F06AFA22010832184D2A4492B2B1B218F8040001F074FA18F80410385D01F013FA0121385D01F0B5F924012B5D43F002032B552B5D03F045
:400C8000FD032B55BDE8F08104EB44029300054A13445A79D2B22401074B1A55BDE8F081704700BF6C82FF1FFC5F00402082FF1F1482FF1F70600040FE5F00402DE9F8434E
:400CC000002944D0044615460F46002841D0082841D8FFF721FFA84203D22046FFF71CFF05461F4B1B5DFF2B03D139462046FFF727FFDFF8748018F8040001F08BF9DFF898
:400D000060901223FE22294619F8040001F008FA21010831134E314489B2BAB219F8040001F012FA19F8041018F8040001F0B0F9012118F8040001F051F92401335D43F0E1
:400D400002033355335D03F0FD03335504E0002502E0002500E000252846BDE8F88300BF2082FF1F706000401482FF1F431EDBB2072B0BD8420002449300054A134400220F
:400D80005A705A79D2B20001024B1A54704700BF6C82FF1FFE5F00400246002001E0013080B2135C002BFAD1704700BF10B4FF2400230EE0094AD25C02EB42029100084A23
:400DC00011448A7AD2B2824201D11C4602230133DBB2012BEED9204610BC70473482FF1F6C82FF1F10B5204C2079FFF7DFFF237813F0800F0ED06378DBB2212B2FD11B4BB9
:400E000007221A80C0EBC000194A1044586000F021FB10BD144B5B78DBB2202B02D0222B10D01EE0114A07231380C0EBC00310490B4453600F4A135C43F00103135400F0FE
:400E400031FB10BD084B9B780B4A22F81030094A135C43F00203135400F0BAF910BD002010BD002010BD00BF006000405082FF1FCC80FF1F2C82FF1F4082FF1F10B500246B
:400E80001F4B1C701F4B1C705C700AE01E4B185DC0B2431EDBB2072B01D8FFF767FF0134E4B2012CF2D9194B1B7813F0FF0F1AD0154B1B7813F0FF0F17D0154B1B7813F055
:400EC000FF0F14D0114B1B78DBB2082B11D80E4B1B78DBB2082B0ED80D4B1B78DBB2082B0BD8002010BD012010BD012010BD012010BD012010BD012010BD012010BD00BF08
:400F00008781FF1F2C82FF1F3882FF1F3082FF1F3482FF1F2DE9F8438046234B1B78234AD65CF6B2FFF738FF05460027344606EB460293001E4A13441B899BB29D4209D98E
:400F400006EB460293001A4A1344B3F808901FFA89F900E0A9464A4608EB07013046FFF72BFEC9EB0505ADB245B906EB460293000F4A13441B899BB2994510D14F44BFB2D2
:400F800004EB440293000A4A13445B7813F0FF0FF6D025B9002211463046FFF70DFE002DC4D1BDE8F88300BF8781FF1F3082FF1F6C82FF1F08B5034B1B78034AD05CFFF796
:400FC000A1FD08BD8781FF1F3882FF1F08B5034B1B78034AD05CFFF795FD08BD8781FF1F3082FF1F38B50D4B1B780D4AD45CE4B204EB440293000B4A13441A8992B201469F
:401000002046FFF75BFE05462046FFF77BFD0128FAD02046FFF7AAFE284638BD8781FF1F3882FF1F6C82FF1FC37803F0030390F9020000280FDA032B06D002F001030B485B
:40104000C15442F001020EE0C2F380030848C15442F0040207E0032B05D0C2F340030548C15442F002021046704700BF3082FF1F3482FF1F3882FF1F1D4B19781D4A1388A6
:401080009BB20B449BB2138000220FE01A494B681B78DBB2194883544B6801334B600132D2B20B889BB2013B9BB20B80124B1B889BB20BB1072AE9D90D4B1B78DBB2082B51
:4010C00000D05AB10E490B7883F080030B700F210C4B197002210C4B197004E0022309490B7009490B70094B1A70014B1A7070474482FF1F4682FF1F5082FF1F006000404F
:40110000DA82FF1F6582FF1F4882FF1F6882FF1F0222074B1A708022064B1A700F22064B1A700023054A1370054A1370012070474882FF1FDA82FF1F6582FF1F4482FF1FCD
:401140006882FF1F08B5FFF797FF08BD10B4194B197801F00F010239C9B2174A13889BB20B449BB21380002011E0144A5468144B1B5CDBB223705368013353600130C0B20B
:401180000139C9B213889BB2013B9BB213800B4B1B889BB20BB10029E7D10A4B19700A4A137883F0800313700B22084B1A7010BC704700BF296000404682FF1F5082FF1F72
:4011C000006000406882FF1FDA82FF1F6582FF1F0623064A1370064A13708022054B1A700022054B1A700120704700BF4882FF1F6582FF1FDA82FF1F6882FF1F064B9B6827
:4012000043B1054B9A6810709A6804490988518000229A60704700BF5082FF1F4682FF1F08B5134B1A78D2B21A701B78DBB213F0800F02D00F4A137008BD0220FFF7DEFFFA
:401240000D4B1B7803F06003202B05D0402B06D043B900F0EBFC06E001F0EAF803E000F08FFE00E0002010B90322024B1A7008BD286000406582FF1F0060004008B5094BD8
:401280001978094A13889BB20B449BB213800022064B1A700120FFF7B1FF0322044B1A7008BD00BF4482FF1F4682FF1F4882FF1F6582FF1F08B50B4B1B78DBB2042B06D0FE
:4012C000062B07D0022B0BD1FFF7D8FF08BDFFF73DFF08BD0320FFF791FF0322024B1A7008BD00BF4882FF1F6582FF1F08B50022044B1A700120FFF781FF0322024B1A70F3
:4013000008BD00BF4882FF1F6582FF1F08B50B4B1B7813F0FF0F07D0084A137843F0800307490B70002313700022064B1A700120FFF764FF0322044B1A7008BD6682FF1F6A
:40134000086000404882FF1F6582FF1F08B5094B1B78DBB2042B06D0062B07D0022B07D1FFF7F0FE08BDFFF7C1FF08BDFFF7CEFF08BD00BF4882FF1F08B5284B1B78DBB2F2
:4013800013F0100F48D013F0800F0CD003F00F03012B16D1FFF744FF214B1B7813F0800F11D1012312E013F0400F03D0FFF7CEFF01230BE013F0200F07D0FFF77BFF012317
:4013C00004E0002302E0002300E0002323B3134B1B7813F0800F1FD1124B1B78124A12781343124A13701278D2B2934214D10C4B1B78DBB2094A127812F0800F07D1084BB2
:401400001B78DBB2054A1370137803F00F03044A1278D2B29342EAD108BD00BF286000406582FF1FDA82FF1F6882FF1F296000400022064B1A80064B9B682BB1044A91681E
:4014400000230B7092685380704700BF4682FF1F5082FF1F08B50F4B1B889BB213B9FFF757FE15E002220C4B1A7000220B4B1A70FFF7DEFF0A4AD179937943EA0123054A7E
:40148000128892B2934201D2024A1380FFF7F4FD012008BD5082FF1F4882FF1FDA82FF1F0060004008B504220B4B1A7080220B4B1A70FFF7BDFF0A4AD179937943EA012316
:4014C000084A128892B2934201D2064A13800B22054B1A70012008BD4882FF1FDA82FF1F006000405082FF1F6582FF1F0122094B1A700F3B9B7C084B1B7B03F00303934234
:4015000004D0054AD37B83F08003D3730122024B5A7370470B6000406C82FF1F08B5FEF7BFFD0222094B1A700F3B93F82230084B1B7E03F00303012B04D0054AD37E83F0C4
:401540008003D3760122024B5A7608BD0B6000406C82FF1F08B504220C4B1A700F3B93F832300B4B93F8243003F00303012B06D0074A92F8273083F0800382F8273001229C
:40158000034B83F82520FEF795FD08BD0B6000406C82FF1F704700BF08B5FFF777FA08BD70B4234B1C78E4B201233DE014F0010F37D01A4619011F48084481784078014084
:4015C00011F0010F17D003EB4305A8001A4D2844007910F0800F0ED0164D1E01A85D00F0FE00A85503EB4305A800134D28444579EDB21248855511F0020F0FD002EB42058A
:40160000A8000D4D2844007910F0800F06D102EB4205A800084D2844002545701201084881540133DBB26408002CBFD170BC70479F600040706000406C82FF1FFE5F0040EA
:401640007260004008B500F0A7FC08BD70B588B0054603AC174E0FCE0FC43368237035B322232B7003236B7001A800F0C9FD002402231AE008AA224412F81C2C08A901EB37
:40168000121111F8141CE954581C00212954981C02F00F0208AE324412F8142C2A54DA1CA9540134E4B20433DBB2212BE2D908B070BD00BF3C25000030B4012341E01946BE
:4016C00023481A0184180C2585541F22627003EB430082001F480244527912F0FF0F13D003EB430082001B480244127912F0800F04D01801184A024495700AE01801164A18
:4017000002440820907004E01801134A0244802090704800084482000E480244D488E4B208010B4901448C71D088C0F30720C871D088C0B20871D288C2F307224A710133E3
:40174000DBB2082BBBD9FF22044B1A7030BC7047706000406C82FF1FFC5F00400A600040074B1A78074B03EBC2035B681A7C824204D9C000103018444068704700207047A2
:401780004582FF1F50250000F8B5404B1B7813F0FF0F79D03D4B18780138C0B2FFF7E0FF047AC2683A4B1878C0B200236AE01178884264D13749095CC9B25578A9425ED1A7
:4017C000917801F07F01D67806F00306DFF8C8E04D000D44AF000EEB07054FF0000C85F803C092F802C085F804C092F803C00EF807C097882F8192F90250002D0DDA012E30
:4018000001D1072700E00D274E000E44B500224E35446F7101266E700CE0012E01D1052700E009274E000E44B5001B4E35446F7100266E70DFF868E00F010EEB07060125D2
:40184000B57001FA05F529448D00134929440D89C5F307250EF807500D89EDB27570CE88F6B20E4D3D44AE71CE88C6F30726EE71CE88F6B22E71C988C1F307216971083228
:401880000133DBB2A34292D3F8BD00BF6782FF1F5C82FF1FD882FF1F6C82FF1F70600040FC5F0040034B1A78034B03EBC2035868704700BF4582FF1F5025000008B5084BF6
:4018C00018780138C0B2FFF74BFF30B142681279023200EBC203586808BD002008BD00BF6782FF1F2DE9F047002310E0724D5900CA189600AC190022AA55A270E270228166
:40190000A272627034462C4462710133DBB2082BECD940B90AE000226849CA546849CA540133DBB200E00023012BF4D9654B1B7813F0FF0F00F0BD80624B18780138C0B282
:40194000FFF70EFF80464368DB7913F0400F05D05D4A137843F00103137004E05A4A137803F0FE03137098F808704FF0000A01266FE0D8F80C50002467E0AB7803F07F030C
:401980009E425FD1314606EB460083004A4803441B899BB2A888834206D206EB460E4FEA8E03454A134418812B784448C35CDBB26878834246D195F802C0DFF8FCE04B00DD
:4019C0000B4498000EEB000383F804C0EB780EF80030EB7803F0030395F90200002813DA012B02D14FF0070901E04FF00D09DFF8C8E04B0003EB010C4FEA8C00704480F8F1
:401A000005900121417012E0012B02D14FF0050901E04FF00909DFF8A0E04B0003EB010C4FEA8C00704480F8059000214170AB790A2B01D0022B05D1524631462846FFF739
:401A4000F3FA824608350134E4B2BC4295D30136F6B2082E8DD9D8F80C0000220CE0837803F07F0310F8084B03EB43039900124B19448C720132D2B2BA42F0D3FFF71EFF05
:401A8000124B1860002301210FE00B4D4A00501884002C44E380228992B213449BB203F0010213449BB20131C9B20829EDD9FFF703FEBDE8F08700BF6C82FF1FD882FF1F95
:401AC0004C82FF1F6782FF1F6982FF1F6082FF1F08B5154B1B7903F07F035A1ED2B2072A20D8590019448A0010490A44917841F0010191700021D170517841F0020151705B
:401B0000127912F0800F05D01B01094A1A448D23937004E01B01064A1A4489239370FFF757FB08BD002008BD006000406C82FF1FFC5F0040274B1B7903F07F035A1ED2B227
:401B4000072A44D810B5590019448A0022490A44917801F0FE0191700021D1701F4C1801215C01F07F012154517801F0FD015170127912F0800F13D003EB43018A00164984
:401B80000A445278D2B2012A04D1224602440C23937019E01B01114A1A440D23937013E003EB43018A000C490A445278D2B2012A05D11B01094A1A440823937004E01B010C
:401BC000064A1A4409239370FFF702FB10BD0020704700BF006000406C82FF1FFC5F004010B50E4B1C79E4B20D4B18780138C0B2FFF7B6FD43681B799C4201D9022C0AD8DF
:401C0000084A135DDBB208490B55044B9B78DBB21355012010BD002010BD00BF006000406782FF1FD882FF1F4C82FF1F10B59C4B1B78DBB200219B4A118013F0800F00F0C3
:401C4000AD80974A5278D2B20A2A00F27481DFE812F06900720172017201720172010B007201920072019A008D4BDB78DBB2012B09D1FFF717FE42688A4B5A6012221A808F
:401C8000FFF7E8FB10BD864BDB78DBB2022B13D1834B9878FFF764FD002800F04E814268804B5A605A68D1785A68927842EA01221A80FFF7CFFB10BD794BDB78DBB2032B52
:401CC00005D02CE00A7811440133DBB201E000237549734A9278D2B2934203D20A7812F0FF0FEFD16E4B9B7813F0FF0F0BD06C4B9B78DBB26D4A127C934204D16C4C204646
:401D0000FFF7A4FC21460B7813F0FF0F00F017810B78644A13805160FFF79CFB10BD00F087FB10BD13F0030317D0022B40F009815C490B805A4B1B7903F07F0303EB430393
:401D40009A005C4B1A449278D2B25B4B1A7000225A704B60FFF77EFB10BD524902230B80564B1A78D2B2544B1A7000225A704B60FFF770FB10BD4B4B01221A80504A5A609C
:401D8000FFF768FB10BD474A01231380444B1B794C490B445360FFF75DFB10BD404A5278013A0A2A00F2CF80DFE812F04C00CD009800CD000B00CD00CD00CD001300CD0043
:401DC0003000374B9B78DBB23F4A1370FFF700FA10BD334B9B7803F0FF041BB1601EC0B2FFF7BEFC04B110B9002C40F0AE80344B1B78DBB29C4206D0314B1C700120334BD3
:401E00001870FFF76FFDFFF7E3F910BDFFF7E8FE002800F09C80224A1379DBB21279D2B22B490A702B4AD25CD2B22649CB5CDBB29A4204D00122254B1A70FFF7A5FCFFF7E3
:401E4000C7F910BD03F00303012B17D04BB1022B7FD1134B9B7813F0FF0F7CD1FFF76AFE10BD0F4B9B78DBB2012B76D1134A137803F0FD031370FFF7ABF910BD084B1B793D
:401E8000DBB2012B6BD8064B98781B79DBB21249CA5C22EA0002CA54FFF79AF910BD00BF006000405082FF1FB82500009C260000E082FF1F6C82FF1F8881FF1F6982FF1FF7
:401EC0006782FF1FD882FF1F6682FF1F6482FF1F5C82FF1F4C82FF1FDC82FF1F03F00303012B17D04BB1022B3BD1224B9B7813F0FF0F38D1FFF7ECFD10BD1E4B9B78DBB265
:401F0000012B32D11C4A137843F002031370FFF75FF910BD174B1B79DBB2012B27D8154B98781B79DBB21549CA5C22EA0002CA54FFF74EF910BD002010BD002010BD0020B8
:401F400010BD002010BD002010BD002010BD002010BD002010BD002010BD002010BD002010BD002010BD002010BD002010BD002010BD00BF006000406982FF1FDC82FF1F94
:401F8000044B1B7813F0800F01D0024B5B780020704700BF00600040024B1878C0F38010704700BF8F4500400B4A7F2313708021517007E0DA0002F1804202F5F042013B25
:401FC000DBB21370002BF5D1DB0003F1804303F5F04300221A707047E880FF1F172815D831B103010A495A5C42F020025A5405E0030107495A5C02F0DF025A540001044A5E
:40200000835C43F00103835400207047012070471070004017280BD80001064BC25C02F0FE02C254C25C02F0DF02C25400207047012070471070004017280BD80001064AC1
:40204000835C03F0F103490001F00E011943815400207047012070471070004041F6FF73994201D14FF4005141F6FF739A4201D14FF40052172808D8C00000F1804000F556
:40208000EC408180C280002070470120704700BF172805D8034B03EB0010417200207047012070471070004017281BD810B4C00000F1804404F5EC44D201D2B201F07F015D
:4020C000114321709DF804201201D2B203F00F03134363709DF8083003F00F03A3700020E07001E00120704710BC704710B500F097F90A4B5B78182B0BD9084A1478013B3E
:402100005370E30003F1804303F5F0431B78137000E0FF2400F088F9204610BDE880FF1F10F0800F0CD111F4704F0BD1C00000F1804000F5F04001808270C37000207047B5
:40214000012070470120704710F0800F08D1C00000F1804000F5F0408180C280002070470120704701BE704710B5044605E0084B186800F04DF9A4F50044B4F5004FF6D8A9
:40218000034B586800FB04F000F042F910BD00BFF080FF1F08B5034B1B7A00FB03F000F037F908BDF080FF1F70B504460E46074B1D681F2802D90020FFF7D4FF04F01F0420
:4021C000103455F8240045F8246070BD08ED00E038B504460D46072902D90020FFF7C2FF1F2C02D90020FFF7BDFF04F01F0000F1604000F564406D01EDB2057038BD00BF90
:40220000134B1B78DBB20360124A127843EA02230360114A127843EA024303600F4A127843EA026303600E4B1B78DBB243600D4A127843EA022343600B4A127843EA02434D
:4022400043600A4A127843EA02634360704700BF0301004904010049EC4600400201004901010049000100490501004906010049F0B583B016461F460B4C022525700023D6
:40228000019300930A4601462846FFF70DFF3A4631462078FFF7E2FE29462078FFF7CCFE207803B0F0BD00BF0081FF1FF0B583B016461F460B4C0125257000230193009379
:4022C0000A4601462846FFF7EFFE3A4631462078FFF7C4FE02212078FFF7AEFE207803B0F0BD00BF0181FF1FF0B583B016461F460B4D00242C700194009423460A46014621
:402300002046FFF7D1FE3A4631462878FFF7A6FE02212878FFF790FE287803B0F0BD00BF0281FF1F044A137803F0FE0300F0010018431070704700BFF0510040044A137831
:4023400003F0FE0300F0010018431070704700BFC0510040044A137803F0FD03400000F00200184310707047F0510040044A137803F0FB03800000F00400184310707047F5
:40238000C0510040044A137803F0F703C00000F00800184310707047C0510040014B1A781870704720510040044A137803F0EF03000100F01000184310707047C0510040FB
:4023C000014B1B68D864704708ED00E04001C0B2014B1870704700BF03E400E00822014B1A60704700E100E00822014B1A60704780E100E010B50446FFF7F6FF2046FFF7DC
:40240000DFFF0020FFF7E2FFFFF7E8FF10BD00BF0230800803D000BF01380046FCD17047EFF3108072B6704780F31088704700BF08B5144B1B7803F00303012B02D0022B6A
:4024400004D00FE00F4B1B79DBB20CE00D4B1B7903F07F0303EB43039A000B4B1A44937ADBB200E00023022B07D8084A1268D35C022B04D1FEF7B6FC08BD002008BD002038
:4024800008BD00BF006000406C82FF1F6082FF1F014B1868704700BF6481FF1F0E4B70B51E460E4C0025E41AA410A54204D056F8253098470135F8E700F02AF9084B094C87
:4024C0001E46E41AA4100025A54204D056F8253098470135F8E770BD1C2700001C2700001C2700002427000010B5431E0A44914204D011F8014B03F8014FF8E710BD03465E
:402500000244934202D003F8011BFAE770470000000000000000000040510040300000000140001000140140000800400140000A004C0140000200500140200030313233BF
:40254000343536373839414243444546000000000100000058250000010000009C260000000000000000000001000000702500000100000058260000030000009C25000065
:40258000000000000000000000000000000000000000000098250000020A000000008103080002000100820240000A000100030240000A0002030000040309042C0343001A
:4025C0007900700072006500730073002000530065006D00690063006F006E0064007500630074006F00720010035500530042005500410052005400380343004400430078
:40260000200043006F006D006D0075006E00690063006100740069006F006E00200049006E0074006500720066006100630065002603430044004300200044006100740047
:402640006100200049006E00740065007200660061006300650000000902430002010180C8090400000102020103052400000004240202052406000105240100010705815B
:402680000308000A09040100020A0000040705820240000007050302400000001201000202000008B40432F201000102800143000000000000000000000000000000000003
:4026C00000000000000000000000000000000000000000000000000000000000000000000000000000000000000000000000000000000000000000000000000000000000DA
:4027000000000000000000000000000000000000F8B500BFF8BC08BC9E4670474D000000C1070000F8B500BFF8BC08BC9E4670472900000048270000C880FF1FA0000000E8
:40274000A0010000000000000000000000C2010000000800C201000000080000A120000000000200000000007F800000070000000000D859B0B300002E00000080E7BD0271
:40278000FFFFFF0000000000B0260000D0260000F026000000000000000000000000000000000000AE26000000000000000000000000000000000000000000000000000066
:4027C0000000000000000000000000000000000000000000000000000000000000000000000000000481FF1F00000000000000000000000000000000000000000000000036
:402800000000000000000000000000000000000000000000000000000000000000000000000000000000000000000000000000000000000000000000000000000000000098
:402840000000000000000000000000000000000000000000000000000000000000000000000000000000000000000000000000000000000000000000000000000000000058
:402880000000000000000000000000000000000000000000000000000000000000000000000000000000000000000000000000000000000000000000000000000000000018
:4028C00000000000000000000000000000000000000000000000000000000000000000000000000000000000000000000000000000000000000000000000000000000000D8
:020000040003F7
:0200000480007A
:400000000145004002520040021701400219014003400140054101400342014003430140044701400A48014003490140024C0140015101407E0219807C40EA02EE0AEA0265
:40004000EE0A33813648CCF05B049F01A648A780D6409F05A648A7809F05A648A78008080B040F40C20E2340260827049F04A608AE40AF81C8E0EA40EE5063409340D840F7
:40008000AC08AF4400EA000000C0C00040000000001D1D00000000004000000303000000C0000000000B0B000000000000FFFF00000000000080800080000000000000001B
:4000C0000000000000000000000000000000000000000000000000000000000000000000000000000000000000000000000000000000000000000000000000000000000000
:4001000000000000000000000000000000000000000000000000000000000000000000000000000000000000000000000000000000000000000000000000000000000000BF
:40014000000000000000000000000000000000000000000000000000000000000000000000000000000000000000000000000000000000000000000000000000000000007F
:40018000000000000000000000000000000000000000000000000000000000000000000000000000000000000000000000000000000000000000000000000000000000003F
:0200000490006A
:0400000000004005B7
:0200000490105A
:04000000BC90ACAF55
:0200000490303A
:0200000067B8DF
:0200000490402A
:4000000000000000000000000000000000000000000000000000000000000000000000000000000000000000000000000000000000000000000000000000000000000000C0
:400040000000000000000000000000000000000000000000000000000000000000000000000000000000000000000000000000000000000000000000000000000000000080
:400080000000000000000000000000000000000000000000000000000000000000000000000000000000000000000000000000000000000000000000000000000000000040
:4000C0000000000000000000000000000000000000000000000000000000000000000000000000000000000000000000000000000000000000000000000000000000000000
:0200000490501A
:0C00000000012E16106900012E2478214A
:00000001FF