:400000000080002011000000210500002105000008B5044B1A6803F53F5302331A6000F087FA00BFFA46004010B5054C237833B9044B13B10448AFF300800123237010BDAA
:400040004881FF1F0000000008090000084B10B51BB108490848AFF300800848036803B910BD074B002BFBD0BDE81040184700BF000000004C81FF1F08090000C880FF1FE0
:4000800000000000014B01221A7070476481FF1F034B93E80600501C5860885C704700BFCC80FF1F10B5FFF7F3FF0446FFF7F0FF04EB002080B210BD10B5FFF7E9FF0446FF
:4000C000FFF7E6FF04EB0024FFF7E2FF04EB0044FFF7DEFF04EB006010BD10B50446002000F0D0FA204600F0A5FB002000F0BEFA012000F0AFFA012000F08CFA012000F010
:40010000B5FA002000F0A6FA012000F0BBFABDE81040012000F07EBA38B505460C46104600F080FA002000F089FA2846FFF7D5FF012000F083FA2046BDE83840FFF7CDBFB4
:4001400010B50446012000F0A9FA204600F072FB002000F0A3FA012000F05CFABDE81040012000F09BBA08B5002000F0A3FA0A2000F03AFA012000F09DFABDE808400A2013
:4001800000F032BA08B5012000F07CFA012000F06DFA012000F05EFA012000F08BFA002000F04CFA002000F03DFABDE80840FF2000F040BB08B59F20FFF7C2FFBF20FFF70C
:4001C000BFFFDF20FFF7BCFFFF20FFF7B9FFFFF7D9FFBDE80840FFF7C6BF00002DE9F84F564F1C237B60FFF767FF554C34237B606060FFF761FF34307860524800F02CFB40
:4002000000F064FA00F06EFA00F01AFB00F09CFA00F0CEFA00F000FBFFF7CCFF62B60025A9462E46A046AA4698F800B0BBF1010FFCD1002E76D1FFF72BFF6728044646D066
:4002400017D853280AD852282FD24F282AD050286DD1FFF71DFFFFF773FF68E062281ED002D861282DD062E063285ED066285ED157E0912809D8902850D2702857D37F282A
:4002800000F00F042ED8264651E0932840D043D3E0284CD1FFF710FF00EB09054BE040F2DE2644E0FFF7FEFE41E0FFF7F1FE8346FFF7EEFE04F0010201465846FFF72CFF6F
:4002C00035E0FFF7EFFEB0B3013886B22FE0FFF7DFFEFFF7DDFEFFF7EFFE7D6828447860A94624E004F0FF001CB1461EB6B2002400E05C46144B002203EB0901495D2A20E5
:40030000FFF70AFF012C05F1010B11D15D468BE7FFF7BEFEFFF7D0FEFFF7BAFEFFF7CCFE05E0FEE7013EB6B201E040F27136AB4688F800A0EAE7AB46E8E700BFCC80FF1FBE
:400340006481FF1F850000000C090000F8B572B6604A614D1378002443F004031370062606FB045300219A881868013400F0C4FA072CF5D159485A4D002450F8041F04F158
:40038000105303F1100221F0FF061133C9B20B4452005B0002329A4206D012F8027C12F801EC07F806E0F5E7A8420C44E5D14D4A4D4E1378192543F002031370137C002484
:4003C00043F00203137402F17F42484B02F1FF1203CB1060516003CBC2F8C000C2F8C41003CB1061516103CB1062516203CBA2F55E62C2F8141EC2F8100E1378052143F07D
:40040000080313703A4B61221A700C22A3F5F0631A80384A18231370518040F212411371D1801372344B02221A704FF0402308221A70032283F80022304B314A1B78DBB29E
:40044000137040F22E222F4B1A8041F2512223F8022C33784FF4F07003F0010343EA440400F00EFA013D04F0030432D0032CF0D1254B4FF480721A80244907221A704820D0
:4004800000220A7088701A70022203F8032CC12283F8FC27012203F5F8231A701C4B1D4A1B781D4CDBB203F007011B0911705370052382F8D53282F8D73282F8D932174BC2
:4004C00044221A70A3F5A653163B0FCB07C42380F8BDFEE7E84600404A9C0300FCFFFF471C00004803500140254200404C000048004800408240004000430040080100491E
:40050000A1460040224200400440004006400040CF0100496E580040B04300407658004008B500F0BDF903680C2B00D1FEE7FEE780B51148114B0025C0B1A3F1100192C966
:4005400022460439161BB74204D051F8046F42F8046BF7E7114653F8046C8C1AA64202D041F8045BF9E701381033E5E700F09EF9FFF734FEFEE700BF01000000AC9C0300C4
:40058000104A114B10B41A60104A114C1368114843F4007313600023032B98BF54F823204FEA830188BF0C4A0133302B4250F3D10A4B1A780A4B1A700A4B064A10BC1A6078
:4005C000FFF7C4BE0004FA050CED00E014ED00E0000000000080FF1F21050000BC760040C080FF1F08ED00E038B50446084DB4F5004F05D9286800F043F9A4F50044F6E785
:40060000034B58686043BDE8384000F039B900BFD480FF1F024B1B7A584300F031B900BFD480FF1F044A137803F07F0343EAC010C0B21070704700BF20510040044A40015E
:40064000137800F0200003F0DF0303431370704700510040044A8001137800F0400003F0BF0303431370704700510040044A137803F07F0343EAC010C0B21070704700BFF6
:4006800000510040044A8000137800F0040003F0FB0303431370704710510040044A0001137800F0100003F0EF0303431370704710510040044A4001137800F0200003F04D
:4006C000DF0303431370704710510040044A137843F002031370137C43F0020313747047A2430040044A137843F001031370137C43F0010313747047A2430040084A1378A0
:4007000043F060031370A2F5A652133A137843F008031370137C43F008031374704700BF77580040054B00F003001A7802F0FC021A701A7810431870704700BF5E58004077
:400740000120FFF7EFBF000008B5054B1A781AB901221A70FFF7F4FFBDE80840FFF7CEBF6C81FF1F084A137843F060031370A2F5A652133A137843F002031370137C43F057
:4007800002031374704700BF77580040054B00F003001A7802F0FC021A701A7810431870704700BF5A5800400320FFF7EFBF000008B5054B1A781AB901221A70FFF7F4FF35
:4007C000BDE80840FFF7CEBF6D81FF1F084A137843F060031370A2F5A652133A137843F004031370137C43F004031374704700BF77580040054B00F003001A7802F0FC02C9
:400800001A701A7810431870704700BF5C5800400120FFF7EFBF000008B5054B1A781AB901221A70FFF7F4FFBDE80840FFF7CEBF6E81FF1F014B1A7818707047C05100409F
:40084000044A137843F004031370137C43F0040313747047A2430040064A0123136002F68832126800211064034A1170A2F540721360704780E100E000E400E000000000C8
:400880000230800803D000BF01380046FCD17047EFF3108072B6704780F31088704700BF014B1868704700BF4481FF1F0E4B70B51E460E4C0025E41AA410A54204D056F8D6
:4008C000253098470135F8E739F0D6F9084B094C1E46E41AA4100025A54204D056F8253098470135F8E770BD849C0300849C0300849C03008C9C030003460244934202D08B
:4009000003F8011BFAE770470000000056676D203A93030050010000999E36000000000026920300B0EB0C0000000000000000003C00000009001000B50A75000000000045
:400940000C00000000000000000000006766007A1F00007F7F8080807F807F7F8084888C90989CA4ACB4B8C0C8CCD0D4D5D5D6D8DADCDEE2E1E0E0DDDEDDDCDBDBDAD9D8D6
:40098000D8D7D6D6D5D4D3D3D2D1D1D0CFCFCBC7BFB7AFA79F978F877F776F675F57534F47433F3B37332F2B282522211E1E1B1B18171613120F0E0B0A070704050607084B
:4009C000090A0A0B0C0D0E0F101111121317191D2125293135393D45494D51595D65696D75797D8185898B8F9395999B9FA1A3A5A9ADAFB1B3B3B5B6B6B7B7B8B8B8B8B852
:400A0000B8B8B8B7B7B6B6B6B5B4B1B2B1B0AFAFAEAEADACACACACABAAA9A9A8A8A9A9A8A8A8A7A7A8A8A9A9A9AAAAAAAAA9A8A8A8A7A6A6A3A3A09F9E9D9C999996969357
:400A4000928F8E8A878483807D7A77736F6C696663605D5A5956555451504F4C4C4B4A4948454443424241403F3F3F3E3F403F40414344454648484A4B4D4E5051525355AC
:400A800056585A5C5E606264686A6C6E707476787A7C7E808284868A8B8D8E8F90929294949595969697979798989999999A9A99999998989797969595929291908F8E8D93
:400AC0008C8B8A898686868384838281807F7E7E7D7C7C7B7A7A797877767676767675757676767676767777767778787878797879797A7B7C7C7D7E7E7F7F8081818284E0
:400B0000848585858585868686868686858585848483838281807F7E7B7B7A7976757471706D6A6A676663605D5D5A595857545352515050504F4F4F4E4E4F4F4F5051529E
:400B40005253555657595B5D5F6165676B6D7175777B7F8183878B8F919395999B9DA1A3A5A9ABADB1B3B5B7B9BBBDBFC1C3C4C5C6C7C8CACBCBCBCBCBCBCBCBCBCBCAC97C
:400B8000C9C8C8C7C6C5C4C3C0C1C0BDBCB9B8B5B2B1AEABA7A4A09D9A9693908C8885817E7A76726E6A66625E5A56524E4B47433F3C3935322F2C2928252421211E1E1DC4
:400BC0001C1C1C1C1C1C1C1C1D1E1F2022242627292D2F3135373B3F4145494D5153575B5F63676B6F777B7F83878B8F93979B9FA3A7ABAFB3B7BBBFC3C7C9CBCDCFD1D318
:400C0000D5D7D8DADCDDDEDEDDDEDEDEDBDBDAD7D6D5D2CFCCC9C8C4C0BDBAB6B2AEAAA6A29A97938F8B87837F7B77736F6B67635F5B585552514E4B4A4747444441424120
:400C400040403F3F3F40404041414243434445464748494A4B4D4E4F5152545557595A5C5E6062636566686A6B6D6E7072747678797B7D7F80828486888A8C8E9092939539
:400C800096989A9C9E9FA1A3A5A7A8AAACADAEB0B2B3B4B4B5B6B7B7B8B9B8B8B8B7B7B7B6B5B4B3B2AFAEADACA9A8A5A4A1A09D9C9998959491918E8B8A878683807F7C1E
:400CC0007978757471706D6C696865656261605D5D5C5B5A595858575756565555555555555656565657575859595A5A5C5D5E5F606263646668696B6D6E7072737577797C
:400D00007A7C7D7F8182848587888A8B8D8E8F909192949596979798999A9B9C9D9D9D9E9E9FA0A0A0A0A0A0A1A1A1A0A0A0A0A0A09F9F9E9D9D9D9D9C9B9A99989796951C
:400D4000949191908F8E8D8A8A8786858481817E7E7B7B7A77777673727271706D6D6C6B6A69696867666665656464646464646464646464646565666667676868696A6ADC
:400D80006B6B6C6D6E6E6F70707171727373747475757576777878797A7A7B7C7C7D7E7E7F8081828383848485868687888889898A8A8B8B8C8D8D8E8E8E8F8F8F8F8F8F84
:400DC0008F8F8F8F8F8F8F8F8E8E8E8E8E8D8D8D8C8C8C8B8B8A8A898988878786858584848382818180807F7E7E7E7D7D7C7C7C7C7C7B7C7C7C7C7C7C7D7D7E7E7F7F80C3
:400E00008081828283848585868686878788888989898A8A8B8B8B8B8B8B8B8C8B8B8B8A8A8A8989888787868585848380807F7E7D7C7B7878777673737271706F6C6C6C2C
:400E40006C696A6A6A69696968686969696A6B6B6C6D6E6E6F707172737475767778787A7A7B7C7D7E7E7E7F7F8080818282838384858686878888898A8B8B8C8C8D8E8F27
:400E80008F8F90909191919292929292929292929191919191919090908F8F8F8F8F8E8E8E8D8D8E8D8D8D8D8C8C8C8C8C8B8B8A8A8A8A8A898888878787868584848382EE
:400EC000827F807F7E7D7C7C7B7A797877777676757474737373737272727272727272717171707071707170706F6F6F6F6F6F6F6F6F6F6F6F70707070717272737374740A
:400F00007575767677787878797A7A7B7B7B7B7C7D7D7E7E7E7F80808182828383848485858686878889898A8B8B8B8C8D8D8E8E8F8F8F909090909091919190909090907D
:400F40008F8F8F8F8F8E8E8E8D8D8D8C8C8C8C8B8B8A8A8A89898887868686858484838382828180807F7F7E7E7D7D7D7C7C7B7B7B7A7A7B7A7A7A7A7A7B7B7B7B7C7C7C9B
:400F80007C7D7D7D7E7E7E7E7F7F7F7F7F7F7F7F7F7F7F7F7F7F7E7E7E7E7E7D7D7D7D7C7C7C7B7B7B7B7A7A7979797979787877777777777776767676767777767676776A
:400FC00077787878787879797A7A7A7A7A7B7B7B7C7C7C7C7C7D7E7E7E7E7E7E7F7F80808080808181828383838384848585858686868687878787888888888988888888DE
:4010000088888989888888888889888888888888888888888787878787868686868686868585858585858584848483838382828180807F7F7F7E7E7E7D7D7C7D7C7C7C7CA9
:401040007C7C7C7C7C7C7C7C7C7D7D7D7D7D7D7D7E7E7E7E7E7E7E7E7E7E7E7E7E7E7E7E7E7F7F60504C48474B4B473F4145495161718189919599A1A9B1B5B7B9BDBDBA97
:40108000BABABEC2C1C3C2BAB2AEB2BAC2CACBD3D7DBDFE3E7EFF1EEEAE2DEDAD6D2CFC7B7AF9F8F7F6F67574F3F37373936322E26282A2E323A424A525A626A72767E8054
:4010C00082868887888A8E929493908F8C8C8B8884889092969AA2A6A8B0B8C0C2C6CACBC8D0D2CFC7B7AFABA39B938373534B433B2B231B130B0A0B08080C14131B23276B
:401100002B2F3747575B5D6160626A727A7E7B7A726A666763676B6B636B6C6B6F777F8F97989A9EA6AEB6BEC6CECFC7BFAFAFAEA6A6A29A928A82726F6C69656159514D3D
:401140004A4A4E50545857585A5E666A727A7C7D7D81837F8387898D8E90949193979B9D9C9C9C9D9FA7AFB1B5BDBDBCBEC0BFBBBBBCB8B4B4B5B1A9A5A29E9A92827A7291
:401180006A625F5F5B5A57575B5A5C6064666261656162635F5C595B574F4B48494B4C505052565A626A7A828A929AA2A6A8B0B8BCB8B9BBB7AFA7A3A09FA09D958D85817D
:4011C000807C7C7B7372737779757D8183828484807C7875716966665E5A565756524F4F4F51555D6D6F7F87979FA7B7BFC3CBD3D5D1CDCAC2BFBCBBB7A7978F877F7B7C5C
:401200007C787C8084868A8E9294989C9E9F9B989494908C88807060504038302C282A272323252931394951596971818999A1B1B9C9C6C2BFBCB8B8BCB8B0AC9C94908C48
:4012400089898884807C797D8185898D959DA1A5A2A19E9E9B989591898179716D696159514D4A4A474B4D4F535B5F676B7383878B8F979B9FA7A9ADB1B5B7B7B4B6B3AF2A
:40128000ABA8A79F9B938F8C8D898986837F7E808185818589898B8F8F908C8E90918E8B877F776F6B675F5B574F473F3B3838393B3B3C444C4D55596169717577797B7B21
:4012C0007F8784888A86827A7776767A7C78777979797B7F8385878481898B8A8C8B8B8F9395929395949595969796938F8E90928F8E8D8A8C908C8884817E7E7B77736F52
:401300006F6C68646363636062666A6A6B6D75797D85898B8F93949190949392918D858585828484858685817E82868A8E929A9EA2AAB2B1B3B7B8B9B5B1A9A59D95918D37
:40134000857D6D655D5955514D494845474B4D4F5357595D61656D71716D717375726F6E6B67676461635F5E625F606870787C80889098A8ACB4BCC4C8CACED2D1D0D1CE2D
:40138000CAC6BEBAB2AA9A97938B878380787072726F6F70706C6E726F706D6D6C68656566636463625F5C5D5E5B5A5C606266686A6B6F777B7D7E82848486888C909496AB
:4013C0009A9B989CA0A1A1A3A5A199969293908F8C89817D756D65615D5D5955514D494A4C4B4F5355525451555D656D75797A7C8082868A8B8F8F8B8784807F7E7D7F81BA
:401400007E7E7F8183878F93979FA7ABB3B5B9BDBFBFBEBAB6AEA6A29E9A928A82726A665E5A56524E4D4E4E5252565E5F6165697175797D81898D8D8D8E908F8B8D8A8A81
:401440008683828385868A8E8F9092969A9B989A9EA0A1A0A2A4A1A2A19E9A96928A827E7A76726E6B68605C58545355575756535555575B6367646465626466666A6B6CCA
:401480007074706F73777F838B8D8F90908F919397999594909293929192949495999B9C9EA0A4A3A7A9A5A4A39F9C9894908C8985817D756D6965615E5D5A59565A5E5D79
:4014C0005F6364686C70787C7D7F8084888C908D8A8A87868383827F80817E7A7675777B83878B8B8A898A8B8F939B9D9A9B9C999B9D9E9B9B978F8B8783807D7976726AC4
:40150000665E5A595B5C5D5A575956575B5D5E60625F6162636567696B737576787A7E828A8E929697999A9A9EA0A0A09C9999999B9B98999D9F9B9B9C9C9B9B9D999692EE
:4015400091908D898A867E7A76726E6A67635F5B5C5B5859585A5A5B5D5C5C5E626A6A6C7074787C80827F81818387898D8F8F8F91959999969798999D9FA3A5A7ABACABF9
:40158000ACA9A5A29F9B989793908C8884807D757169615D5956565352514E505151555757575B5F6165696D7175797D7F81858786838587878787898B8B8D8E8B8F908CF4
:4015C00089898D91928F919594939495979495928E8B8B8C898884807C74706D6965625E5B5859595857585A5E5F6163676F737B7F838486888C909296989797979998952C
:40160000959292928F8C8B8B8C8C8D8A8C898A8C8D8F8C909491928F8C898581797575716E6A625E5A5959595A575757595D61656D717576787C7E8284888C909493909261
:401640009698989999999591909090909293929293929392949698959493929291908D898685817975716E6B68676666625F5F616567676764666A6C6C707474767A7C7E3F
:401680008284868889898A8B8D9193949594959697999B98959697949193929495928E8D8A868281858683807F7C7E807D7E7D7A7C7875716E6E6B6B6B6B6C69686763603C
:4016C0006468696B6D6D6F717577797D7F7E7F80828687898B8F919192928F90928F91918E8E8B878887848380817E7B7D7A7C7B7B7D7F7F81838484858786868A8E8F8B60
:401700008B8B8D8F8F908C888986827E7F7F7F7C7B7A7A797B7C7B7D818587888A8E92939395929495918E8F8E8B87837F7B7B77736F67676968656766686A6C6B6F7374C1
:4017400076777B7D7F7F81818282827E7B7A77777473727474737577777B7D7F8183878B8B8F919594939393959592928F8B8B8B87848180807D7D7D7C7B7A7778787A7C1D
:401780007D7D7D7F80808284888582817D7A7B7C7B78797874706C6D6F7074757273737474787A7E868383838284868A8A898986868384868887878481807F7E7B7D7D7FB0
:4017C00081818081808284848486858586858687898889868586838080828282838281827F818382848481817E8081828283838080817E7E7F81817E7F7F80828183848454
:401800008383848483838081808082828180817E7F818383828185858586888A8B8C8E8E8B8D8A8A8B8A898A86838582838282817D7C7B7879787A7B7A7A7B7A7B7D7F810D
:401840008382838585878B8C8D8A8C8B8B8B88878683807D7D7A7B7B7A79797A7B7A7B7D7E80828488898B8D8F91918E908F8E8B8885827F7B7774716E6B68656464636362
:40188000656667696A6E70727678797A7C8082817E7F81828182828181817E7F8080808080828485868688898B8F908F8C8D8F8F8F908F8C89898685828484817E7F7C7DFE
:4018C0007C7D7E7D7E7E7E7B7C7D7D7D7C7D7D7A7778777473747474767676757577797A7E808183848587898B8D8F9190908F8E8F90909192918E8B8B8B8B8C8D8D8A8B55
:401900008887898B8C8D8E8D8A89868586868584817E7B787878777778777475727173757778797A7A79787A7C7D7F7F7C7B7A77787A7A7C7D7D7A7A7A797A7C7D7D7F7F4D
:40194000818081858789898988878687878787878784817E80817E7F7C7B787777777979787878797B7A7B7B7C7D7E7E807F7E7E7F8183838484848481828383838485854C
:4019800087878787868788888887898A8A8C8E8E8E8E90908D8E8E8D8C8B8A89888585817D7C7B78777373726F6F6E6F7071737375777778797B7F818282828182838283CE
:4019C000827F7F7C7B78797A7C7D7C7D7F80828486888C909293959698989797979693928E8D898683807D7C797676737271707070706F70717171727475777778777776EC
:401A00007676777978797A797A7C7D7F8183848587898B8F9092949698989898989897969393908F8E8D8A87878784838481807F7F7E7D7D7E7B7B7B7A797675716E6B6BB1
:401A40006B6A67686566656567686A6C6E707274787C8082868A8A8C8D8E8E90909092928F8F8E8D8E8E8E8D8A8A8A8988898A8A8A87868683838483808181807D7C7B7A55
:401A80007777747471706F6C6D6D6D6E6E6D6E6F6F7175797B7D818385898D8F91939596959594959696979693908F8E8B8B8B8B888786858485868787878683828281827E
:401AC000828281807F7C7979767572716E6D6C696969696B6B6D6D6D6E707274787C7E80848586888A8C8D8C8D8D8A8A878787868685828181808081838586868788898B92
:401B00008C8E8F8C8C898887848481817D7A77737071706F6F6E6F7071727476777B7F808284858787888A8A898885858585827F7E7D7D7D7A7A7B7B7B7D7F8082848688E2
:401B40008A8B8D8E8D8D8E8E8E8D8A87868382817E7B7B78777777787877797B7B7D7F7E7E7F8182818180807F7F7E7D7C7979787776767776767778797B7D7F8183858790
:401B800088898B8C8D8C8B8B8A8A8A89868683828181808080808082848687898B8B8C8D8E8D8D8E8F8E8E8D8A8786858483807F7B78777879797A7A7B7A7B7B7D7F818306
:401BC00085868788888988898988878481827F7F7C7E7D7D7D7C7B7B7C7D7E7F8183838384858688898888878484838080817E7D7C797677767373726F706F6F7172747631
:401C0000767778797A7B7C7D7E7F7F7F808182848380818080808283838383848586878888878989888989898A8A8B8C898A898986868787868585848483838281808080D7
:401C40007D7E7E7F7E7D7D7D7C7B7C7B78797A7B7B7C7B7B7C7D7E7F7F80818182838486868786868787868585858586868585868686868685868685848383838382818111
:401C80008281807F7F7E7E7D7C7C7D7D7D7C7C7C7C7D7C7B7B7B7A7B7B7C7C7C7D7D7E7E7F807F7F7F7F808080808080808181818181818182838283828383838484848460
:401CC000838383838484848383838383838281818181807F7F7E7D7C7C7D7C7B7B7B7A7A7A7B7B7B7B7B7C7C7D7E7F7E7F7F7F807F80808080807F7F7F7F7F7F7E7E7F7E25
:401D00007E7F7F7F808181818283848585858585858485858484858481828380807F7F7E7F7E7E7E7E7E7E7D7D7D7D7D7D7E7F7F7E7F80808081818180807F7F7F80808083
:401D40007F808080818182838585868788898A8B8C8D8E8F8E8D8E8D8D8C8B8A8A898888878786858584838382817E7F7F7F7E7F7F7E7F7E7E7E7E7E7E7D7E7F7F807F7F59
:401D80007F7F7F8080818080808081818283848485858585868687878888878888898989898A89888888888787868383828180807D7E7B7B787878787877777776777677C5
:401DC000767778787878787879797B7B7C7C7C7C7C7D7E7F8080818282848586858688898989898A8A8A8A8A89888786838383838382818080808080808080807F80807FAD
:401E00007F7E7E7D7D7C7B7B7A79797A7A7A7979797A7B7D7D7F808081838485868687888989898A8A8989898888878786858585848383838383838485858585878686861C
:401E40008584838281807D7D7A7B78797877767373737475777778797B7D7F81828385858687878788888787878685858483838383828181818383848585878888898A8A39
:401E80008A8A8989888786858281807D7D7A777675727171727273737374747677787A7B7C7D7E7E7E80818080808080807F7C7D7D7D7E7D7E7F7F808181838485868788B6
:401EC000898A8B8A8A8B8B8B8A89868584838281807F7E7D7D7C7C7B7B7A7A7B7B7A7B7B7B7B7C7C7C7B7B7B7B7C7C7C7C7C7B7C7D7E7D7E7E7E7F808181818183848586E8
:401F0000868787878989888889898989898988888786868585848382828181808080808080808080807F7F7F80808080808080808080807F7E7E7D7E7F7E7F7F7F7F808008
:401F4000818182838485868687888889898A8A898989888888878685848383838281807F7F7F7F7F7E7E7D7D7D7E7E7D7D7D7D7D7C7B7B7A79797979787877777878797948
:401F80007A7A7B7D7E8081828485868787888989898887878786858483828181818181818181838384858585858586878787868585858483827F7F7E7D7A7A7A7978777799
:401FC0007777777878787A7B7D7E7F8081828485868686868586858584838282818180807F7F8080807F8080818182838485858686868685858584848382818180807F7E9A
:402000007D7D7C60504C48474B4B473F4145495161718189919599A1A9B1B5B7B9BDBDBABABABEC2C1C3C2BAB2AEB2BAC2CACBD3D7DBDFE3E7EFF1EEEAE2DEDAD6D2CFC79F
:40204000B7AF9F8F7F6F67574F3F37373936322E26282A2E323A424A525A626A72767E8082868887888A8E929493908F8C8C8B8884889092969AA2A6A8B0B8C0C2C6CACB0C
:40208000C8D0D2CFC7B7AFABA39B938373534B433B2B231B130B0A0B08080C14131B23272B2F3747575B5D6160626A727A7E7B7A726A666763676B6B636B6C6B6F777F8F33
:4020C00097989A9EA6AEB6BEC6CECFC7BFAFAFAEA6A6A29A928A82726F6C69656159514D4A4A4E50545857585A5E666A727A7C7D7D81837F8387898D8E90949193979B9D64
:402100009C9C9C9D9FA7AFB1B5BDBDBCBEC0BFBBBBBCB8B4B4B5B1A9A5A29E9A92827A726A625F5F5B5A57575B5A5C6064666261656162635F5C595B574F4B48494B4C5032
:402140005052565A626A7A828A929AA2A6A8B0B8BCB8B9BBB7AFA7A3A09FA09D958D8581807C7C7B7372737779757D8183828484807C7875716966665E5A565756524F4F06
:402180004F51555D6D6F7F87979FA7B7BFC3CBD3D5D1CDCAC2BFBCBBB7A7978F877F7B7C7C787C8084868A8E9294989C9E9F9B989494908C88807060504038302C282A27EC
:4021C0002323252931394951596971818999A1B1B9C9C6C2BFBCB8B8BCB8B0AC9C94908C89898884807C797D8185898D959DA1A5A2A19E9E9B989591898179716D6961590E
:40220000514D4A4A474B4D4F535B5F676B7383878B8F979B9FA7A9ADB1B5B7B7B4B6B3AFABA8A79F9B938F8C8D898986837F7E808185818589898B8F8F908C8E90918E8BA8
:40224000877F776F6B675F5B574F473F3B3838393B3B3C444C4D55596169717577797B7B7F8784888A86827A7776767A7C78777979797B7F8385878481898B8A8C8B8B8FD5
:402280009395929395949595969796938F8E90928F8E8D8A8C908C8884817E7E7B77736F6F6C68646363636062666A6A6B6D75797D85898B8F93949190949392918D858550
:4022C00085828484858685817E82868A8E929A9EA2AAB2B1B3B7B8B9B5B1A9A59D95918D857D6D655D5955514D494845474B4D4F5357595D61656D71716D717375726F6EBD
:402300006B67676461635F5E625F606870787C80889098A8ACB4BCC4C8CACED2D1D0D1CECAC6BEBAB2AA9A97938B878380787072726F6F70706C6E726F706D6D6C686565FE
:4023400066636463625F5C5D5E5B5A5C606266686A6B6F777B7D7E82848486888C9094969A9B989CA0A1A1A3A5A199969293908F8C89817D756D65615D5D5955514D494A4A
:402380004C4B4F5355525451555D656D75797A7C8082868A8B8F8F8B8784807F7E7D7F817E7E7F8183878F93979FA7ABB3B5B9BDBFBFBEBAB6AEA6A29E9A928A82726A669D
:4023C0005E5A56524E4D4E4E5252565E5F6165697175797D81898D8D8D8E908F8B8D8A8A8683828385868A8E8F9092969A9B989A9EA0A1A0A2A4A1A2A19E9A96928A827E88
:402400007A76726E6B68605C58545355575756535555575B6367646465626466666A6B6C7074706F73777F838B8D8F90908F919397999594909293929192949495999B9CF3
:402440009EA0A4A3A7A9A5A4A39F9C9894908C8985817D756D6965615E5D5A59565A5E5D5F6364686C70787C7D7F8084888C908D8A8A87868383827F80817E7A7675777B95
:4024800083878B8B8A898A8B8F939B9D9A9B9C999B9D9E9B9B978F8B8783807D7976726A665E5A595B5C5D5A575956575B5D5E60625F6162636567696B737576787A7E82F2
:4024C0008A8E929697999A9A9EA0A0A09C9999999B9B98999D9F9B9B9C9C9B9B9D99969291908D898A867E7A76726E6A67635F5B5C5B5859585A5A5B5D5C5C5E626A6A6C47
:402500007074787C80827F81818387898D8F8F8F91959999969798999D9FA3A5A7ABACABACA9A5A29F9B989793908C8884807D757169615D5956565352514E5051515557DF
:4025400057575B5F6165696D7175797D7F81858786838587878787898B8B8D8E8B8F908C89898D91928F919594939495979495928E8B8B8C898884807C74706D6965625E1C
:402580005B5859595857585A5E5F6163676F737B7F838486888C90929698979797999895959292928F8C8B8B8C8C8D8A8C898A8C8D8F8C909491928F8C89858179757571D2
:4025C0006E6A625E5A5959595A575757595D61656D717576787C7E8284888C90949390929698989999999591909090909293929293929392949698959493929291908D8972
:402600008685817975716E6B68676666625F5F616567676764666A6C6C707474767A7C7E8284868889898A8B8D9193949594959697999B98959697949193929495928E8DB9
:402640008A868281858683807F7C7E807D7E7D7A7C7875716E6E6B6B6B6B6C69686763606468696B6D6D6F717577797D7F7E7F80828687898B8F919192928F90928F919173
:402680008E8E8B878887848380817E7B7D7A7C7B7B7D7F7F81838484858786868A8E8F8B8B8B8D8F8F908C888986827E7F7F7F7C7B7A7A797B7C7B7D818587888A8E92930C
:4026C0009395929495918E8F8E8B87837F7B7B77736F67676968656766686A6C6B6F737476777B7D7F7F81818282827E7B7A77777473727474737577777B7D7F8183878B18
:402700008B8F919594939393959592928F8B8B8B87848180807D7D7D7C7B7A7778787A7C7D7D7D7F80808284888582817D7A7B7C7B78797874706C6D6F707475727373748E
:4027400074787A7E868383838284868A8A898986868384868887878481807F7E7B7D7D7F81818081808284848486858586858687898889868586838080828282838281829A
:402780007F818382848481817E8081828283838080817E7E7F81817E7F7F8082818384848383848483838081808082828180817E7F818383828185858586888A8B8C8E8E7D
:4027C0008B8D8A8A8B8A898A86838582838282817D7C7B7879787A7B7A7A7B7A7B7D7F818382838585878B8C8D8A8C8B8B8B88878683807D7D7A7B7B7A79797A7B7A7B7D71
:402800007E80828488898B8D8F91918E908F8E8B8885827F7B7774716E6B686564646363656667696A6E70727678797A7C8082817E7F81828182828181817E7F80808080A1
:4028400080828485868688898B8F908F8C8D8F8F8F908F8C89898685828484817E7F7C7D7C7D7E7D7E7E7E7B7C7D7D7D7C7D7D7A7778777473747474767676757577797A3D
:402880007E808183848587898B8D8F9190908F8E8F90909192918E8B8B8B8B8C8D8D8A8B8887898B8C8D8E8D8A89868586868584817E7B78787877777877747572717375B3
:4028C0007778797A7A79787A7C7D7F7F7C4FFF5080500050A0500050C0500050E5509F50BF50DF50FF522800522804522801522805522802522806522209522700522B80FE
:40290000523073533063523173533173523207533200523434533461523534533534523600533600523833533864523933533933523A00533A00523C74533C61523D74530B
:402940003D74523E00533E005240FF5340FF5241FF5341FF5242FF5342FF5244FF5344FF5245FF5345FF5246FF5346FF5248FF5348FF5249FF5349FF524AFF534AFF524C52
:40298000FF534CFF524DFF534DFF524EFF534EFF52504F5350DA52514F53514F52521F5352005254505354DC52555053555052561F5356005258125358DD525912535912AC
:4029C000525A1F535A00525C1F535CDF525D1F535D1F525E1F535E0052608953608852618953618952629453620052648953648452658953658952668E53660052688F5365
:402A0000688552698F53698F526A8A536A00526C8F536C8A526D8F536D8F526E9F536E0052700853700552710853710852720053720052740853740252750853750852760E
:402A400000537600527801537804527901537901527A00537A00527C01537C03527D01537D01527E00537E0052802853802752812853812852825A5382FF528428538436E6
:402A80005285285385285286AA5386FF528838538814528938538938528A5A538AFF528C38538C15528D38538D38528E0A538EFF52900053900052910053910052920053BD
:402AC0009200529400539400529500539500529600539600529800539800529900539900529A00539A00529C00539C00529D00539D00529E00539E0052A41453A42C52A591
:402B00001B53A51452A61353A60052A03C53A03C52A13153A14052A22D53A20052AC0A52AD0A52AE0A52A8DE52A98452AA8452B02453B03852B12453B12452B20153B200F3
:402B400052B4C053B4C052B5C053B5C052B6C053B6C0522B806138005227005082500E50A3500E50C3500E50E461240052280072522801522802725228035228045228051F
:402B8000725228065240FF715340FF5244FF5344FF725248FF5348FF524CFF72534CFF5241FF725341FF5245FF5345FF725249FF5349FF524DFF71534DFF5242FF5342FFD2
:402BC000725246FF5346FF72524AFF534AFF524EFF72534EFF7D523073725234347252383371523C747252400E7252440C7252480A72524C0A7152504F725254507252585E
:402C00001272525C1F72526089715264897252688F526C8F72527008725274087252780171527C0172528028725284287252883872528C387152B0247252B4C0725248061C
:402C400072524C067452481B72524C1B755228007252A4147152A03C725228F075523173725235347252393371523D747252410E7252450C7252490A524D0A7252514F710B
:402C80005255507252591272525D1F72526189725265897152698F72526D8F72527108725275087252790171527D01725281287252852852893872528D387252B124715200
:402CC000B5C075524906524D067552491871524D18785228017252A51B7152A131725228F1785232077252360071523A0072523E007252421E7252461772524A14524E0068
:402D00007152521F7252561F72525A1F72525E1F725262947152668E72526A8A72526E9F725272007252760071527A0072527E007252825A725286AA528A5A72528E0A7128
:402D400052B2017252B6C075524E0672524E13775228027252A6137252A22D715228F275533063725334617253386471533C617253401E7253441E7253481E72534C007285
:402D80005350DA715354DC725358DD72535CDF725360885364847253688571536C8A72537005725374027253780472537C0371538027725384367253881472538C157253E4
:402DC000B0387153B4C072534C0675534C1B745228047553A42B53A02D725228F474533173725335347253393372533D747253410E7153450C7253490A72534D0A72535131
:402E00004F725355507253591271535D1F72536189725365897253698F72536D8F537108715375087253790172537D0172538128725385287153893872538D387253B12471
:402E40007253B5C07253490671534D067553491B72534D1B745228057553A5147253A140725228F574534EFD7CE0000000008150967084838483828050D67284828383841C
:402E8000838481848383828483848283838482838383838482848284838481848B848284828483848283838383838384828482848284838283848383828483848283838347
:402EC000838383848284828482848382838483838284838481848383828483848284828482848382838483838284838481848383828483848283838482838383838483830F
:402F000082848384818483838284838482838384828383838384828482848383828483828384838482838384828383838384828482848383828483828384838481848384CE
:402F40008283838383848284828483838284838283848384818483848283838383838384828482848284838283848384818483848283838383838384828482848284838290
:402F800083848383828483848283838C8285828383848283838383848284828483838284838283848384818483848283838383848284828483838284838283848384818445
:402FC000838482838383838383848284838382848382838483848184838482838383838383848284828482848382838483848184838482838383838383848284828482840E
:4030000083828384838382848384818483838284838482848284828483828384838382848384818483838284838482838384828383838384838382848384818483838284CE
:40304000838482838384828383838384828482848383828483838284838482838384828383838384828482848383828483828384838481848384828383838B858284828484
:40308000828483828384838382848384818483838284838482838384828483828384838382848384818483838284838482838384828383838384828482848384818483834E
:4030C000828483848283838482838383838482848284838382848382838483848283838482838383838482848284838382848382838483848184838482838383838383840D
:4031000082848383828483828384838481848384828383838383838482848284828483828384838481848384828383838383838482848284828483828384838382848384CC
:4031400081848383838383848284828482848382838483838284838481848383828483848283838482848382838C8384838382848382838483848184838482838383838385
:40318000838482848284828483828384838481848384828383838383838482848284828483828384838382848384828383838383838482848284828483828384838382844C
:4031C000838481848383828483848284828482848382838483838284838481848383828483848283838482838383838482848284838481848383828483848283838482830D
:4032000083838384828482848383828483828384838482838384828383838384828482848383828483828384838481848384828383838384828482848383828483828384CB
:4032400083848184838482838383838383848284828482848382838B8484838481848383828483848283838482838383838482848284838382848383828483848283838482
:40328000828383838384828482848383828483828384838481848384828383838384828482848383828483828384838481848384828383838383838482848383828483824D
:4032C000838483848184838482838383838383848284828482848382838483838284838482838383838383848284828482848382838483838284838481848383828483840A
:4033000082848284828483828384838382848384818483838284838482838384828383838384838382848384818483838284838482838384828383838384828482848383CB
:40334000828483838284838C838482838383838383848284828482848382838483838284838481848383838383848284828482848382838483838284838481848383828482
:40338000838482838384828483828384838382848384818483838284838482838384828383838384828482848384818483838284838482838384828383838384828482844A
:4033C000838382848382838483848184838482838383838482848284838382848382838483848184838482838383838383848284838382848382838483848184838482830B
:4034000083838383838482848284828483828384838481848384828383838383838482848284828483828384838382848384818483838383838B84848283838383848284C0
:403440008284838382848382838483848184838482838383838482848284838382848382838483848184838482838383838383848284828482848382838483848184838489
:40348000828383838383838482848284828483828384838382848384828383838383838482848284828483828384838382848384818483838284838482838384828483824B
:4034C0008384838382848384818483838284838482838384828383838384828482848384818483838284838482838384828383838384828482848383828483828384838408
:40350000828383848283838383848284828483838284838283848384818483848283838383848284898682848380522804748053A42B7253A02D725228F471838383838300
:403540008284838482848284838283848383828483848283838383838384828482848284838283848383828483848184838382848384828482848284838283848383828488
:403580008384818483838284838482838384828383838383522B8061DA155228027452A6137252A22D5228F2755228047453A42C53A03C725228F47AE0000000008384830B
:4035C0008382848384818483838284838482848284828483828384838382848384818483838284838482838384828383838384838382848384818483838284838482838309
:4036000084828383838384828482848383828483838284838482838384828383838384828482848383828483828384838481848384828383838384828482848383828483C7
:403640008283848384818483848283838383838384828482848284838283848384818483848283838383838384828482848284838283848383828483848283838383838388
:4036800084828482848284838283848383828483848184838382848384828482848B838384828482848383828483828384838481848384828383838383838482848383823F
:4036C0008483828384838481848384828383838383838482848284828483828384838481848384828383838383838482848284828483828384838382848384818483838307
:4037000083838482848284828483828384838382848384818483838284838482838384828383838384838382848384818483838284838482838384828383838384828482C7
:403740008483838284838382848384828383848283838383848284828483838284838283848384818483848283838383848284828483838284838283848384818483848286
:403780008383838383838482848383828C8384828383848384818483838284838482838384828383838384828482848384818483838284838482838384828383838384823E
:4037C0008482848383828483828384838482838384828383838384828482848383828483828384838481848384828383838384828482848383828483828384838481848306
:4038000084828383838383838482848284828483828384838481848384828383838383838482848284828483828384838382848384818483838383838482848284828483C5
:4038400082838483838284838481848383828483848283838482848382838483838284838481848383828483848283838482838383838482848284838481848B848284827E
:403880008483848283838383838384828482848284838283848383828483848283838383838384828482848284838283848383828483848184838382848384828482848245
:4038C0008483828384838382848384818483838284838482838384828383838384838382848384818483838284838482838384828383838384828482848383828483828306
:4039000084838482838384828383838384828482848383828483828384838481848384828383838384828482848383828483828384838481848384828383838383838482C4
:403940008482848284838283848384818483848283838383838384828482848284838283848383828483848283838C8285828383848283838383848284828483838284837B
:403980008283848384818483848283838383848284828483838284838283848384818483848283838383838384828483838284838283848384818483848283838383838345
:4039C0008482848284828483828384838481848384828383838383838482848284828483828384838382848384818483838284838482848284828483828384838382848304
:403A000084818483838284838482838384828383838384838382848384818483838284838482838384828383838384828482848383828483838284838482838384828383C4
:403A4000838384828482848383828483828384838481848384828383838B85828482848284838283848383828483848184838382848384828383848284838283848383827B
:403A80008483848184838382848384828383848283838383848284828483848184838382848384828383848283838383848284828483838284838283848384828383848243
:403AC0008383838384828482848383828483828384838481848384828383838383838482848383828483828384838481848384828383838383838482848284828483828304
:403B000084838481848384828383838383838482848284828483828384838382848384818483838383838482848284828483828384838382848384818483838284838482C2
:403B400083838482848382838C8384838382848382838483848184838482838383838383848284828482848382838483848184838482838383838383848284828482848379
:403B80008283848383828483848283838383838384828482848284838283848383828483848184838382848384828482848284838283848383828483848184838382848343
:403BC0008482838384828383838384828482848384818483838284838482838384828383838384828482848383828483828384838482838384828383838384828482848302
:403C00008382848382838483848184838482838383838482848284838382848382838483848184838482838383838383848284828482848382838B848483848184838382BA
:403C40008483848283838482838383838482848284838382848383828483848283838482838383838482848284838382848382838483848184838482838383838482848281
:403C80008483838284838283848384818483848283838383838384828483838284838283848384818483848283838383838384828482848284838283848383828483848241
:403CC00083838383838384828482848281522B806124015228027452A6137252A22D5228F2755228047453A42C53A03C725228F47AE0000000008384838382848384818490
:403D000083838284838482848284828483828384838382848384818483838284838482838384828383838384838382848384818483838284838482838384828383838384C0
:403D40008284828483838284838382848384828383848283838383848284828483838284838283848384818483848283838383848284828483838284838283848384818481
:403D80008384828383838383838482848284828483828384838481848384828383838383838482848284828483828384838382848384828383838383838482848284828440
:403DC000838283848383828483848184838382848384828482848A8483848184838483838284838283848384818483848283838383838384828483838284838283848384F7
:403E000081848384828383838383838482848284828483828384838481848384828383838383838482848284828483828384838382848384818483838383838482848284C0
:403E40008284838283848383828483848184838382848384828383848283838383848383828483848184838382848384828383848283838383848284828483838284838380
:403E8000828483848283838482838383838482848284838382848382838483848184838482838383838482848284838382848382838483848184838482838383838383843F
:403EC00082848383828C83848283838483848184838382848384828383848283838383848284828483848184838382848384828383848283838383848284828483838284F7
:403F000083828384838482838384828383838384828482848383828483828384838481848384828383838384828482848383828483828384838481848384828383838383BF
:403F4000838482848284828483828384838481848384828383838383838482848284828483828384838382848384818483838383838482848284828483828384838382847E
:403F8000838481848383828483848283838482848382838483838284838481848383828483848283838482838383838482848284838481848B848284828483848283838336
:403FC00083838384828482848284838283848383828483848283838383838384828482848284838283848383828483848184838382848384828482848284838283848383FE
:4040000082848384818483838284838482838384828383838384838382848384818483838284838482838384828383838384828482848383828483828384838482838384BD
:40404000828383838384828482848383828483828384838481848384828383838384828482848383828483828384838481848384828383838383838482848284828483827F
:4040800083848384818483848283838383838384828482848284838283848383828483848283838C8285828383848283838383848284828483838284838283848384818434
:4040C00083848283838383848284828483838284838283848384818483848283838383838384828483838284838283848384818483848283838383838384828482848284FD
:4041000083828384838481848384828383838383838482848284828483828384838382848384818483838284838482848284828483828384838382848384818483838284BD
:40414000838482838384828383838384838382848384818483838284838482838384828383838384828482848383828483838284838482838384828383838384828482847C
:404180008383828483828384838481848384828383838B85828482848284838283848383828483848184838382848384828383848284838283848383828483848184838334
:4041C00082848384828383848283838383848284828483848184838382848384828383848283838383848284828483838284838283848384828383848283838383848284FC
:4042000082848383828483828384838481848384828383838383838482848383828483828384838481848384828383838383838482848284828483828384838481848384BB
:40424000828383838383838482848284828483828384838382848384818483838383838482848284828483828384838382848384818483838284838482838384828483827D
:40428000838C838483838284838283848384818483848283838383838384828482848284838283848384818483848283838383838384828482848284838283848383828432
:4042C00083848283838383838384828482848284838283848383828483848184838382848384828482848284838283848383828483848184838382848384828383848283FC
:4043000083838384828482848384818483838284838482838384828383838384828482848383828483828384838482838384828383838384828482848383828483828384BA
:4043400083848184838482838383838482848284838382848382838483848184838482838383838383848284828482848382838B8484838481848383828483848283838471
:40438000828383838384828482848383828483838284838482838384828383838384828482848383828483828384838481848384828383838384828482848383828483823C
:4043C00083848384818483848283838383838384828483838284838283848384818483848283838383838384828482848284838283848383828483848283838383838384F9
:40440000828482848281522B806126015228027552A61352A22D725228F2745228047253A42C7253A0C0725228F47A8050B872838283828382848084828383828284828341
:404440008284808482838382828482838283818482838382828482838184818482828383828482828284818482828383828482828284818481838383828481838284818398
:404480008283838382838283828480848283838382838283828480848283838282848283828381848283838282848283818481848282838382848282828481848282838357
:4044C0008284828282848184818383838284818382848183828383838283828382848084828383838283828382848084828383828284828382838184828383828284828317
:404500008184818482828383828482838184818482828383828482828284818481838383828481838284818382838383828382838284818382838B838284828282848284CD
:404540008084828383828284828382838184828383828284828381848184828383828284828381848184828283838284828282848184818383838284818382848183828398
:404580008383828481838284818382838383828382838284808482838382828482838283818482838382828482838283818482838382828482838184818482828383828455
:4045C0008282828481848183838382848183828481838283838382848183828481838283838382838283828480848283838282848283828381848283838282848283828317
:4046000081848283838282848283818481848282838382848282828481848183838382848183828481848183838382848183828481838283838382838283828480848283D6
:40464000838282848283828381848283838282848885828482828284828382838283828481848184828283838284828282848184818383838284828282848184818383838C
:404680008284818382848183828383838283828382848084828383828284828382848084828383828284828382838184828383828284828381848184828283838284828256
:4046C0008284818482828383828482828284818481838383828481838284818382838383828382838284808482838382828482838284808482838382828482838283818415
:4047000082838382828482838184818482828383828482828284818482828383828482828284818481838383828481838284818382838383828382838284808482838383D4
:40474000828382838284808482838382828482838283818482838382828482838184818482828383828482838184818C82848282828482838283828481848183838382848B
:404780008183828481838283838382838283828481838283838382838283828480848283838282848283828381848283838282848283818481848283838282848283818455
:4047C0008184828283838284828282848184818383838284818382848183828383838284818382848183828383838283828382848084828383828284828382838184828315
:4048000083828284828381848184828383828284828381848184828283838284828282848184818383838284818382848183828383838284818382848183828383838283D3
:404840008283828480848283838282848283828381848283838282848283828381848283838282848283818481848282838382848282828481848183838382848183828493
:4048800081848183838B828482838184828481838283838382838283828480848283838282848283828381848283838282848283828381848283838282848283818481844B
:4048C0008282838382848282828481848183838382848282828481848183838382848183828481838283838382838283828480848283838282848283828480848283838214
:4049000082848283828381848283838282848283818481848282838382848282828481848183838382848282828481848183838382848183828481838283838382838283D2
:404940008284808482838382828482838284808482838382828482838283818482838382828482838184818482828383828482828284818482828383828482828284818492
:40498000818383838284818382848183828383838283828382848084828383838283828B82848284808482838382828482838283818482838382828482838184818482824B
:4049C0008383828482838184818482828383828482828284818481838383828481838284818382838383828382838284818382838383828382838284808482838382828411
:404A000082838283818482838382828482838184818482838382828482838184818482828383828482828284818481838383828481838284818382838383828382838284D1
:404A40008183828383838283828382848084828383828284828382838184828383828284828381848184828383828284828381848184828283838284828282848184818393
:404A80008383828481838284818382838383828481838284818382838383828382838284808482838382828482838283818482838382828482838283818B83848283838248
:404AC0008284828381848184828283838284828282848184818383838284818382848184818383838284818382848183828383838283828382848084828383828284828311
:404B000082838184828383828284828382838184828383828284828381848184828283838284828282848184818383838284828282848184818383838284818382848183D1
:404B40008283838382838283828480848283838282848283828381848283838282848283828381848283838282848283818481848282838382848282828481848183838390
:404B80008284828282848184818383838284818382848183828383838283828382848084828383828284828382848084828383828284828382838184828383828284828350
:404BC00081848184828283838284828282848184828283838B8382848282828481848183838382848183828481838283838382838283828480848283838382838283828407
:404C000080848283838282848283828381848283838282848283818481848282838382848283818481848282838382848282828481848183838382848183828481838283D1
:404C4000838382838283828481838283838382838283828480848283838282848283828381848283838282848283818481848282838382848283818481848282838382848E
:404C80008282828481848183838382848183828481838283838382838283828481838283838382838283828480848283838282848283828381848283838282848283818450
:404CC0008184828383828284828381848184828283838284828282848184818383838284818382848183828383838284818389858284818252280472828153A42C53A0C05E
:404D0000725228F474818481848282838382848282828481848183838382848183828481848183838382848183828481838283838382838283828480848283838282848208
:404D4000838283818482838382828482838283818482838382828482838184818482828383828482828284818481838383828482828284818481838383828481838284818F
:404D8000838283838382838283828480848283838282848283828381848283838282848283828381848283838282848283818481848282838382848282828481848183834E
:404DC000838284828282848184818383838284818382848183828383838283828382848084828383828284828382848084828383828284828382838184828383828284820E
:404E00008381848184828283838284828282848184828283838B838284828282848184818383838284818382848183828383838283828382848084828383838283828382C5
:404E4000848084828383828284828382838184828383828284828381848184828283838284828381848184828283838284828282848184818383838284818382848183828E
:404E8000838383828382838284818382838383828382838284808482838382828482838283818482838382828482838184818482828383828482838184818482828383824D
:404EC000848282828481848183838382848183828481838283838382838283828481838283838382838283828480848283838282848283828381848283838282848283810E
:404F000084818482838382828482838184818482828383828482828284818481838383828481838284818382838383828481838985828481838283838382838283828480C4
:404F4000848283838282848283828381848283838282848283828381848283838282848283818481848282838382848282828481848183838382848183828481848183838B
:404F8000838284818382848183828383838283828382848084828383828284828382838184828383828284828382838184828383828284828381848184828283838284824C
:404FC000828284818481838383828481838284818481838383828481838284818382838383828382838284808482838382828482838283818482838382828482838283810E
:4050000084828383828284828381848184828283838284828282848184818383838284828282848184818383838284818382848183828383838283828382848084828383CA
:40504000828284828382848084828C828383828284828382838184828383828284828381848184828283838284828282848184828283838284828282848184818383838283
:40508000848183828481838283838382838283828480848283838382838283828480848283838282848283828381848283838282848283818481848282838382848283814C
:4050C000848184828283838284828282848184818383838284818382848183828383838283828382848084828383838283828382848084828383828284828382838184820B
:4051000083838282848283818481848282838382848283818481848282838382848282828481848183838382848183828481838283838382838283828481838283838382CA
:405140008382838284808482838382828482838283818482838382828482838184818482838382828C82848283818481848282838382848282828481848183838382848182
:40518000838284818382838383828481838284818382838383828382838284808482838382828482838283818482838382828482838283818482838382828482838184814B
:4051C0008482828383828482828284818481838383828481838284818481838383828481838284818382838383828382838284808482838382828482838283818482838309
:4052000082828482838283818482838382828482838184818482828383828482828284818481838383828481838284818481838383828481838284818382838383828382CA
:4052400083828480848283838282848283828381848283838282848283828381848283838282848283818481848282838382848282828481848183838382848282828B8381
:405280008481848183838382848183828481838283838382838283828480848283838282848283828480848283838282848283828381848283838282848283818481848249
:4052C000828383828482828284818482828383828482828284818481838383828481838284818382838383828382838284808482838383828382838284808482838382820A
:4053000084828382838184828383828284828381848184828283838284828282848184828283838284828282848184818383838284818382848183828383838283828382C8
:405340008480848283838382838283828480848283838282848283828381848283838282848283818481848282838382848283818481848282838382848282828481848189
:40538000838383828481838284818382838383828382838284818382838B83828482828284828480848283838282848283828381848283838282848283818481848283833E
:4053C0008282848283818481848282838382848282828481848183838382848181522B80611C055228027452A6137252A22D5228F2755228047453A43253A0D3725228F436
:405400007CE000000000838482838383838383848284828482848382838483848184838482838383838383848284828482848382838483838284838482838383838383845F
:405440008284828482848382838483838284838481848383828483848284828482848382838483838284838481848383828483848283838482838383838482848284838469
:40548000818483838284838482838384828383838384828482848383828483828384838482838384828383838384828482848383828483828384838481848384828383832B
:4054C000838482848284838382848382838483848184838482838383838383848284828482848382838B8484838481848383828483848283838482838383838482848284E0
:4055000083838284838382848384828383848283838383848284828483838284838283848384818483848283838383848284828483838284838283848384818483848283A9
:405540008383838383848284838382848382838483848184838482838383838383848284828482848382838483838284838482838383838383848284828482848382838468
:405580008383828483848184838382848384828482848284838283848383828483848184838382848384828383848283838383848383828483848184838382848384828329
:4055C0008384828383838384828482848383828483838284838C838482838383838383848284828482848382838483838284838481848383838383848284828482848382E0
:4056000083848383828483848184838382848384828383848284838283848383828483848184838382848384828383848283838383848284828483848184838382848384A6
:405640008283838482838383838482848284838382848382838483848184838482838383838482848284838382848382838483848184838482838383838383848284838368
:405680008284838283848384818483848283838383838384828482848284838283848384818483848283838383838384828482848284838283848383828483848184838328
:4056C0008383838B848482838383838482848284838382848382838483848184838482838383838482848284838382848382838483848184838482838383838383848284DE
:4057000082848284838283848384818483848283838383838384828482848284838283848383828483848283838383838384828482848284838283848383828483848184A7
:405740008383828483848283838482848382838483838284838481848383828483848283838482838383838482848284838481848383828483848283838482838383838466
:40578000828482848383828483828384838482838384828383838384828482848383828483828384838481848384828383838384828489868284838283848383828483841D
:4057C00081848383828483848283838482838383838483838284838481848383828483848283838482838383838482848284838382848383828483848283838482838383E8
:4058000083848284828483838284838283848384818483848283838383848284828483838284838283848384818483848283838383838384828482848284838283848384A4
:405840008184838482838383838383848284828482848382838483838284838482838383838383848284828482848382838483838284838481848383828483848284828466
:405880008284838283848383828483848184838382848384828383848283838383848383828D8284838382848384828482848382838483838284838481848383828483841C
:4058C00082848284828483828384838382848384818483838284838482838384828383838384838382848384818483838284838482838384828383838384828482848383E6
:4059000082848383828483848283838482838383838482848284838382848382838483848184838482838383838482848284838382848382838483848184838482838383A5
:405940008383838482848284828483828384838481848384828383838383838482848284828483828384838382848384828383838383838482848284828483828384838364
:40598000828483848184838382848384828482848B83838482848284838382848382838483848184838482838383838383848284838382848382838483848184838482831C
:4059C00083838383838482848284828483828384838481848384828383838383838482848284828483828384838382848384818483838383838482848284828483828384E4
:405A000083838284838481848383828483848283838482838383838483838284838481848383828483848283838482838383838482848284838382848383828483848283A4
:405A40008384828383838384828482848383828483828384838481848384828383838384828482848383828483828384838481848384828383838383838482848383828C5B
:405A80008384828383848384818483838284838482838384828383838384828482848384818483838284838482838384828383838384828482848383828483828384838422
:405AC00082838384828383838384828482848383828483828384838481848384828383838384828482848383828483828384838481848384828383838383838482848284E4
:405B000082848382838483848184838482838383838383848282522B806121015228027452A6137252A22D5228F2755228047453A43253A0D3725228F47AE0000000008397
:405B40008483838284838481848383828483848284828482848382838483838284838481848383828483848283838482838383838483838284838481848383828483848262
:405B80008383848283838383848284828483838284838382848384828383848283838383848284828483838284838283848384818483848283838383848284828483838223
:405BC00084838283848384818483848283838383838384828482848284838283848384818483848283838383838384828482848284838283848383828483848283838383E2
:405C0000838384828482848284838283848383828483848184838382848384828482848B838384828482848383828483828384838481848384828383838383838482848398
:405C40008382848382838483848184838482838383838383848284828482848382838483848184838482838383838383848284828482848382838483838284838481848362
:405C80008383838384828482848284838283848383828483848184838382848384828383848283838383848383828483848184838382848384828383848283838383848222
:405CC00084828483838284838382848384828383848283838383848284828483838284838283848384818483848283838383848284828483838284838283848384818483E1
:405D000084828383838383838482848383828C8384828383848384818483838284838482838384828383838384828482848384818483838284838482838384828383838398
:405D40008482848284838382848382838483848283838482838383838482848284838382848382838483848184838482838383838482848284838382848382838483848161
:405D80008483848283838383838384828482848284838283848384818483848283838383838384828482848284838283848383828483848184838383838384828482848220
:405DC000848382838483838284838481848383828483848283838482848382838483838284838481848383828483848283838482838383838482848284838481848B8482D8
:405E0000848284838482838383838383848284828482848382838483838284838482838383838383848284828482848382838483838284838481848383828483848284829F
:405E4000848284838283848383828483848184838382848384828383848283838383848383828483848184838382848384828383848283838383848284828483838284835F
:405E80008283848384828383848283838383848284828483838284838283848384818483848283838383848284828483838284838283848384818483848283838383838320
:405EC00084828482848284838283848384818483848283838383838384828482848284838283848383828483848283838C82858283838482838383838482848284838382D7
:405F0000848382838483848184838482838383838482848284838382848382838483848184838482838383838383848284838382848382838483848184838482838383839E
:405F4000838384828482848284838283848384818483848283838383838384828482848284838283848383828483848184838382848384828482848284838283848383825F
:405F8000848384818483838284838482838384828383838384838382848384818483838284838482838384828383838384828482848383828483838284838482838384821E
:405FC0008383838384828482848383828483828384838481848384828383838B858284828482848382838483838284838481848383828483848283838482848382838483D5
:40600000838284838481848383828483848283838482838383838482848284838481848383828483848283838482838383838482848284838382848382838483848283839E
:40604000848283838383848284828483838284838283848384818483848283838383838384828483838284838283848384818483848283838383838384828482848284835D
:40608000828384838481848384828383838383838482848284828483828384838382848384818483838383838482848284828483828384838382848384818483838284831E
:4060C000848283838482848382838C8384838382848382838483848184838482838383838383848284828482848382838483848184838482838383838383848284828482D5
:40610000848382838483838284838482838383838383848284828482848382838483838284838481848383828483848284828482848382838483838284838481848383829D
:40614000848384828383848283838383848284828483848184838382848384828383848283838383848284828483838284838283848384828383848283838383848284825C
:4061800084838382848382838483848184838482838383838482848284838382848382838483848184838482838383838383848284828482848382838B8484838481848313
:4061C00083828483848283838482838383838482848284838382848383828483848283838482838383838482848284838382848382838483848184838482838383838482DD
:40620000848284838382848382838483848184838482838383838383848284838382848382838483848184838482838383838383848284828482848382838483838284839B
:40624000848283838383838384828482848281522B806126015228027552A61352A22D725228F2745228047253A4337253A02D725228F47DE0000000008382838482848202
:40628000848384828383838384828482848383828483828384838481848384828383838383838482848284828483828384838481848384828383838383838482848284821B
:4062C00084838283848383828483848283838383838384828482848284838283848383828483848184838382848384828383848284838283848383828483848184838382DC
:40630000848384828383848283838383848284828483848184838382848384828383848283838383848284828483838284838283848384828383848283838383848284829A
:406340008483838284838283848384818483848283838383848284898682848382838483838284838481848383828483848283838482838383838483838284838481848351
:40638000838284838482838384828383838384828482848383828483838284838482838384828383838384828482848383828483828384838481848384828383838384821B
:4063C00084828483838284838283848384818483848283838383838384828482848284838283848384818483848283838383838384828482848284838283848383828483DA
:40640000848283838383838384828482848284838283848383828483848184838382848384828482848284838283848383828483848184838382848384828383848283839A
:406440008383848383828D82848383828483848284828483828384838382848384818483838284838482848284828483828384838382848384818483838284838482838350
:406480008482838383838483838284838481848383828483848283838482838383838482848284838382848383828483848283838482838383838482848284838382848319
:4064C00082838483848184838482838383838482848284838382848382838483848184838482838383838383848284828482848382838483848184838482838383838383DA
:4065000084828482848284838283848383828483848283838383838384828482848284838283848383828483848184838382848384828482848B8383848284828483838290
:406540008483828384838481848384828383838383838482848383828483828384838481848384828383838383838482848284828483828384838481848384828383838358
:406580008383848284828482848382838483838284838481848383838383848284828482848382838483838284838481848383828483848283838482838383838483838219
:4065C00084838481848383828483848283838482838383838482848284838382848383828483848283838482838383838482848284838382848382838483848184838482D8
:406600008383838384828482848383828483828384838481848384828383838383838482848383828C8384828383848384818483838284838482838384828383838384828F
:406640008482848384818483838284838482838384828383838384828482848383828483828384838482838384828383838384828482848383828483828384838481848357
:406680008482838383838482848284838382848382838483848184838482838383838383848284828482848382838483848184838482838383838383848284828482848317
:4066C00082838483838284838481848383838383848284828482848382838483838284838481848383828483848283838482848382838483838284838481848383828483D8
:40670000848283838482838383838482848284838481848B84828482848384828383838383838482848284828483828384838382848384828383838383838482848284828E
:406740008483828384838382848384818483838284838482848284828483828384838382848384818483838284838482838384828383838384838382848384818483838257
:406780008483848283838482838383838482848284838382848382838483848283838482838383838482848284838382848382838483848184838482838383838482848216
:4067C00084838382848382838483848184838482838383838383848284828482848382838483848184838482838383838383848284828482848382838483838284838482D6
:4068000083838C828582838384828383838384828482848383828483828384838481848384828383838384828482848383828483828384838481848384828383838383838D
:406840008482848383828483828384838481848384828383838383838482848284828483828384838481848384828383838383838482848284828483828384838382848355
:406880008481848383828483848284828482848382838483838284838481848383828483848283838482838383838483838284838481848383828483848283838482838316
:4068C000838384828482848383828483838284838482838384828383838384828482848383828483828384838481848384828383838B8582848284828483828384838382CD
:406900008483848184838382848384828383848284838283848383828483848184838382848384828383848283838383848284828483848184838382848384828383848294
:406940008383838384828482848383828483828384838482838384828383838384828482848383828483828384838481848384828383838383838482848383828483828355
:40698000848384818483848280522B806121015228047553A43353A02D725228F461ED165228027452A6137252A22D5228F2755228047453A43253A0D3725228F47AE000B3
:4069C000000000838483838284838481848383828483848284828482848382838483838284838481848383828483848283838482838383838483838284838481848383825E
:406A00008483848283838482838383838482848284838382848383828483848283838482838383838482848284838382848382838483848184838482838383838482848293
:406A40008483838284838283848384818483848283838383838384828482848284838283848384818483848283838383838384828482848284838283848383828483848253
:406A800083838383838384828482848284838283848383828483848184838382848384828482848B838384828482848383828483828384838481848384828383838383830B
:406AC00084828483838284838283848384818483848283838383838384828482848284838283848384818483848283838383838384828482848284838283848383828483D3
:406B00008481848383838383848284828482848382838483838284838481848383828483848283838482838383838483838284838481848383828483848283838482838393
:406B40008383848284828483838284838382848384828383848283838383848284828483838284838283848384818483848283838383848284828483838284838283848352
:406B80008481848384828383838383838482848383828C8384828383848384818483838284838482838384828383838384828482848384818483838284838482838384820A
:406BC00083838383848284828483838284838283848384828383848283838383848284828483838284838283848384818483848283838383848284828483838284838283D3
:406C00008483848184838482838383838383848284828482848382838483848184838482838383838383848284828482848382838483838284838481848383838383848291
:406C40008482848284838283848383828483848184838382848384828383848284838283848383828483848184838382848384828383848283838383848284828483848152
:406C8000848B848284828483848283838383838384828482848284838283848383828483848283838383838384828482848284838283848383828483848184838382848308
:406CC00084828482848284838283848383828483848184838382848384828383848283838383848383828483848184838382848384828383848283838383848284828483D1
:406D00008382848382838483848283838482838383838482848284838382848382838483848184838482838383838482848284838382848382838483848184838482838391
:406D40008383838384828482848284838283848384818483848283838383838384828482848284838283848383828483848283838C82858283838482838383838482848248
:406D80008483838284838283848384818483848283838383848284828483838284838283848384818483848283838383838384828483838284838283848384818483848210
:406DC00083838383838384828482848284838283848384818483848283838383838384828482848284838283848383828483848184838382848384828482848284838283D1
:406E0000848383828483848184838382848384828383848283838383848383828483848184838382848384828383848283838383848284828483838284838382848384828F
:406E4000838384828383838384828482848383828483828384838481848384828383838B858284828482848382838483838284838481848383828483848283838482848346
:406E80008283848383828483848184838382848384828383848283838383848284828483848184838382848384828383848283838383848284828483838284838283848310
:406EC00084828383848283838383848284828483838284838283848384818483848283838383838384828483838284838283848384818483848283838383838384828482D0
:406F0000848284838283848384818483848283838383838384828482848284838283848383828483848184838383838384828482848284838283848383828483848184838E
:406F400083828483848283838482848382838C8384838382848382838483848184838482838383838383848284828482848382838483848184838482838383838383848246
:406F8000848284828483828384838382848384828383838383838482848284828483828384838382848384818483838284838482848284828483828384838382848384810F
:406FC00084838382848384828383848283838383848284828483848184838382848384828383848283838383848284828483838284838283848384828383848283838383CE
:407000008482848284838382848382838483848184838482838383838482848284838382848382838483848184838482838383838383848284828482848382838B84848384
:40704000848184838382848384828383848283838383848284828483838284838382848384828383848283838383848284828483838284838283848384818483848283834E
:40708000838384828482848383828483828384838481848384828383838383838482848383828483828384838481848384828383838383838482848284828483828384830D
:4070C00083828483848283838383838384828482848281522B806124015228027452A6137252A22D5228F2755228047453A43253A0D3725228F47AE00000000083848383BF
:40710000828483848184838382848384828482848284838283848383828483848184838382848384828383848283838383848383828483848184838382848384828383848C
:40714000828383838384828482848383828483838284838482838384828383838384828482848383828483828384838481848384828383838384828482848383828483824E
:40718000838483848184838482838383838383848284828482848382838483848184838482838383838383848284828482848382838483838284838482838383838383840B
:4071C000828482848284838283848383828483848184838382848384828482848A8483848184838483838284838283848384818483848283838383838384828483838284C4
:40720000838283848384818483848283838383838384828482848284838283848384818483848283838383838384828482848284838283848383828483848184838383838C
