:4000000000800020110000003D0400003D040000034A08B51268034B1A6000F017FA00BFFA460040BC76004010B5054C237833B9044B13B10448AFF300800123237010BDED
:400040007881FF1F00000000C4260000084B10B51BB108490848AFF300800848036803B910BD074B002BFBD0BDE81040184700BF000000007C81FF1FC4260000C880FF1FCE
:400080000000000008B50121002000F0FDFA00F099FB00B908BD00F08FFB0028FAD0BDE8084000F057BD00BF08B500F08BFB00B908BD00F081FB0028FAD0BDE8084000F050
:4000C00049BD00BF08B500F077FB00B908BD00F0C9FD0028FAD0024B01221A7008BD00BF9481FF1FFFF7CEBF014B01221A7070479881FF1F08B5012002F048FA9F2002F018
:400100003FFA002002F042FA0A2002F04DF9012002F03CFA012002F039FABF2002F030FA002002F033FA0A2002F03EF9012002F02DFA012002F02AFADF2002F021FA00201D
:4001400002F024FA0A2002F02FF9012002F01EFA012002F01BFAFF2002F012FA002002F015FA0A2002F020F9012002F00FFA012002F0FAF9012002F0EBF9012002F0DCF964
:40018000012002F00FFA002002F0CAF9002002F0BBF9FF2002F0F4F9002002F003FA0A2002F0DEF8012002F0FDF9BDE808400A2002F0D6B810B5FFF79DFF62B6FFF792FFF3
:4001C0000A4802F0FBF900F057FD0028FBD0084C084800F0F9FC084A08482378106003B9FEE700F053FD00232370FEE7E90000009481FF1F08270000D480FF1FAC81FF1FD6
:40020000F8B572B6714E724A35461378002443F00403137004EB4403AA8856F813000134002102F047FA062C05F10605F2D1694D694F002655F8043F23F0FF0413F0FF0300
:4002400013D003F1FF3E06F1105303F11B005FFA8EFE70441A3340005B001A785978023383421155F9D101367644BD42E2D15B4A5B48137840F2124E43F0020313700178B7
:40028000584E002241F00201017040F61737326041F25126544D554C2A60554B2260A4F514540E3C534A03CB2060616003CBEE341060516093E8070003C422804E4AA5F5FE
:4002C00013550C3303CB263D1060516003CBA2F55F622860696003CB44F8C60C44F8C21C1378464943F008031370454861230B70444C0C23038018232370A2F29E220524A4
:400300001480A1F27A71404C0B700625A0F808E0937152203D4A257081F87A0111783C4D3C483D4AC9B2297024F8DE7C068015784FF4F0701C4605F00105164602F054F91E
:4003400001E0032D0DD033784FF4F07003F0010343EA450502F048F9013C05F00305F0D1FEE72E4A2E492F482F4E304D4FF480770724178000231470482702240B70377006
:4003800013702B70047091F89C33C12443F00703274A81F89C3380F8FF47137800F5C350DBB201F5C3510D30093105F5C35503F00707204A1B09204C07700D350B7044266E
:4003C0000FCA2E7007C42380F8BD00BF0C270000E8460040FCFFFF4730000048035001401350014000760040087600401076004088000048C251004012510040004800408A
:400400008040004082400040004300400F010049A146004020420040254200400440004006400040014000400840004009400040CF010049A0430040B043004008B502F0B4
:400440000DF903680C2B00D0FEE7FEE780B5134FF7B1134E002556F80C0C56F8084C56F8102C03463CB1043A52F8041F43F8041B191AA142F8D156F8040C1A4620B142F800
:40048000045BD11A8842FAD1013F06F11006E2D102F0EAF8FFF78EFEFEE700BF010000003829000008B5114A114B12491A600B68114A43F4007311480B600023032B94BFD8
:4004C00050F823100E490133302B42F8041FF5D10C4B0D4918780D4A0D4B08701A60FFF78FFEBDE8084001F057BE00BF0004FA050CED00E014ED00E0FC7FFF1F000000000F
:400500003D040000BC760040C080FF1F0080FF1F08ED00E02DE9F04102F06EF8494A4A491378804643F0010313700B78474C48480127022602F5E35243F001030B700B3256
:40054000277006701378A4F5E85403F07F03093C1370002001F028FF23783E4A03F0F90323701378384603F0DF031370237800253B43237001F018FF282001F015FF364BEC
:4005800030461A7802F07F021A701A7802F0BF021A7023783343237001F006FF23782F4A43F0040323702E492E4B15704FF0FF320D7040465A601A601A7202F021F8072111
:4005C000172001F007FF2849172001F0F5FE0721182001F0FFFE2549182001F0EDFE0721152001F0F7FE2249152001F0E5FE2846072101F0EFFE28461E4901F0DDFE384627
:40060000072101F0E7FE38461B4901F0D5FE3046072101F0DFFE3046184901F0CDFE2946162001F0D7FE1649162001F0C5FE07210C2001F0CFFEBDE8F04112490C2001F003
:40064000BBBE00BFA5430040B54300409D6000400960004012600040F851004084600040856000403C82FF1FF5130000110E0000F11300004D1300007D130000B5130000B9
:40068000F913000081140000F8B5264D06462B780C461BB9FFF73EFF01232B70224A23481670234B00220270224D2349234F244E24481A70244B2A704FF4000E0A70234D1A
:4006C0003A70234932704FF0807702704FF4001601200222C3F800E01F601E600427186007261A604FF4800020221F602E7018600A708CB1174A137843F001031370164BC2
:4007000016498022032008701A70012001F06CFF134B04221A70F8BD0E4A137803F0FE031370ECE7A581FF1F6182FF1F6482FF1F8082FF1F8382FF1F7882FF1F8282FF1F60
:400740008582FF1F6082FF1F00E100E09E6000409C60004009600040086000402860004012600040F0B40B480B4A00230B4C0C4903700C4F13700C4E0C4D0D480D4A2370F0
:400780000B70032480213B7033702B7004701170F0BC70476482FF1F8082FF1F8382FF1F7882FF1F8282FF1F8582FF1F6082FF1F2860004008600040014B1878704700BF4D
:4007C0008382FF1F044B1A7802F0FF001AB118780022C0B21A7070478082FF1F034B00EB400003EB80035878704700BF8882FF1F2DE9F84F431E072B36D815464600494F25
:40080000321807EB8202D38804469BB2C3F500739D4288462AD8DFF818913319484607EB8303D9784FEA041AEAB241EA1521D144DFF800B10AF8001089F801201BF804202D
:40084000FF2A44D0331907EB830300225A70B8F1000F00D07DB9344407EB84077B79DBB289F80230BDE8F88FBDE8F88FD588C5F50075ADB2CFE72C4F2C4E385D01F0C2FC72
:4008800011232946FE221BF8040001F043FD0AF5C04278321FFA88F11BF8040001F052FD1BF80410385D01F0E9FC385D012101F08BFC1AF8063043F002030AF806301AF80E
:4008C000063003F0FD030AF80630BDE8F88F1B791B0647BF4FEA18424FF480434FEA18434FF48042022C15D0032C0CD0012C05D10021084601F0EAFD0B4B587001F0EEFC1D
:400900000BF804009EE70021084601F09FFD064BD870F3E70021084601F0B8FD024B9870ECE700BF8882FF1F3082FF1F70600040FC5F00403C82FF1F2DE9F8430F46002972
:4009400048D0431E072B044640D84448154601462601335C31444A7803F00F0342EA0323023B9BB29D4239D8DFF8FC8018F80430FF2B3CD0DFF8F49019F8040001F042FC12
:4009800012232946FE2218F8040001F0C3FC06F5C041BAB2783118F8040001F0D3FC304F18F8041019F8040001F068FC19F80400012101F009FCF35D284643F00203F35552
:4009C000F35D03F0FD03F355BDE8F88300252846BDE8F8830D462846BDE8F883355C4B7805F00F0543EA0525023DADB2BCE71D4B04EB440203EB82031B791B0647BF3A0CB2
:400A00004FF480433B0C4FF48042022C0AD0032C1AD0012C0FD0DFF8549001F05FFC08F80400A9E70021084601F030FDDFF83C9089F80200F1E70021084601F047FDDFF896
:400A40002C9089F80100E8E70021084601F0FEFCDFF8189089F80300DFE700BFFC5F0040706000408882FF1F3C82FF1F3082FF1F431E072B0CD8074B00EB400203EB82039F
:400A800000225A705A79044B0001D2B203449A70704700BF8882FF1FFC5F0040264B27481B790278264902EB420201EB8202927ADBB2934234D0427802EB420201EB82014F
:400AC0008A7A934214BFFF2301231B490A7812F0800F4A7820D1D2B2202A0CD0222A1DD18A781848184920F81320CA5C42F00202CA5400F013BC10B414491548C3EBC302BE
:400B00000A440724104904804260CA5C42F00102CA5410BC00F0D4BB212A03D0002070470023D2E709490A4AC3EBC3030B4407211180536000F0D0BA006000405082FF1F49
:400B40008882FF1F5C82FF1F4882FF1FD880FF1F6C82FF1F10B5174A0023174C1370537020781649C0B2421E072A0B701FD96078C0B2431E072B17D9114B1A7812B1227870
:400B80000D490AB9012010BD0E4A10780028F9D01B78082BF6D80B78082BF3D81078082894BF0020012010BDFFF762FFE4E7FFF75FFFDCE74882FF1F5482FF1FA681FF1FD5
:400BC0004C82FF1F5082FF1F2DE9F843224B234A1B780478D75C8046FFB234B100240134A4B218F80430002BF9D11D4B07EB470503EB85054FF000092B899BB29C4219D931
:400C00002B8908EB09019EB2A41B32463846A4B2FFF7EEFDECB14E441FFA86F96B78002BFCD0002CE8D1384622462146BDE8F843FFF7DEBD224608EB09013846FFF7D8FDD5
:400C40002B899BB2A34201D0BDE8F88326460024E1E73446F4E700BFA681FF1F4C82FF1F8882FF1F024B034A1B78D05CFFF7B6BDA681FF1F5482FF1F024B034A1B78D05C84
:400C8000FFF7ACBDA681FF1F4C82FF1F38B50D4B0D491A780D4B8C5C0146E4B204EB440203EB82031A89204692B2FFF745FE05462046FFF793FD0128FAD02046FFF7D8FED0
:400CC000284638BDA681FF1F5482FF1F8882FF1FC37890F9020003F00303002809DB032B05D00C48C2F34003C15442F0020210467047032B07D0084802F0010342F001023E
:400D0000C154104670470548C2F38003C15442F00402ECE75482FF1F4C82FF1F5082FF1F30B4324A1378DBB2042B2BD0062B1BD0022B01D030BC70472D4B2E4819780388B3
:400D400000240B449BB22C49038014708B6833B18B6801221A708B6802885A808C60274B03221A7030BC7047234B9A68002AF6D0996803201F4A08709968108800224880D1
:400D80009A60ECE71E4B1B481978028801F00F010239C9B20A4492B2174B02801A8892B2B2B109B3174C002000E0E9B15D68225C0139D2B22A705A68C9B201325A601A88E9
:400DC0000130013A92B21A801A8892B2002AECD10D4B0E4A19701378084983F080030B201370087030BC70470021F1E76482FF1F6082FF1F6282FF1F6C82FF1F8182FF1FDC
:400E000029600040006000408482FF1FF682FF1FF8B5994A1378DBB2D80605D5190604D45D0650D49C062CD4F8BD03F00F03012BFAD11378DBB213701378DBB21F0600F195
:400E400013818E4B9A6842B1996802208C4A087099681088002248809A608A4B1B7803F06003202B00F0FA80402B00F0F080002B00F0F780844903230B700B781E0602D566
:400E8000F8BDFFF74DFF7C4A13781B0600F1C3807E497F4B08781B787E4903430B7009788B42C1D178490C460B781078DBB2000605D42378DBB21370137803F00F03087844
:400EC0008342F1D1F8BD74480278D2B2042A00F0AD80062A00F0A080022AD4D1684D6F4C664B26782988314489B22980198889B2002900F0D9805968624D0978C9B2297084
:400F00005968013159601988013989B21980198889B2002900F0AE8059680978C9B269705968013159601988013989B21980198889B2002900F09B805A681278D2B2AA7048
:400F40005A6801325A601A88013A92B21A801A8892B2002A00F0B0805A6811781A46C9B2E9705968013159601988013989B219801B889BB2002B00F0A18053681B78DBB2F6
:400F80002B715368013353601388013B9BB2138013889BB2002B00F0938053681B78DBB26B715368013353601388013B9BB2138013889BB2002B00F0858053681B78DBB233
:400FC000AB715368013353601388013B9BB2138013889BB2002B77D053681B78DBB2EB715368013353601388013B9BB2138013889BB2002B6AD023780823244D22492A7801
:401000000F2782F0800202262A700F700670204A1370237037E7F8BD214B1A7832B11A78204C42F080020021227019700022134B0270996839B19968012411480C709968D4
:40104000008848809A60104903230B701BE701F091F800283FF40EAF0B490EE701F0D4FAF7E700F075FEF4E707490B7005E713462278C2E70123FBE7286000406C82FF1F47
:401080006282FF1F006000408182FF1FF682FF1F8482FF1F296000406482FF1F6082FF1F8282FF1F086000402378082B10D00B4608490A700270AAE70323D9E70423D7E784
:4010C0000523D5E70623D3E70723D1E70823CFE70B4692E78182FF1F714AF0B413889BB2002B00F0B1806F4D6F4C704E02210023297023703380916819B191680B7091685E
:401100004B806B49664FC8798B79118843EA002389B28B42674838BF3B8007783188604B394489B23180128892B2002A00F09F8059685F4A0978C9B21170596801315960EE
:401140001988013989B21980198889B2002900F0978059680978C9B251705968013159601988013989B21980198889B2002900F0898059680978C9B2917059680131596073
:401180001988013989B21980198889B200297BD059680978C9B2D1705968013159601988013989B21980198889B200295CD059680978C9B2117159680131596019880139E0
:4011C00089B21980198889B200295FD059680978C9B251715968013159601988013989B21980198889B2002952D059680978C9B291715968013159601988013989B21980CC
:40120000198889B2002945D059680978C9B2D1715A6801325A601A88013A92B21A801B889BB2002B38D0037808232278224E82F080020F2702212270377029701F4A13704D
:401240000370F0BC01207047164C174D1A48022718491A4A277080260F242E7004700B7013700120F0BC704704230278DDE70378082B13D01049134602220A702A70DDE7B9
:401280000123F2E70223F0E70323EEE70523ECE70623EAE70723E8E70823E6E71346C4E76C82FF1F6482FF1FF682FF1F6282FF1F006000406082FF1F8182FF1F8482FF1FC3
:4012C00070B41049104D1148042680240022104B2E7004700A80996819B199680A7099684A800C4A0A4CD0799279198842EA00238AB2934238BF2380074B0B221A700120FE
:4013000070BC70476282FF1F6482FF1FF682FF1F6C82FF1F006000408182FF1F70B40748074E084C084A0623802500210370337025701170012070BC704700BF6482FF1F11
:401340008182FF1FF682FF1F8482FF1F08490120084A094B0870927C1A7B02F00302824203D0DA7B82F08002DA7301225A7370470B600040FC5F00408882FF1F08B5FEF774
:4013800093FE09490220094A094B087092F822201A7E02F00302012A03D0DA7E82F08002DA7601225A7608BD0B600040FC5F00408882FF1F0B4904200B4A0C4B087092F8C8
:4013C000322093F8242002F00302012A05D093F8272082F0800283F82720012283F82520FEF770BE0B600040FC5F00408882FF1F704700BFFFF7B6B91D4B1B78002B35D0D3
:401400002DE9F041DFF874E003F0FF014FF0000C0123184A1C01CF07224403F1010514D59678507803EB430730400EEB8707C6073B4602D53E7936060CD4860704D51C7942
:40144000240658BF83F801C090704908EBB2E0D1BDE8F08192F80080074E08F0FE0882F800807F792644FCB2B470E6E7704700BF9F60004070600040FC5F00408882FF1F5A
:4014800000F082BE4F4B50491B78504A0978013B02EBC1025268DBB2117C994240F2828002EBC3035B694A491A7A0878DB68C0B2002A00F08680511EC9B202312DE9F047EF
:4014C00003EBC101434D444E083300274FF0010E02E008338B4263D013F8082C8242F8D12A5C13F8074C9442F3D113F8062C13F805CC02F07F024FEA420808EB020906EB05
:401500008904E77013F806AC0CF0030C84F804A013F805AC06F829A033F8049CA4F8089013F9069CB9F1000F3FDBBCF1010F0CBF4FF0050C4FF0090C84F805C06770DFF8C1
:40154000A0C04FEA0219CC4442448CF802E006EB8202B2F80880214CC8F307288CF80080B2F808804C445FFA88F88CF80180B2F806C008335FFA8CFC84F806C0B2F806C0DB
:401580008B42CCF3072C84F807C0B2F806C05FFA8CFC84F804C0D288C2F3072262719BD1BDE8F08700231B7AFFDEBCF1010F0CBF4FF0070C4FF00D0C84F805C084F801E0A0
:4015C000BDE770478382FF1F6182FF1F442700007882FF1FF482FF1F8882FF1F70600040FC5F00402DE9F043044689B04E4E03AD0FCE0FC533682B70002C00F09180222212
:4016000003232270637001A800F0EEFE9DF806109DF804509DF805000DF1200E01F00F089DF80720F04405F00F0700F00F060EEB151515F814CC764418F8145C0EEB1010D5
:401640000EEB11110DF1200877449DF8083017F814EC16F8147C10F8146C11F8140C02F00F0108EB121212F8149C08AA02EB1312414411F8148C03F00F0312F8141C08AA8D
:401680001A44002384F802C02772A6712573A072A17484F804E084F8108084F80E90E3706371E3716372E3726373E3736374E37412F814EC9DF809009DF80A109DF80B2060
:4016C00008AD00F00F0701F00F062F4405EB101005EB11110DF1200C2E4402F00F0565440CEB121216F8146C17F814CC12F8142C10F8147C11F8140C15F8141C84F814E0F9
:401700006375E3756376E3766377E37784F8213084F818C0A7752677A07684F82010A27709B0BDE8F08300BF302700002DE9F04F594D00232B7085B0AB70EB702B81AB724A
:401740006B706B712B73AB73EB73AB82AB756B736B742B76AB76EB762B8485F822306B766B7785F8243085F8263085F82730AB8585F82E3085F8253085F8293085F8303022
:4017800085F8323085F833302B8785F83A3085F8313085F8353085F83C3085F83E3085F83F30A5F8443085F8463085F83D3085F8413085F8483085F84A3085F84B30A5F8F4
:4017C000503085F8523085F8493085F84D3085F8543085F8563085F85730A5F85C3085F85E3085F8553085F8593085F8603085F8623085F86330A5F8683085F86A3085F841
:40180000613085F8653028B12449254A0B7013704B705370234B1B78002B00F05482214B214A1B7821491278013B01EBC2025268DBB2117C994240F2498202EBC303D3F86E
:4018400014A01B4ADAF804309AF808B0DB79012613F0400F1378DAF80C4014BF43F0010303F0FE0313700BF1FF33DBB203933344DB0001935346DFF8249000225FFA86FAB2
:40188000BBF1000F00F03082019906EB46084FEA8808671811E000BF8882FF1FF482FF1F6882FF1F8382FF1F6182FF1F442700008582FF1F0834BC423CD0A17801F07F0EA5
:4018C0007645F7D105EB080CBCF808E0A0881FFA8EFE864538BFACF80800207894F801E019F800008645E5D105EB08000171E17805F8081094F902E0E178BEF1000F01F0A4
:401900000301C0F2E681012914BF0921052141714FF000014170A17901F0F7010229C9D1204651460293FFF7D3F90834BC420246029BC2D1D9680136092E0C469ED1BBF1B0
:40194000000F13D0039801F10802023001EBC00012F8063C12F8081C03F07F0303EB4303083205EB830382429972F1D1B84BB94A1B78B9491278013B01EBC2025268DBB244
:40198000117C994240F2AE8102EBC3035B6923B15A68127903EBC2035B6900226A82AC8AAE4EA4B204F001021444A4B2EC832A8C33601444A4B204F001021444A4B26C8518
:4019C000AA8DA7491444A4B204F001021444A4B2EC862A8F0C20A3189AB202F0010313449AB2A5F84220B5F844301F2413449AB202F0010313449AB2A5F84E20B5F850309F
:401A0000984E13449AB202F0010313449AB2A5F85A20B5F85C3013449BB203F0010213449BB2A5F86630B5F8683008704C706B7C002B00F07781337C13F0800F8A4B06BF75
:401A400008229A7098706A8A854BD2B29A716A8A8649C2F30722DA716A8A0C20D2B21A716A8A1F24C2F307225A7108704C706B7F7C4A002B00F05281137F13F0800F7C4B1F
:401A800006BF08229A709870EA8B784BD2B29A71EA8B7849C2F30722DA71EA8B0C20D2B21A71EA8B1F24C2F307225A7108704C7095F829306B4A002B00F02C8192F8283075
:401AC00013F0800F6C4B06BF08229A7098706A8D684BD2B29A716A8D6849C2F30722DA716A8D0C20D2B21A716A8D1F24C2F307225A7108704C7095F835305A4A002B00F098
:401B0000058192F8343013F0800F5D4B06BF08229A709870EA8E594BD2B29A71EA8E5949C2F30722DA71EA8E0C20D2B21A71EA8E1F24C2F307225A7108704C7095F84130BF
:401B4000484A002B00F0DE8092F8403013F0800F4D4B06BF08229A709870B5F84220494BD2B29A71B5F842204849C2F30722DA71B5F842200C20D2B21A71B5F842201F249E
:401B8000C2F307225A7108704C7095F84D30354A002B00F0B38092F84C3013F0800F3C4B06BF08229A709870B5F84E20374BD2B29A71B5F84E203749C2F30722DA71B5F8B4
:401BC0004E200C20D2B21A71B5F84E201F24C2F307225A7108704C7095F85930214A002B00F0888092F8583013F0800F2A4B06BF08229A709870B5F85A20264BD2B29A711C
:401C0000B5F85A202549C2F30722DA71B5F85A200C20D2B21A71B5F85A201F24C2F307225A7108704C7095F865300E4A002B5DD092F8643013F0800F194B0ABF082298705C
:401C40009A70B5F86620154BD2B29A712AE000BF8382FF1F6182FF1F442700007C82FF1F806000408882FF1F0C600040906000401C600040A06000402C600040B060004088
:401C80003C600040C06000404C600040D06000405C600040E06000406C600040F06000407C600040B5F866202049C2F30722DA71B5F86620FF20D2B21A71B5F86620C2F34A
:401CC00007225A71087005B0BDE8F08F00235B68FFDE012914BF0D21072141714FF00101417018E6002358E6214624E6104B80229A70A6E70F4B80229A707CE70E4B80221D
:401D00009A7051E70D4B80229A7026E70C4B80229A70FFE60B4B80229A70D8E60A4B80229A70B1E6094B80229A708CE60A6000407C6000406C6000405C6000404C600040E4
:401D40003C6000402C6000401C6000400C60004070B5A34AA34C13780021DBB221801906527816D4013A0A2A11D8DFE812F0650010009B001000CC00100010001000D50093
:401D800010002D00964B1A79012A40F27B81002070BD0A2AFBD801A151F822F0192000008F1D00008F1D00008F1D00008F1D00008F1D0000771F00008F1D00004F20000082
:401DC0008F1D0000611F0000854B8748874C1A79874903782478013B01EBC4014968DBB20C7CD2B29C4240F23A8101EBC3035B695B681B79934201D2022AC8D87D497E4DF7
:401E00008B5C774CDBB2AB54A3787C4EDBB28B5423792279DBB2D2B23270EA5CCB5C9A4206D0774B01221A700378002B40F01A81BDE87040FFF772BA03F00303012BA1D025
:401E4000C0F03781022BA2D1654A937803F0FF01002B9CD1137903F07F035A1E072A96D8684A03EB430002EB80029078664C00F0FE009070D17021461B01185D194400F07D
:401E80007F001855507800F0FD035370137913F0800F537840F04C81012B0CBF082309238B70C5E703F00303012B3FF46BAFC0F00E81022B7FF46BAF494A937803F0FF01E4
:401EC000002B7FF464AF137903F07F035A1E072A3FF65DAF4B4A03EB430002EB800290781B0140F001009070D170517841F002015170127912F0800F434A1A4414BF8D2333
:401F00008923937094E7364B404A9B78DBB21370BDE87040FFF702BA314B9B7803F0FF028BB1324B32491878531E01EBC0014968DBB2087C98427FF62AAF01EBC3035B697D
:401F4000002B3FF424AF284B19788A423FF470AF01212B4C08461A702170FFF7E7FB67E701221F4B22801B79224A13446360BDE87040FFF7B1B81A4BDA78012A00F08B800C
:401F8000DA78022A00F0B580DA78032A40F0AD809A78002A00F0D7801D4A117859B11946002301E0107830B1157801338878DBB298422A44F6D80A4B997829B115499B7844
:401FC000097C994200F0BA801378002B3FF4DFAE137823806260BDE87040FFF77DB800BF006000406C82FF1F8382FF1F6182FF1F44270000F482FF1F6882FF1F7882FF1FC3
:402000008082FF1F8882FF1FFC5F00408282FF1FAC2700009028000013F0030325D0022B7FF4B5AE494A23801379494A03F07F0303EB430302EB83039A78464BD2B2002156
:402040001A7059706360BDE87040FFF745B8424B012222806360BDE87040FFF73DB800235B68FFDEFFF70EFAE2E602213B4A21801178384AC9B2117053706260BDE87040FA
:40208000FFF72AB898781B793549DBB2CA5C22EA0002CA54CCE6334A334B1178122203EBC1035B685B6863602280BDE87040FFF713B8264B9B78012B7FF469AE274A1378F4
:4020C00003F0FD031370BDE87040FFF727B91F4B9B78012B7FF45BAE204A137843F002031370BDE87040FFF719B9BDE8704000F08BBA1C499B781C4A0978DBB202EBC10227
:402100005268117C99427FF642AE02EBC3035B69002B3FF43CAE5B6863606368DA7863689B7843EA02232380BDE87040FEF7D4BF012B0CBF0C230D238B7079E60B48FFF70D
:4021400051FA0A4A40E70A4A35E700BF006000408882FF1FA881FF1F8382FF1F8582FF1FF882FF1F6182FF1F44270000FC82FF1FAC270000034B00201A78120648BF5B78AE
:40218000704700BF00600040024B1878C0F38010704700BF8F4500407F200346074910B4074A802408704C70013BDBB202F80839002BF9D1034A137010BC7047F480FF1F5C
:4021C000F87B004000780040172817D869B90C4900010B46425C034402F0DF0242541A78002042F001021A707047054900010B46425C034442F020024254F0E701207047E9
:402200001070004017280BD8064A0301995C002001F0FE019954995C01F0DF0199547047012070471070004017280BD8064A0001835C490003F0F10301F00E0119438154C1
:4022400000207047012070471070004041F6FF73994208BF4FF400519A4208BF4FF40052172808D8C00000F1804303F5EC4399800020DA8070470120704700BF172805D821
:40228000034B00010344597200207047012070471070004070B417289DF80C609DF8105018D8C00001F07F0103F00F0300F1804441EAC21143EA061304F5EC4405F00F05A4
:4022C0000022C9B2DBB221706370A570E270104670BC7047012070BC704700BF10B500F08BF90B4B5A78182A04D8FF2400F088F9204610BD1C78013AE10001F1804101F54E
:40230000F04109785A70197000F07AF9204610BDF480FF1F10F0800F11D130B411F470450AD1C40004F1804404F5F0442180A270E370284630BC7047012030BC70470120E0
:40234000704700BF030608D4C00000F1804303F5F04399800020DA8070470120704700BFB0F5004F70B506461AD904460D4DA4F50044686800F038F9B4F5004FF7D8A6F556
:402380000043013B23F4FF4323F07F03A6F50046F61AA86800FB06F0BDE8704000F024B9004DF6E7FC80FF1F024B1B7800FB03F000F01AB9FC80FF1F054B00F01F001A68CC
:4023C00000F1100352F8230042F82310704700BF08ED00E000F01F0000F16040490100F56440C9B20170704710B4144B144A1B781449DBB203601478023243EA04230360B6
:402400000C78114943EA0443036012F8044C043143EA0463036011F8043CDBB2436012F8064C43EA04234360097810BC43EA01434360127843EA0263436070470301004971
:4024400004010049EC460040010100492DE9F0411746984682B00C4C0225002633460A4601960146009628462570FFF713FF424639462078FFF7EAFE29462078FFF7D4FE64
:40248000207802B0BDE8F0810C81FF1F2DE9F0411746984682B00C4C002501262B460A4601950146009530462670FFF7F3FE424639462078FFF7CAFE20780221FFF7B4FED3
:4024C000207802B0BDE8F0810D81FF1FF0B516461F4683B000250B4C2B460A4601950146009528462570FFF7D5FE3A4631462078FFF7ACFE20780221FFF796FE207803B0FD
:40250000F0BD00BF0E81FF1F044A00F00100137803F0FE0318431070704700BFF0510040044A00F00100137803F0FE0318431070704700BFC0510040044A4000137800F089
:40254000020003F0FD03184310707047F0510040044A8000137800F0040003F0FB03184310707047C0510040044AC000137800F0080003F0F703184310707047C0510040D1
:40258000014B1A781870704720510040044A137803F07F0343EAC010C0B21070704700BF00510040044A0001137800F0100003F0EF03184310707047C051004070B4064BF2
:4025C000064E1D68064908230024064A3360E8640C7070BC1360704708ED00E080E100E003E400E000E100E00230800803D000BF01380046FCD17047EFF3108072B6704725
:4026000080F31088704700BF114A137803F00303012B17D0022B07D000230E4A1268D35C022B12D00020704713790B4A03F07F0303EB430302EB83039B7ADBB2022BECD988
:40264000002070471379DBB2F8E7FEF727BA00BF006000407C82FF1F8882FF1F014B1868704700BF7081FF1F0E4B70B51E460E4C0025E41AA410A54204D056F82530984771
:402680000135F8E700F03EF9084B094C1E46E41AA4100025A54204D056F8253098470135F8E770BD1029000010290000102900001829000003460244934202D003F8011B43
:4026C000FAE77047000000005553425561727420455020312049535220457869742043616C6C6261636B200055534255617274204550203320495352204578697420436187
:402700006C6C6261636B20000000000040510040300000000140001000140140000800400140000A004C0140000200500140200030313233343536373839414243444546F4
:4027400000000000010000004C270000010000009028000000000000000000000100000064270000010000004C280000030000009027000000000000000000000000000071
:4027800000000000000000008C270000020A000000008103080002000100820240000A000100030240000A0002030000040309042C0343007900700072006500730073007C
:4027C0002000530065006D00690063006F006E0064007500630074006F007200100355005300420055004100520054003803430044004300200043006F006D006D007500FB
:402800006E00690063006100740069006F006E00200049006E007400650072006600610063006500260343004400430020004400610074006100200049006E007400650055
:402840007200660061006300650000000902430002010180C8090400000102020103052400000004240202052406000105240100010705810308000A09040100020A00003B
:40288000040705820240000007050302400000001201000202000008B40432F201000102800143000000000000000000000000000000000000000000000000000000000030
:4028C00000000000000000000000000000000000000000000000000000000000000000000000000000000000000000000000000000000000000000000000000000000000D8
:4029000000000000F8B500BFF8BC08BC9E4670474D000000A5040000F8B500BFF8BC08BC9E4670472900000038290000C880FF1FB0000000A801000000000000C82600006C
:40294000E8260000AC81FF1F00C2010000000800C201000000080000A120000000000200000000007F800000070000002E0000000000D859B0B3000080E7BD02FFFFFF00BA
:4029800000000000A4280000C4280000E428000000000000000000000000000000000000A22800000000000000000000000000000000000000000000000000000000000089
:4029C00000000000000000000000000000000000000000000000000000000000000000001081FF1F0000000000000000000000000000000000000000000000000000000028
:402A00000000000000000000000000000000000000000000000000000000000000000000000000000000000000000000000000000000000000000000000000000000000096
:402A40000000000000000000000000000000000000000000000000000000000000000000000000000000000000000000000000000000000000000000000000000000000056
:402A80000000000000000000000000000000000000000000000000000000000000000000000000000000000000000000000000000000000000000000000000000000000016
:402AC00000000000000000000000000000000000000000000000000000000000000000000000000000000000000000000000000000000000000000000000000000000000D6
:020000040003F7
:0200000480007A
:400000000145004002520040021701400219014003400140054101400342014003430140044701400A48014003490140024C0140015101407E0219807C40EA02EE0AEA0265
:40004000EE0A33813648CCF05B049F01A648A780D6409F05A648A7809F05A648A78008080B040F40C20E2340260827049F04A608AE40AF81C8E0EA40EE5063409340D840F7
:40008000AC08AF4400EA000000C0C00040000000001D1D00000000004000000303000000C0000000000B0B000000000000FFFF00000000000080800080000000000000001B
:4000C0000000000000000000000000000000000000000000000000000000000000000000000000000000000000000000000000000000000000000000000000000000000000
:4001000000000000000000000000000000000000000000000000000000000000000000000000000000000000000000000000000000000000000000000000000000000000BF
:40014000000000000000000000000000000000000000000000000000000000000000000000000000000000000000000000000000000000000000000000000000000000007F
:40018000000000000000000000000000000000000000000000000000000000000000000000000000000000000000000000000000000000000000000000000000000000003F
:0200000490006A
:0400000000004005B7
:0200000490105A
:04000000BC90ACAF55
:0200000490303A
:02000000C360DB
:0200000490402A
:4000000000000000000000000000000000000000000000000000000000000000000000000000000000000000000000000000000000000000000000000000000000000000C0
:400040000000000000000000000000000000000000000000000000000000000000000000000000000000000000000000000000000000000000000000000000000000000080
:400080000000000000000000000000000000000000000000000000000000000000000000000000000000000000000000000000000000000000000000000000000000000040
:4000C0000000000000000000000000000000000000000000000000000000000000000000000000000000000000000000000000000000000000000000000000000000000000
:0200000490501A
:0C00000000012E16106900012E25D3C946
:00000001FF