:400000000080002011000000210C0000210C000080B500AF024A034B1B68136000F00AFEBC760040FA46004010B5054C237833B9044B13B10448AFF300800123237010BDB5
:400040007881FF1F00000000143D0000084B10B51BB108490848AFF300800848036803B910BD074B002BFBD0BDE81040184700BF000000007C81FF1F143D0000C880FF1F00
:400080000000000080B500AF0121002000F068FE01F03CF80346002B06D001F02BF80346002B01D001F014FB00BF80BD80B500AF01F02CF80346002B06D001F01BF8034670
:4000C000002B01D001F004FB00BF80BD80B500AF01F010F80346002B07D001F0D1FB0346002B02D0024B01221A7000BF80BD00BF9481FF1F80B500AFFFF7C4FF00BF80BD6C
:4001000080B400AF034B01221A7000BFBD4680BC704700BF9E81FF1F80B582B000AF0023FB710023BB7100237B7100233B7100F017FAAE4803F00CFD00BF01F0B3FB0346C4
:40014000002BFAD0AA4801F02DFBAA4BAA4A1A6000BFAA4B1B78002BFBD0A64B1B68184601F0B2FB03467B717B79BB71A34B00221A70A04BA24A1A6000BFA04B1B78002BC7
:40018000FBD09C4B1B68184601F09EFB03467B719A4B00221A709B4B00221A70954B964A1A60994B944A1A60984B1B78012BFBD1974B1B88002B09D0954B1B88013B9AB252
:4001C000934B1A80914B00221A70B5E18E4B1B68904A127813441B784F3B402B00F25B8101A252F823F000BFED020000FB02000097040000230300002303000097040000CF
:400200009704000097040000970400009704000097040000970400009704000097040000970400009704000097040000970400006B030000BF030000D503000097040000D7
:400240009704000097040000970400009704000097040000970400009704000097040000970400009704000097040000190400001904000019040000190400001904000044
:4002800019040000190400001904000019040000190400001904000019040000190400001904000019040000190400003F0400003F0400003F0400003F0400003F040000B0
:4002C0003F0400003F0400003F0400003F0400003F0400003F0400003F0400003F0400003F0400003F0400003F040000494B1B780233DAB2474B1A70CEE0434B1A68454BCB
:400300001B78013313441B78184600F041FA414B1B780233DAB23F4B1A703D4B00221A80BAE0394B1A683B4B1B78013313441878354B1A68374B1B78023313441978324BC6
:400340001B68344A127813441B7803F00103DBB21A4600F00FF92F4B1B780333DAB22D4B1A702B4B00221A8096E0274B1A68294B1B78013313441B789AB2234B1968254BEF
:400380001B7802330B441B789BB21B029BB213449AB21F4B1A801F4B1B780333DAB21D4B1A701B4B1B88002B02D10123FB7173E0174B1B88013B9AB2154B1A806CE0154B67
:4003C0001B780133DAB2134B1A70114B40F2DE221A8061E00F4B1B780133DAB20D4B1A700B4B40F271321A8056E000BF01010000583D0000CC80FF1FAC81FF1F9481FF1F91
:40040000EC81FF1F9881FF1F3882FF1F9E81FF1F9C81FF1F9981FF1F484B1B68484A127813441B789BB203F00F039AB2454B1A80434B1B780133DAB2414B1A702CE03F4B01
:400440001A683F4B1B78013313441B78002219462A2000F08FF8394B1B68394A127813441B789BB203F00F039AB2364B1A80344B1B780233DAB2324B1A70324B1B88002BA1
:4004800002D10123FB7107E02E4B1B88013B9AB22C4B1A8000E000BF3B79012B0AD1032000F04CFE0346012B04D0032001F040F800233B71224B1B781A46BB79013B9A4276
:4004C00031DB214B1B78002B03D11C4B1F4A1A6002E01A4B1E4A1A6000BF1E4B1B78002BFBD07B79BB711C4B1B6840221946032000F09AFF03467B7101233B71154B0022D0
:400500001A700E4B1B68144A13600F4B1B78002B03D10D4B01221A7002E00B4B00221A70074B00221A70FB79012B02D10023FB713AE60A4B00221A7036E600BF3882FF1FDB
:400540009981FF1F9C81FF1F9881FF1FEC81FF1FAC81FF1F9481FF1FCC80FF1F9E81FF1F80B500AF00F080F962B6FFF7C3FD00BF80BD00BF80B582B000AF0346FB710B462F
:40058000BB7113467B717B79012B0ED17B4A7B4B1B78DBB243F00103DBB21370774B1B78DBB21A46764B1A600DE0744A734B1B78DBB223F00103DBB21370704B1B78DBB2D1
:4005C0001A46704B1A60704A6F4B1B78DBB223F00103DBB213706C4B1B78DBB21A46694B1A60694A684B1B78DBB223F00803DBB21370654B1B78DBB21A46624B1A60634A8E
:40060000FB791370604A604B1B78DBB223F00403DBB213705C4B1B78DBB21A46594B1A60564A564B1B78DBB243F00203DBB21370524B1B78DBB21A46514B1A60012003F0EF
:40064000D7FA514A504B1B78DBB243F00403DBB213704D4B1B78DBB21A46494B1A60474A464B1B78DBB223F00203DBB21370434B1B78DBB21A46434B1A60434A424B1B78B6
:40068000DBB243F00803DBB213703F4B1B78DBB21A463B4B1A60012003F0AAFA3A4A3A4B1B78DBB243F00103DBB21370364B1B78DBB21A46324B1A60334A334B1B78DBB21A
:4006C00023F00803DBB213702F4B1B78DBB21A462C4B1A602D4ABB7913702B4A2A4B1B78DBB223F00403DBB21370274B1B78DBB21A46244B1A60214A204B1B78DBB243F07B
:400700000203DBB213701D4B1B78DBB21A461C4B1A60012003F06CFA1B4A1B4B1B78DBB243F00403DBB21370174B1B78DBB21A46134B1A60114A114B1B78DBB223F0020383
:40074000DBB213700D4B1B78DBB21A460D4B1A600D4A0D4B1B78DBB243F00803DBB21370094B1B78DBB21A46054B1A60012003F03FFA00BF0837BD4680BD00BFF051004039
:400780003082FF1F3482FF1FC05100402051004080B582B000AF0346FB711A4A194B1B78DBB263F07F03DBB21370164B1B78DBB21A46154B1A60154AFB791370114A114B33
:4007C0001B78DBB203F07F03DBB213700D4B1B78DBB21A460E4B1A600A2002F09BFF094A084B1B78DBB263F07F03DBB21370054B1B78DBB21A46044B1A6000BF0837BD46AE
:4008000080BD00BF005100403082FF1F205100403482FF1F80B500AF002003F07BF90A2002F056FF012003F075F90A2002F050FF00BF80BD80B500AF012003F037F90120C8
:4008400003F016F9012003F0F5F8012003F062F9002003F0D3F8002003F0B4F8FF2003F043F900BF80BD00BF80B500AF9F20FFF78FFFBF20FFF78CFFDF20FFF789FFFF203D
:40088000FFF786FFFFF7D6FFFFF7C4FF00BF80BD80B582B000AF786039603A680021786803F02FFA00BF0837BD4680BD80B584B000AFF860B9607A607A68B968F86803F000
:4008C00015FA00BF1037BD4680BD00BF80B483B000AF0346FB71FEE780B487B000AF7860396000233B6100237B6127E07B699B007A6813441B68BB60BB68FB73BB6823F0C7
:40090000FF03BB6014E03B695B003A6813441B781A46BB68134419463B695B003A6813445B780B703B6901333B61FB7B013BFB73FB7B002BE7D17B6901337B617B690C2BA0
:40094000D4D900BF1C37BD4680BC704780B582B000AF374B0C221A80364B18221A70364B05221A80354B18221A70354B40F212421A80344B18221A70334B06221A70334B06
:4009800052221A70324B334A1278D2B21A70324B40F617321A80314B41F251221A800023FB7019237B6014E0FB785B00DAB22C4B1B78DBB203F00103DBB21343DBB203F071
:4009C0000303FB704FF4F07003F012F97B68013B7B607B68002B02D0FB78032BE4D17B68002B02D10320FFF771FF1E4B4FF480721A801C4B07221A701B4B00221A701B4B81
:400A000048221A70174B00221A70194B00221A70184B02221A70184A174B1B78DBB243F00703DBB2137000BF0837BD4680BD00BF8040004082400040844000408640004059
:400A4000884000408A4000400043004000420040A14600400F0100492242004020420040254200400440004006400040084000400940004001400040A243004080B483B0CA
:400A800000AF0B4B1B78FB710A4AFB7903F00703DBB21370084AFB791B09DBB21370074B44221A7000BF0C37BD4680BC704700BFCF0100496E5800406F5800407658004036
:400AC00080B582B000AF72B63D4A3D4B1B78DBB243F00403DBB213700023FB7113E0FA7913465B0013445B00364A13443B603B681A683B689B889BB219461046FFF7C8FEC9
:400B0000FB790133FB71FB79052BE8D92E494FF09040FFF7E1FE04212C48FFF7B9FE04212B48FFF7B5FE04212A48FFF7B1FE2A4A294B1B78DBB243F00203DBB21370274A5D
:400B4000264B1B78DBB243F00203DBB21370082223492448FFF7AAFE082223492348FFF7A5FE0A2222492348FFF7A0FE082222492248FFF79BFE082221492248FFF796FEB6
:400B8000082221492148FFF791FE214A204B1B78DBB243F00803DBB213701E4B61221A70FFF7D4FE1B4BC1221A70FFF767FF0E2219491A48FFF77AFE00BF0837BD4680BD62
:400BC000E84600405C3D0000340000480076004008760040107600400350014013500140880000480251004090000048C251004098000048F0510040A40000481251004082
:400C0000AC00004822510040B4000048325100402243004000480040A0430040B043004080B500AF03F036F803461B680C2B00D1FEE7FEE780B586B000AF224B7B61224B58
:400C40003B61204B7B6135E03B691B68FB603B695B68BB603B699B683B6000237B600CE0FB681A68BB681A60BB680433BB60FB680433FB607B6804337B607A683B689A420A
:400C8000EED13B69DB683B6000237B6008E0BB6800221A60BB680433BB607B6804337B607A683B689A42F2D13B6910333B617B69013B7B617B69002BC6D102F0F1FFFFF7C3
:400CC0002BFAFEE7010000007C3F000080B582B000AF194B194A1A60194A194B1B6843F40073136000237B600FE07B68032B04D8144A7B6852F8233000E0134B13497A683C
:400D000041F822307B6801337B607B682F2BECD90F4B1B78DAB20F4B1A700F4B0B4A1A60FFF7CEFE02F0ACFA0C4B00221A6000BF0837BD4680BD00BF0CED00E00004FA0588
:400D400014ED00E000000000210C00000080FF1FBC760040C480FF1F08ED00E0C080FF1F80B582B000AF03460A46FB711346BB71094B1B78002B04D100F010F8064B0122CD
:400D80001A70BA79FB791146184600F0F1F800BF0837BD4680BD00BFA481FF1F80B582B000AF02F02DFF03467B715E4A5D4B1B78DBB243F00103DBB213705B4A5A4B1B7837
:400DC000DBB243F00103DBB21370584B01221A70574B02221A70574A564B1B78DBB203F07F03DBB21370002002F094FC524A524B1B78DBB223F00603DBB213704F4A4F4B3E
:400E00001B78DBB223F02003DBB213704A4A4A4B1B78DBB243F00103DBB21370012002F079FC282002F076FC454A454B1B78DBB203F07F03DBB21370414A414B1B78DBB28D
:400E400023F04003DBB213703B4A3B4B1B78DBB243F00203DBB21370022002F05BFC364A354B1B78DBB243F00403DBB21370354B00221A70344B00221A700023FB8006E0E9
:400E8000FB88324AFF21D154FB880133FB80FB88082BF5D97B79184602F0B6FE0721172002F074FC2A49172002F048FC0721182002F06CFC2749182002F040FC07211520B2
:400EC00002F064FC2449152002F038FC0721002002F05CFC2149002002F030FC0721012002F054FC1E49012002F028FC0721022002F04CFC1B49022002F020FC0021162006
:400F000002F044FC1849162002F018FC07210C2002F03CFC15490C2002F010FC00BF0837BD4680BDA5430040B54300409D60004009600040106000409443004012600040DF
:400F4000F851004084600040856000404882FF1FD5200000BD190000C9200000E11F00002920000075200000E1200000F121000080B582B000AF03460A46FB711346BB7172
:400F8000334AFB791370334B00221A70324B00221A70324B00221A70314B00221A70314B00221A70304B00221A70304B00221A702F4B4FF400021A602D4B4FF080721A6047
:400FC0002B4B4FF400121A60294B01221A60284B02221A60264B04221A60264B07221A70234B4FF480021A60234B20221A70BB79002B02D0012B09D011E0204A1F4B1B78E0
:40100000DBB223F00103DBB2137011E01B4A1B4B1B78DBB243F00103DBB2137008E0174A164B1B78DBB243F00103DBB2137000BF134B03221A70134B80221A70012002F05F
:40104000D7FD114B04221A7000BF0837BD4680BD6D82FF1F7082FF1F8C82FF1F8F82FF1F8482FF1F8E82FF1F9182FF1F6C82FF1F00E100E09E6000409C6000400960004067
:4010800028600040086000401260004080B400AF0F4B00221A700F4B00221A700E4B00221A700E4B00221A700D4B00221A700D4B00221A700C4B00221A700C4B03221A7004
:4010C0000B4B80221A7000BFBD4680BC704700BF7082FF1F8C82FF1F8F82FF1F8482FF1F8E82FF1F9182FF1F6C82FF1F286000400860004080B400AF034B1B78DBB21846E1
:40110000BD4680BC704700BF8F82FF1F80B483B000AF0023FB71084B1B78DBB2002B05D0054B1B78FB71044B00221A70FB7918460C37BD4680BC70478C82FF1F80B483B0CB
:4011400000AF0346FB71FA79064913465B0013449B000B4401331B78DBB218460C37BD4680BC70479482FF1F80B485B000AF0346FB710023FB81FB79002B1CD0FB79082B97
:4011800019D8104AFB791B0113441B78DBB29BB203F00F03FB81FB891B029AB20949FB791B010B4401331B78DBB29BB21343FB81FB89023BFB81FB8918461437BD4680BCD5
:4011C000704700BFFC5F004090B585B000AF03463960FB71FA792B4913465B0013449B000B4404331B78DBB25BB2002B06DA3B681B0CFB814FF48043BB8105E04FF48043A9
:40120000FB813B681B0CBB81FB79022B10D0032B1AD0012B00D023E0FC79BB89FA890021002002F09DFB03461A46174B1A5517E0FC79BB89FA890021002002F05FFB03460A
:401240001A46114B1A550BE0FC79BB89FA890021002002F021FB03461A460B4B1A5500BFFB79002B09D0FB79082B06D8FC7902F087F903461A46054B1A5500BF1437BD4647
:4012800090BD00BF9482FF1F3C82FF1F4882FF1FB0B582B000AF03463960FB711346BB80FB79002B00F0B280FB79082B00F2AE80B988FA79574813465B0013449B0003443A
:4012C00006331B889BB2C3F5007399420CD9FA79504913465B0013449B000B4406331B889BB2C3F50073BB804B4CF979BB881B0A9BB2D8B2FA79474D13465B0013449B0055
:401300002B4403331B78DBB20343DAB20B0123441A70414AFB79B988C9B21B01134401330A461A70FB793D4AD35CFF2B04D1FB7939681846FFF748FFFA79364913465B005E
:4013400013449B000B44013300221A703B68002B4CD0BB88002B49D0FB79314AD35C184602F002F8FB792D4AD05CB9881123FE2202F034F9FB79294AD05C3B6899B2FB7933
:401380001B0103F10802274B13449BB21A4602F065F9FB79224AD05CFB79204AD35C194602F080F8FB791E4AD35C0121184601F095FF1C49FB791B48FA79120102441278C9
:4013C000D2B242F00202D2B21B010B441A701549FB791448FA79120102441278D2B222F00202D2B21B010B441A700FE00A48F979FA79084C13465B0013449B002344053364
:401400001B78DAB20B01034402331A7000BF0837BD46B0BD9482FF1FFC5F00404882FF1F3C82FF1F7060004080B582B000AF03463960FB711346BB803B68002B6AD0FB79F6
:40144000002B67D0FB79082B64D8FB791846FFF78BFE03461A46BB88934205D9FB791846FFF782FE034600E0BB88BB80FB792D4AD35CFF2B04D1FB7939681846FFF7A4FE24
:40148000FB79294AD35C184601F06EFFFB79254AD05CB9881223FE2202F0A0F8FB79214AD05CFB791B0103F10802204B13449BB23A6892B2194602F0D1F8FB791A4AD05C7F
:4014C000FB79184AD35C194601F0ECFFFB79164AD35C0121184601F001FF1449FB791348FA79120102441278D2B242F00202D2B21B010B441A700D49FB790C48FA791201DF
:4015000002441278D2B222F00202D2B21B010B441A7001E00023BB80BB8818460837BD4680BD00BF4882FF1F3C82FF1F7060004090B482B000AF0346FB71FB79002B1CD071
:40154000FB79082B19D8FA790E4913465B0013449B000B44013300221A700B48F979FA79084C13465B0013449B00234405331B78DAB20B01034402331A7000BF0837BD4631
:4015800090BC70479482FF1FFC5F004080B582B000AF0023FB71314B1B79DBB2184600F067F80346BB712D4B1B78DBB25BB2002B15DA2A4B5B78DBB2212B00D048E0284BAA
:4015C00007221A80BA791346DB009B1A254A1344234A536000F06CFB0346FB7138E01F4B5B78DBB2202B02D0222B1AD030E01C4B07221A80BA791346DB009B1A194A1344D4
:40160000174A5360BB79BA7917498A5CD2B242F00102D1B2144AD15400F0C8FB0346FB7116E0BB790D4A9278D2B291B20F4A22F81310BB79BA790C498A5CD2B242F002027E
:40164000D1B2094AD15400F04FFC0346FB7100BFFB7918460837BD4680BD00BF006000407882FF1FD880FF1F5482FF1F6882FF1F80B485B000AF0346FB710023FB73FF2306
:40168000BB7317E0FB7B104AD35C7B737A7B0F4913465B0013449B000B440A331B78DBB2FA799A4203D1FB7BBB730223FB73FB7B0133FB73FB7B012BE4D9BB7B18461437C9
:4016C000BD4680BC704700BF5C82FF1F9482FF1F80B582B000AF0023BB71224B00221A70214B00221A70204B00225A700023FB7110E0FB791D4AD35C7B717B79002B06D0AE
:401700007B79082B03D87B791846FFF711FFFB790133FB71FB79012BEBD9154B1B78DBB2002B18D0114B1B78DBB2002B13D0114B1B78DBB2002B0ED00D4B1B78DBB2082B8A
:4017400009D80A4B1B78DBB2082B04D8094B1B78DBB2082B01D90123BB71BB7918460837BD4680BDA581FF1F5482FF1F6082FF1F5882FF1F5C82FF1F80B485B000AF786006
:401780000023FB8102E0FB890133FB81FB897A6813441B78002BF6D1FB8918461437BD4680BC704780B584B000AF78600023BB81304B1B781A46304B9B5CFB727868FFF79D
:4017C000DBFF0346FB81FA7A2C4913465B0013449B000B4408331B889BB2FA899A420AD9FA7A264913465B0013449B000B4408331B889BB200E0FB893B81BB897A68D118CD
:401800003A89FB7A1846FFF743FDFA893B89D31AFB81FB89002B0CD1FA7A184913465B0013449B000B4408331B889BB23A899A4219D1BA893B891344BB8100BFFA7A0F49FD
:4018400013465B0013449B000B4401331B78DBB2002BF3D0FB89002B05D1FB7A002200211846FFF715FDFB89002BACD100BF1037BD4680BDA581FF1F5882FF1F9482FF1FAC
:4018800080B500AF054B1B781A46054B9B5CDBB21846FFF753FC0346184680BDA581FF1F6082FF1F80B500AF054B1B781A46054B9B5CDBB21846FFF741FC0346184680BDF2
:4018C000A581FF1F5882FF1F80B584B000AF7860134B1B781A46134B9B5CFB73FA7B124913465B0013449B000B4408331B889AB2FB7B79681846FFF797FD0346BB8100BF36
:40190000FB7B1846FFF71AFC0346012BF8D0FB7B1846FFF70DFEBB8918461037BD4680BDA581FF1F6082FF1F9482FF1F80B485B000AF78600B46FB701346BB707B68DB78AE
:4019400003F00303FB737B689B785BB2002B1ADAFB7B032B0AD0BB7803F001031449FA78CA54BB7843F00103BB701BE0BB789B08DBB203F001030F49FA78CA54BB7843F011
:401980000403BB700EE0FB7B032B0BD0BB785B08DBB203F001030849FA78CA54BB7843F00203BB70BB7818461437BD4680BC70475882FF1F5C82FF1F6082FF1F80B582B0CA
:4019C00000AF374B1B78BB71BB7903F01003002B62D00123FB7197F90630002B12DABB7903F00F03012B02D00023FB711CE000F061F82C4B1B78DBB25BB2002B14DA002308
:401A0000FB7111E0BB7903F04003002B02D000F095F809E0BB7903F02003002B02D000F0B3F801E00023FB71FB79002B34D01C4B1B78BB7197F90630002B2DDB1A4B1B7870
:401A4000DAB21A4B1B78DBB21343BB71184ABB791370174B1B78DBB2BA799A421CD1114B1B78FB710E4B1B78DBB223F07F03BB71BB79002B0AD10A4B0A4A1278D2B21A702C
:401A8000074B1B78DBB203F00F03FB71054B1B78DBB2FA799A42E2D100BF0837BD4680BD286000408D82FF1F0283FF1F9082FF1F2960004080B582B000AF1D4B1B78FB7185
:401AC0001B4AFB7913701A4B1B78FB7197F90730002B03DA174AFB79137025E0022000F045FA154B1B78DBB203F06003202B08D0402B0BD0002B0ED100F080FB0346FB7140
:401B00000CE002F085F80346FB7107E001F08EFB0346FB7102E00023FB7100BFFB79002B02D1044B03221A7000BF0837BD4680BD286000408D82FF1F0060004080B500AF28
:401B4000104B1B78DBB2062B19D801A252F823F07F1B00007F1B00006D1B00007F1B0000731B00007F1B0000791B000000F0F8F806E000F0A7F903E000F0D2F900E000BF23
:401B800000BF80BD7082FF1F80B500AF124B1B78DBB2062B1DD801A252F823F0D31B0000D31B0000B91B0000D31B0000BF1B0000D31B0000C51B000000F0D8F80AE000F0B2
:401BC00027F907E0032000F0D1F9044B03221A7000E000BF00BF80BD7082FF1F8D82FF1F80B483B000AF0023FB71294B1B78DBB29AB2284B1B889BB213449AB2254B1A8096
:401C000015E02549FB79254A52681278D2B2CA54224B5B680133214A5360FB790133FB711E4B1B889BB2013B9AB21C4B1A801B4B1B889BB2002B02D0FB79072BE1D9144BEE
:401C40001B78DBB2082B02D0FB79002B0FD0144B1B78DBB283F07F03DB43DAB2104B1A70104B0F221A70104B02221A7005E00D4B02221A700C4B02221A700C4AFB79137062
:401C8000034AFB79137000BF0C37BD4680BC70476C82FF1F6E82FF1F006000407882FF1F0283FF1F8D82FF1F7082FF1F9082FF1F80B582B000AF164B1B889BB2002B02D1A1
:401CC00000F02EF81EE0134B02221A70124B00221A7000F06BF9114BDB79DBB29BB21B029AB20E4B9B79DBB29BB21343FB80084B1B889BB2FA889A4202D2054AFB88138082
:401D0000FFF76EFF012318460837BD4680BD00BF7882FF1F7082FF1F0283FF1F0060004080B400AF094B02221A70094B80221A70084B0F221A70084B00221A70074B00222F
:401D40001A7001231846BD4680BC70477082FF1F0283FF1F8D82FF1F6C82FF1F9082FF1F80B500AFFFF73CFF00BF80BD80B500AF0A4B1B78DBB29AB2094B1B889BB21344F4
:401D80009AB2074B1A80074B00221A70012000F0EDF8054B03221A7000BF80BD6C82FF1F6E82FF1F7082FF1F8D82FF1F80B582B000AF124B04221A70114B80221A7000F00A
:401DC000F5F8104BDB79DBB29BB21B029AB20D4B9B79DBB29BB21343FB800B4B1B889BB2FA889A4202D2084AFB881380074B0B221A70012318460837BD4680BD7082FF1FF3
:401E00000283FF1F006000407882FF1F8D82FF1F80B483B000AF0023BB71234B1B78DBB203F00F03DBB2023BFB71FB799AB21F4B1B889BB213449AB21C4B1A8018E01C4BCF
:401E40005B681C49BA798A5CD2B21A70184B5B680133174A5360BB790133BB71FB79013BFB71134B1B889BB2013B9AB2104B1A800F4B1B889BB2002B02D0FB79002BDED195
:401E80000D4AFB7913700D4B1B78DBB283F07F03DB43DAB2094B1A70094B0B221A7000BF0C37BD4680BC7047296000406E82FF1F7882FF1F006000409082FF1F0283FF1F7A
:401EC0008D82FF1F80B500AF054B00221A70012000F04CF8034B03221A7000BF80BD00BF7082FF1F8D82FF1F80B400AF084B06221A70084B06221A70074B80221A70074BCE
:401F000000221A7001231846BD4680BC704700BF7082FF1F8D82FF1F0283FF1F9082FF1F80B500AF0D4B1B78DBB2002B0AD00C4A0A4B1B78DBB263F07F03DBB21370074B4B
:401F400000221A70074B00221A70012000F00EF8054B03221A7000BF80BD00BF8E82FF1F086000407082FF1F8D82FF1F80B483B000AF0346FB710B4B9B68002B0CD0094B54
:401F80009B68FA791A70074B9B68074A128892B25A80044B00229A6000BF0C37BD4680BC704700BF7882FF1F6E82FF1F80B400AF094B00221A80094B9B68002B07D0074BDD
:401FC0009B6800221A70054B9B6800225A8000BFBD4680BC704700BF6E82FF1F7882FF1F80B400AF0D4B01221A700D4B9B7C0D4B1B7BDBB203F00303012B08D0094BDB7BD0
:40200000DBB283F07F03DB43DAB2064BDA73054B01225A7300BFBD4680BC70470B600040FC5F00409482FF1F80B500AFFEF73EF80D4B02221A700D4B93F822300C4B1B7E2D
:40204000DBB203F00303012B08D0094BDB7EDBB283F07F03DB43DAB2054BDA76044B01225A7600BF80BD00BF0B600040FC5F00409482FF1F80B500AF104B04221A70104B9C
:4020800093F832300F4B93F82430DBB203F00303012B0AD00B4B93F82730DBB283F07F03DB43DAB2074B83F82720064B012283F82520FEF70BF800BF80BD00BF0B60004064
:4020C000FC5F00409482FF1F80B400AF00BFBD4680BC704780B500AFFEF7D8FF00BF80BD90B482B000AF0123BB713D4B1B78FB716DE0FB7903F00103002B62D0394ABB7905
:402100001B01134402331B78DAB23649BB791B010B4401331B78DBB213407B717B7903F00103002B2AD0BA792F4913465B0013449B000B4404331B78DBB25BB2002B1DDAF1
:402140002849BB792748BA79120102441278D2B222F00102D2B21B010B441A702348B979BA79214C13465B0013449B00234405331B78DAB20B01034402331A707B7903F089
:402180000203002B16D0BA79174913465B0013449B000B4404331B78DBB25BB2002B09DBBA79114913465B0013449B000B44013300221A700B4ABB791B01134402337A7988
:4021C0001A70BB790133BB71FB795B08FB71FB79002B8ED100BF0837BD4690BC704700BF9F600040706000409482FF1FFC5F004080B500AF01F034F800BF80BD80B586B037
:4022000000AF0023FB75B04B1B78FB7100233B61AE4B00221A8097F90730002B80F2FD80A94B5B78DBB20A2B00F2168201A252F823F000BF712300005926000059260000A9
:402240005926000059260000592600006122000059260000E523000059260000FB230000994BDB78DBB2012B0ED100F04FFEB860BB685B68954A5360944B12221A80FFF7FB
:4022800017FD0346FB75E9E18F4BDB78DBB2022B25D18D4B9B78DBB2184600F00FFEB860BB68002B00F0DA81BB685B68874A5360864B5B6803331B78DBB29BB21B029AB21C
:4022C000824B5B6802331B78DBB29BB213439AB27E4B1A80FFF7ECFC0346FB75BEE17A4BDB78DBB2032B3ED10023FB73784B3B6109E03B691B78BB71BB793A6913443B6189
:40230000FB7B0133FB73704B9B78DBB2FA7B9A4204D23B691B78DBB2002BEAD16A4B9B78DBB2002B0BD0684B9B78DAB2694B1B7C9A4204D1684800F0ABF9674B3B613B697A
:402340001B78DBB2002B00F089813B691B78DBB29AB25E4B1A805D4A3B695360FFF7A8FC0346FB757AE101F053FC0346FB7575E1FB7903F00303002B20D0022B00D030E035
:40238000524B02221A80504B1B79DBB203F07F02524913465B0013449B000B4402331B78DAB24F4B1A704E4B00225A70474B4C4A5A60FFF77DFC0346FB7512E0434B022257
:4023C0001A80484B1B78DAB2454B1A70444B00225A703E4B424A5A60FFF76AFC0346FB7500BF42E1394B01221A80384B3E4A5A60FFF75EFC0346FB7537E1344B01221A80D3
:40240000314B1B79DBB21A46384B13442F4A5360FFF74EFC0346FB7527E12B4B5B78DBB2013B0A2B00F21C8101A252F823F000BF3D25000061260000CB25000061260000A3
:402440005D2400006126000061260000612600007124000061260000F92400001A4B9B78DAB2234B1A70FFF73FFD0346FB75FCE0154B9B787B717B79002B06D07B79013BC6
:40248000DBB2184600F01AFDB8607B79002B02D0BB68002B03D17B79002B40F0E380124B1B78DBB27A799A4208D00F4A7B791370104B01221A70012000F0F8F9FFF714FD48
:4024C0000346FB75CEE000BF006000407882FF1FEC3D0000943D00000883FF1F9482FF1FA881FF1F9182FF1F8F82FF1F0083FF1F8E82FF1F8C82FF1F00F060FE0346002BC3
:4025000000F0B2805B4B1B793B715A4B1B79DAB2594B1A703B79594AD35CDAB23B795849CB5CDBB29A4204D0564B01221A7000F097FBFFF7D9FC0346FB7595E0FB7903F0A5
:402540000303012B20D0012B0CD3022B00D03BE0484B9B78DBB2002B31D100F083FD0346FB752CE0434B9B78DBB2012B29D1464B1B78DBB223F00203DAB2434B1A70FFF7CA
:40258000B3FC0346FB751CE03A4B1B79DBB2012B19D8384B9B78DBB2DB43DBB2354A1279D2B211461046394A125CD2B21340DAB2364B5A54FFF798FC0346FB7503E000BF83
:4025C00053E000BF51E000BF4FE0FB7903F00303012B20D0012B0CD3022B00D03BE0254B9B78DBB2002B31D100F0C8FC0346FB752CE0204B9B78DBB2012B29D1224B1B7837
:40260000DBB243F00203DAB21F4B1A70FFF76CFC0346FB751CE0174B1B79DBB2012B19D8144B9B78DBB2DB43DBB2124A1279D2B211461046154A125CD2B21340DAB2134B52
:402640005A54FFF751FC0346FB7503E000BF0CE000BF0AE000BF08E000BF06E000BF04E000BF02E000BF00E000BFFB7D18461837BD4680BD006000408482FF1F7482FF1F4E
:402680000083FF1F8C82FF1F9182FF1F0483FF1FB0B58AB000AF7860324B07F114041D460FCD0FC42B682370002387F826307B68002B52D07B6822221A707B680133032277
:4026C0001A7007F10C03184601F084F8022387F827303EE097F827307A68134497F8262007F128010A4412F81C2C1209D2B207F128010A4412F8142C1A7097F827300133B4
:402700007A68134400221A7097F8273002337A68134497F8262007F128010A4412F81C2C02F00F0207F128010A4412F8142C1A7097F8273003337A68134400221A7097F8F4
:402740002630013387F8263097F82730043387F8273097F82730212BBCD900BF2837BD46B0BD00BF803D000090B482B000AF0123FB7187E0494AFB791B0113440C221A70E8
:40278000464AFB791B01134401331F221A70FA79434913465B0013449B000B4405331B78DBB2002B1CD0FA793D4913465B0013449B000B4404331B78DBB25BB2002B07DAE2
:4027C000384AFB791B01134402330C221A700EE0344AFB791B011344023308221A7006E0304AFB791B011344023380221A702B48F979FA792A4C13465B0013449B002344C4
:4028000006331B889BB2DAB20B01034406331A702248F979FA79224C13465B0013449B00234406331B889BB21B0A9BB2DAB20B01034407331A701948F979FA79184C1346C2
:402840005B0013449B00234406331B889BB2DAB20B01034404331A701048F979FA79104C13465B0013449B00234406331B889BB21B0A9BB2DAB20B01034405331A70FB7985
:402880000133FB71FB79082B7FF674AF064BFF221A7000BF0837BD4690BC7047706000409482FF1FFC5F00400A60004080B58AB000AF0346FB7100237B84002387F82730C2
:4028C00050E097F82720B34913465B0013449B000B4400221A7097F82720AE4913465B0013449B000B44023300221A7097F82720A84913465B0013449B000B44033300227E
:402900001A7097F82720A34913465B0013449B000B44083300221A8097F827209D4913465B0013449B000B440A3300221A7097F82720984913465B0013449B000B440133E5
:4029400000221A7097F82720924913465B0013449B000B44053300221A7097F82730013387F8273097F82730082BAAD9FB79002B16D0002387F825300EE097F82530864A77
:402980000021D15497F82530844A0021D15497F82530013387F8253097F82530012BECD97F4B1B78DBB2002B00F051810023FB767B4B1B78DBB2013BDBB2184600F07EFA38
:4029C00078617B695B683B613B6907331B7803F04003002B08D0734B1B78DBB243F00103DAB2704B1A7007E06E4B1B78DBB223F00103DAB26B4B1A707B6908337B617B69A9
:402A00001B7887F82730012387F82530B6E07B695B68FB61002387F82630A3E097F82520FB699B7803F07F039A4240F0938097F82520584913465B0013449B000B4408339D
:402A40001B889AB2FB699B889A420CD297F82520FB6998884F4913465B0013449B000B44083302461A80FB691B781A464A4B9B5CDAB2FB695B789A426CD197F82520FB692D
:402A80009878444913465B0013449B000B44043302461A7097F82520FB69D8783D4913465B0013449B000B4402461A70FB69DB7803F00303FB73FB699B785BB2002B1CDAE3
:402AC00097F82520FB7B012B01D1072000E00D20304913465B0013449B000B44053302461A7097F825202B4913465B0013449B000B44013301221A701BE097F82520FB7B7F
:402B0000012B01D1052000E00920224913465B0013449B000B44053302461A7097F825201C4913465B0013449B000B44013300221A70FB699B790A2B03D0FB699B79022BCC
:402B400008D1FA7E97F825301946F869FEF7EEFE0346FB76FB690833FB6197F82630013387F8263097F8262097F827309A42FFF455AF97F82530013387F8253097F825307E
:402B8000082B7FF644AF7B695B68FB61002387F8253020E09482FF1F0083FF1F7482FF1F8F82FF1F9182FF1FFB699B7803F07F02FB691878284913465B0013449B000B44F2
:402BC0000A3302461A70FB690833FB6197F82530013387F8253097F8252097F827309A42E2D300F0A5F902461C4B1A6000237B84012387F8273024E097F82720164913462F
:402C00005B0013449B000B4406337A8C1A8097F82720114913465B0013449B000B4408331B889AB27B8C13447B847B8C03F001039AB27B8C13447B8497F82730013387F833
:402C4000273097F82730082BD6D9FFF78DFD00BF2837BD4680BD00BF9482FF1F8882FF1F90B585B000AF8F4B1B78DBB2002B00F015818C4B1B78DBB2013BDBB2184600F05A
:402C80001DF978607B6808337B607B681B78FB707B685B68BB60844B1B78BB700023FB73F7E0BB681B78BA789A4240F0EC80BB787E4AD35CDAB2BB685B789A4240F0E3801B
:402CC000BB689B7803F07F037B70BB68DB7803F003033B707A78764913465B0013449B000B44033300221A707A78BB689878704913465B0013449B000B44043302461A70C0
:402D00007A78BB68D8786A4913465B0013449B000B4402461A707A78BB689888644913465B0013449B000B44083302461A80BB689B785BB2002B1ADA7A783B78012B01D1BB
:402D4000072000E00D205A4913465B0013449B000B44053302461A707A78554913465B0013449B000B44013301221A7019E07A783B78012B01D1052000E009204C4913465F
:402D80005B0013449B000B44053302461A707A78474913465B0013449B000B44013300221A70444A7B781B011344023301221A70404879787A783E4C13465B0013449B00A5
:402DC000234408331B889BB21B0A9BB2DAB20B0103441A70374879787A78354C13465B0013449B00234408331B889BB2DAB20B01034401331A70304879787A782C4C134682
:402E00005B0013449B00234406331B889BB2DAB20B01034406331A70274879787A78244C13465B0013449B00234406331B889BB21B0A9BB2DAB20B01034407331A701E48A0
:402E400079787A781A4C13465B0013449B00234406331B889BB2DAB20B01034404331A70154879787A78124C13465B0013449B00234406331B889BB21B0A9BB2DAB20B0155
:402E8000034405331A70BB680833BB60FB7B0133FB73FA7BFB789A42FFF403AF00BF1437BD4690BD8F82FF1F8482FF1F0083FF1F9482FF1FFC5F00407060004080B485B079
:402EC00000AF0346FB710F4B1B78DBB20E4ADB0013445B68FB60FB681033FB60FB681B78FA799A4202D30023FB6005E0FB79DB00FA6813445B68FB60FB6818461437BD4699
:402F000080BC70476D82FF1FEC3E000080B400AF054B1B78DBB2054ADB0013445B681846BD4680BC704700BF6D82FF1FEC3E000080B584B000AF104B1B78DBB2013BDBB22A
:402F40001846FFF7BBFFB860BB68002B0DD0BB685B681B79FB71FB790233DB00BA681344BB60BB685B68FB6001E00023FB60FB6818461037BD4680BD8F82FF1F80B582B084
:402F800000AF0023FB71344B1B79DBB203F07F03BB71BB79002B5AD0BB79082B57D8BA79B9792E480B465B000B449B00034402331B78DBB243F00103D8B2284913465B0080
:402FC00013449B000B44023302461A70BA79234913465B0013449B000B44033300221A70BA79B9791D480B465B000B449B00034401331B78DBB243F00203D8B2174913469D
:403000005B0013449B000B44013302461A70BA79124913465B0013449B000B4404331B78DBB25BB2002B07DA0D4ABB791B01134402338D221A7006E0094ABB791B011344AF
:40304000023389221A70FEF74FFF0346FB71FB7918460837BD4680BD006000409482FF1FFC5F004080B582B000AF0023FB71504B1B79DBB203F07F03BB71BB79002B00F0DD
:403080009280BB79082B00F28E80BA79B97949480B465B000B449B00034402331B78DBB223F00103D8B2434913465B0013449B000B44023302461A70BA793E4913465B00D8
:4030C00013449B000B44033300221A703A49BB793948BA79120102441278D2B202F07F02D2B21B010B441A70BA79B97931480B465B000B449B00034401331B78DBB223F0CD
:403100000203D8B22B4913465B0013449B000B44013302461A70BA79264913465B0013449B000B4404331B78DBB25BB2002B1BDABA79204913465B0013449B000B440133B1
:403140001B78DBB2012B07D11B4ABB791B01134402330C221A7022E0174ABB791B01134402330D221A701AE0BA79124913465B0013449B000B4401331B78DBB2012B07D165
:403180000D4ABB791B011344023308221A7006E0094ABB791B011344023309221A70FEF7A3FE0346FB71FB7918460837BD4680BD006000409482FF1FFC5F004080B584B0EA
:4031C00000AF0023FB73154B1B79BB73144B1B78DBB2013BDBB21846FFF770FEB860BB685B681B79FB71BA7BFB799A4202D9BB7B022B0ED8BB7BBA7B0A498A5CD1B20A4A41
:40320000D154BB7B054A9278D1B2064AD1540123FB73FB7B18461037BD4680BD006000408F82FF1F0083FF1F7482FF1F80B483B000AF0023FB71094B1B78DBB25BB2002B20
:4032400006DA064B5B78DBB2012B00D000E000BFFB7918460C37BD4680BC70470060004080B400AF054B1B78DBB203F040039B09DBB21846BD4680BC704700BF8F45004096
:4032800080B483B000AF134B7F221A70124B80221A707F23FB710CE0FB79DB0003F1804303F5F043FA79013AD2B21A70FB79013BFB71FB79002BEFD1FB79DB0003F180437E
:4032C00003F5F04300221A7000BF0C37BD4680BC704700BFF580FF1FF480FF1F80B485B000AF03460A46FB711346BB710123FB60FB79172B2FD8BB79002B0ED0FB791A0171
:40330000184B1344FA791101164A0A441278D2B242F02002D2B21A700DE0FB791A01114B1344FA7911010F4A0A441278D2B222F02002D2B21A70FB791A010A4B1344FA79D7
:403340001101084A0A441278D2B242F00102D2B21A700023FB60FB6818461437BD4680BC704700BF1070004080B485B000AF0346FB710123FB60FB79172B1DD8FB791A01C5
:40338000104B1344FA7911010E4A0A441278D2B222F00102D2B21A70FB791A01094B1344FA791101074A0A441278D2B222F02002D2B21A700023FB60FB6818461437BD46C4
:4033C00080BC70471070004080B485B000AF03460A46FB711346BB710123FB60FB79172B1BD8FB791A01104B13441B78DBB223F00E03FB72FB791A010B4B1344BA7952009D
:40340000D2B252B202F00E0251B297F90B200A4352B2D2B21A700023FB60FB6818461437BD4680BC704700BF1070004080B485B000AF0346FB710B46BB8013467B80012315
:40344000FB60BB8841F6FF72934202D14FF40053BB807B8841F6FF72934202D14FF400537B80FB79172B17D8FB79DB0003F1804303F5EC430433BB60BB68BA881A80FB7912
:40348000DB0003F1804303F5EC430633BB60BB687A881A800023FB60FB6818461437BD4680BC704780B485B000AF03460A46FB711346BB710123FB60FB79172B07D8FB7996
:4034C0001A01064B1344BA795A720023FB60FB6818461437BD4680BC704700BF1070004090B484B000AF0446084611461A462346FB710346BB710B467B7113463B710123E5
:40350000FB60FB79172B34D8FB79DB0003F1804303F5EC43BA7902F07F02D1B27A79D201D2B20A43D2B21A70FB79DB0003F1804303F5EC433A7E1201D1B23A7902F00F0242
:40354000D2B20A43D2B25A70FB79DB0003F1804303F5EC433A7F02F00F02D2B29A70FB79DB0003F1804303F5EC430022DA700023FB60FB6818461037BD4690BC704700BFD1
:4035800080B582B000AFFF23FB7100F039FB0346BB71104B1B78182B12D90F4B1B78FB710C4B1B78013BDAB20A4B1A70FB79DB0003F1804303F5F0431B78DAB2064B1A709D
:4035C000BB79184600F020FBFB7918460837BD4680BD00BFF480FF1FF580FF1F90B484B000AF0446084611461A462346FB710346BB800B46BB711346FB700123FB6097F9DA
:403600000730002B23DBBB8823F47F6323F00F039BB2002B1BD1FB79DB0003F1804303F5F043BB60BB68BA881A80FB79DB0003F1804303F5F043BA799A70FB79DB0003F169
:40364000804303F5F043FA78DA700023FB60FB6818461037BD4690BC704700BF80B485B000AF0346FB710B46BB8013467B800123FB6097F90730002B17DBFB79DB0003F102
:40368000804303F5F0430433BB60BB68BA881A80FB79DB0003F1804303F5F0430633BB60BB687A881A800023FB60FB6818461437BD4680BC704700BF80B483B000AF0346E9
:4036C000FB7101BE00BF0C37BD4680BC704700BF80B582B000AF786008E00C4B1B68184600F086FA7B68A3F500437B607B68B3F5004FF2D8064B1B687A6802FB03F3184626
:4037000000F076FA00BF0837BD4680BD0881FF1F0081FF1F80B582B000AF0346FB80FB88054A127802FB03F3184600F061FA00BF0837BD4680BD00BF0481FF1F80B584B0CA
:4037400000AF03463960FB710F4B1B68FB60FB791F2B02D90020FFF7AFFFFB7903F01F0310339B00FA6813441B68BB60FB7903F01F0310339B00FA6813443A681A60BB689A
:4037800018461037BD4680BD08ED00E080B582B000AF03460A46FB711346BB71BB79072B02D90020FFF788FFFB791F2B02D90020FFF782FFFB7903F01F0303F1604303F589
:4037C0006443BA795201D2B21A7000BF0837BD4680BD00BF80B483B000AF7860264B1B78DBB21A467B681A60244B1B78DBB21B027A6812681A437B681A60214B1B78DBB207
:403800001B047A6812681A437B681A601D4B1B78DBB21B067A6812681A437B681A607B680433194A1278D2B21A60184B1B78DBB21A027B6804337968043109680A431A6088
:40384000134B1B78DBB21A047B6804337968043109680A431A600F4B1B78DBB21A067B6804337968043109680A431A6000BF0C37BD4680BC704700BF0301004904010049F0
:40388000EC460040020100490101004900010049050100490601004990B585B002AF0446084611461A462346FB710346BB710B46BB8013467B80104B02221A700E4B187880
:4038C000BA79F97900230193002300930023FFF707FE094B1B787A88B9881846FFF7A6FD054B1B7802211846FFF76EFD024B1B7818460C37BD4690BD0C81FF1F90B585B0BC
:4039000002AF0446084611461A462346FB710346BB710B46BB8013467B80104B01221A700E4B1878BA79F97900230193002300930023FFF7D5FD094B1B787A88B9881846E7
:40394000FFF774FD054B1B7802211846FFF73CFD024B1B7818460C37BD4690BD0D81FF1F90B585B002AF0446084611461A462346FB710346BB710B46BB8013467B80104BD1
:4039800000221A700E4B1878BA79F97900230193002300930023FFF7A3FD094B1B787A88B9881846FFF742FD054B1B7802211846FFF70AFD024B1B7818460C37BD4690BDB8
:4039C0000E81FF1F80B485B000AF0346FB710A4B1B78DBB223F00103FB730749FB7903F00103DAB2FB7B1343DBB20B7000BF1437BD4680BC704700BFF051004080B485B08F
:403A000000AF0346FB710A4B1B78DBB223F00103FB730749FB7903F00103DAB2FB7B1343DBB20B7000BF1437BD4680BC704700BFC051004080B485B000AF0346FB710B4BDA
:403A40001B78DBB223F00203FB730849FB795B00DBB203F00203DAB2FB7B1343DBB20B7000BF1437BD4680BC704700BFF051004080B485B000AF0346FB710B4B1B78DBB218
:403A800023F00403FB730849FB799B00DBB203F00403DAB2FB7B1343DBB20B7000BF1437BD4680BC704700BFC051004080B485B000AF0346FB710B4B1B78DBB223F00803C6
:403AC000FB730849FB79DB00DBB203F00803DAB2FB7B1343DBB20B7000BF1437BD4680BC704700BFC051004080B485B000AF0346FB71074B1B780023FB730549FA7BFB7943
:403B00001343DBB20B7000BF1437BD4680BC70472051004080B485B000AF0346FB710B4B1B78DBB223F01003FB730849FB791B01DBB203F01003DAB2FB7B1343DBB20B70CB
:403B400000BF1437BD4680BC704700BFC051004080B582B000AF786000F03CF8786800F009F8002000F018F800F028F800BF0837BD4680BD80B485B000AF7860054B1B6821
:403B8000FB60FB684C337A681A6000BF1437BD4680BC704708ED00E080B483B000AF0346FB71054AFB795B01DBB2137000BF0C37BD4680BC704700BF03E400E080B400AF3C
:403BC000034B08221A6000BFBD4680BC704700BF00E100E080B400AF034B08221A6000BFBD4680BC704700BF80E100E0000000000230800803D000BF01380046FCD17047C5
:403C0000EFF3108072B6704780F31088704700BF80B582B000AF0023BB711B4B1B78DBB203F00303012B02D0022B04D012E0164B1B79FB7111E0144B1B79DBB203F07F0297
:403C4000124913465B0013449B000B440A331B78FB7102E00023FB7100BFFB79022B0ED80B4B1A68FB7913441B78022B04D1FDF78DFC0346BB7102E00023BB7100BFBB79B3
:403C800018460837BD4680BD006000409482FF1F8882FF1F014B1868704700BF7081FF1F0E4B70B51E460E4C0025E41AA410A54204D056F8253098470135F8E700F04CF940
:403CC000084B094C1E46E41AA4100025A54204D056F8253098470135F8E770BD643F0000643F0000643F00006C3F000010B5431E0A44914204D011F8014B03F8014FF8E734
:403D000010BD03460244934202D003F8011BFAE770470000000000005553425561727420455020332049535220457869742043616C6C6261636B2000555342556172742088
:403D4000455020312049535220457869742043616C6C6261636B20000000000040510040300000000140001000140140000800400140000A004C01400002005001402000CE
:403D800030313233343536373839414243444546000000001201000202000008B40432F201000102800100000902430002010180C809040000010202010305240000000404
:403DC000240202052406000105240100010705810308000A09040100020A000004070582024000000705030240000000040309042C03430079007000720065007300730033
:403E00002000530065006D00690063006F006E0064007500630074006F007200100355005300420055004100520054003803430044004300200043006F006D006D007500A4
:403E40006E00690063006100740069006F006E00200049006E007400650072006600610063006500260343004400430020004400610074006100200049006E0074006500FF
:403E80007200660061006300650000000203000000008103080002000100820240000A000100030240000A00020A000001000000A83D000003000000903E0000000000008C
:403EC00000000000000000000000000000000000A83E000001000000943D0000000000000000000001000000AC3E000001000000D43E0000430000000000000000000000C9
:403F00000000000000000000000000000000000000000000000000000000000000000000000000000000000000000000000000000000000000000000000000000000000081
:403F4000000000000000000000000000000000000000000000000000F8B500BFF8BC08BC9E4670474D000000CD0C0000F8B500BFF8BC08BC9E46704729000000903F000025
:403F8000C880FF1FB0000000B80100000000000000000000AC81FF1F183D0000383D000000C2010000000800C201000000080000A12000000000020000000000807F0000C5
:403FC0000700000080E7BD02B0B300002E0000000000D859FFFFFF0000000000F83E0000183F0000383F000000000000000000000000000000000000F43E0000000000009F
:4040000000000000000000000000000000000000000000000000000000000000000000000000000000000000000000000000000000000000000000001081FF1F00000000D1
:404040000000000000000000000000000000000000000000000000000000000000000000000000000000000000000000000000000000000000000000000000000000000040
:404080000000000000000000000000000000000000000000000000000000000000000000000000000000000000000000000000000000000000000000000000000000000000
:4040C00000000000000000000000000000000000000000000000000000000000000000000000000000000000000000000000000000000000000000000000000000000000C0
:40410000000000000000000000000000000000000000000000000000000000000000000000000000000000000000000000000000000000000000000000000000000000007F
:020000040003F7
:0200000480007A
:400000000145004002520040021701400219014003400140054101400342014003430140044701400A48014003490140024C0140015101407E0219807C40EA02EE0AEA0265
:40004000EE0A33813648CCF05B049F01A648A780D6409F05A648A7809F05A648A78008080B040F40C20E2340260827049F04A608AE40AF81C8E0EA40EE5063409340D840F7
:40008000AC08AF4400EA000000C0C00040000000001D1D00000000004000000303000000C0000000000B0B000000000000FFFF00000000000080800080000000000000001B
:4000C0000000000000000000000000000000000000000000000000000000000000000000000000000000000000000000000000000000000000000000000000000000000000
:4001000000000000000000000000000000000000000000000000000000000000000000000000000000000000000000000000000000000000000000000000000000000000BF
:40014000000000000000000000000000000000000000000000000000000000000000000000000000000000000000000000000000000000000000000000000000000000007F
:40018000000000000000000000000000000000000000000000000000000000000000000000000000000000000000000000000000000000000000000000000000000000003F
:0200000490006A
:0400000000004005B7
:0200000490105A
:04000000BC90ACAF55
:0200000490303A
:02000000B0C886
:0200000490402A
:4000000000000000000000000000000000000000000000000000000000000000000000000000000000000000000000000000000000000000000000000000000000000000C0
:400040000000000000000000000000000000000000000000000000000000000000000000000000000000000000000000000000000000000000000000000000000000000080
:400080000000000000000000000000000000000000000000000000000000000000000000000000000000000000000000000000000000000000000000000000000000000040
:4000C0000000000000000000000000000000000000000000000000000000000000000000000000000000000000000000000000000000000000000000000000000000000000
:0200000490501A
:0C00000000012E16106900012E2DC131E8
:00000001FF