:4000000000800020110000009904000099040000034A08B51268034B1A6000F045FA00BFFA460040BC76004010B5054C237833B9044B13B10448AFF300800123237010BD07
:400040006081FF1F0000000070230000084B10B51BB108490848AFF300800848036803B910BD074B002BFBD0BDE81040184700BF000000006481FF1F70230000C880FF1FAC
:400080000000000008B5012002F0CCF89F2002F0C3F8002002F0C6F8122002F02FF8012002F0C0F8012002F0BDF8BF2002F0B4F8002002F0B7F8122002F020F8012002F005
:4000C000B1F8012002F0AEF8DF2002F0A5F8002002F0A8F8122002F011F8012002F0A2F8012002F09FF8FF2002F096F8002002F099F8122002F002F8012002F093F80120BB
:4001000002F07EF8012002F06FF8012002F060F8012002F093F8002002F04EF8002002F03FF8FF2002F078F8002002F087F80A2001F0C0FF012002F081F8BDE808400A20A4
:4001400001F0B8BF30B591B0FFF79CFF62B60121002000F0AFFA02E000F046FB68B900F049FB0028F8D000F03FFB0028F4D000F00BFC00F039FB0028F1D000F03FFC0028A8
:40018000EDD0684600F044FC9DF80000502849D0E5D3A0F15203012BE1D800F001009DF801509DF8024001F0FBFF002002F004F8002002F025F8284602F02EF8002002F08D
:4001C00013F8012002F004F8012001F097FF012002F00AF8002001F0FBFF012002F010F8012001F08BFF012001F0E6FF002002F007F8204602F010F8002001F0F5FF0120D8
:4002000001F0E6FF012001F079FF012001F0ECFF002001F0DDFF012001F0F2FF012001F06DFF9CE79DF80140012001F0FBFF204601F0F2FF002001F0F5FF122001F05EFFC1
:40024000012001F0EFFF8AE72DE9F04172B6794D794A2E461378002443F00403137004EB4403B28855F813000134002102F078F8062C06F10606F2D1704F4FF0000E07F1B1
:40028000340CE04657F8043B23F0FF0413F0FF0313D0013BDEB20EEB06000CEB40000CEB4E030330013313F8012C13F8021B83421155F8D10EF1010EB6444745E2D1604B55
:4002C00040F6173703CB1A4641F25126DFF8B8E1DFF8B8C19EF80040DFF8B48144F002048EF800409EF8104044F002048EF81040AEF57E4E534CAEF1410ECCF80000CCF886
:40030000041003CACEF80000CEF8041007CA03C44D4922800A7842F008020A7003F1140203CA03F11C022433CCF81000CCF8141003CADFF860C14EF8A00C4EF89C1C03CBB5
:40034000602344F8C60C44F8C21C88F800300C23ACF800303D4C1823AEF58A5E3C488EF800303C4A4FF0050EA4F800E03A490370062010705220394A087012783848D2B2AB
:400380008CF82126374A0780D5F8DC50A4F89C611478A1F580710D604FF4F0701D4604F00104164601F058FF01E0032C0DD033784FF4F07003F0010343EA440401F04CFFD2
:4003C000013D04F00304F0D1FEE7274A27492848284E294D4FF480770724178000231470482702240B70377013702B70047091F89C33C02443F00303204A81F89C3380F856
:40040000FF47137800F5C350DBB201F5C3510D30093105F5C35503F00707194A1B09194C07700D350B7044260FCA2E7007C42380BDE8F08174230000E8460040982300007D
:400440001C240000F051004022430040844000408640004000430040004200400F01004922420040254200400440004006400040014000400840004009400040CF010049AE
:40048000A0430040B04300400350014002510040004800408040004008B501F035FF03680C2B00D0FEE7FEE780B5134FF7B1134E002556F80C0C56F8084C56F8102C034679
:4004C0003CB1043A52F8041F43F8041B191AA142F8D156F8040C1A4620B142F8045BD11A8842FAD1013F06F11006E2D101F012FFFFF728FEFEE700BF01000000702600002A
:400500000E4B0F4A0F491A600B680F4A43F400730E480B600023032B94BF50F823100C490133302B42F8041FF5D10A4B0A4918780A4A0B4B08701A60FFF786BE0CED00E0F3
:400540000004FA0514ED00E0FC7FFF1F0000000099040000BC760040C080FF1F0080FF1F08ED00E02DE9F04101F095FE424A43491378804643F0010313700B78404C414898
:400580000126022502F5E35243F001030B700B32267005701378A4F5E85403F07F03093C1370002001F0AAFD2378374A03F0F90323701378304603F0DF03137023780027B9
:4005C0003343237001F09AFD282001F097FD2F4B28461A7802F07F021A701A7802F0BF021A7023782B43237001F088FD2378284A284943F00403237040460F70177001F07D
:400600004EFE0721172001F08FFD2349172001F07DFD0721182001F087FD2049182001F075FD0721152001F07FFD1D49152001F06DFD3846072101F077FD3846194901F00F
:4006400065FD3046072101F06FFD3046164901F05DFD2846072101F067FD2846134901F055FD07210C2001F05FFDBDE8F04110490C2001F04BBD00BFA5430040B5430040F1
:400680009D6000400960004012600040F851004085600040846000405D1100007D0B000059110000B9100000E91000001D110000B11300002DE9F041234C804623780D4652
:4006C0001BB9FFF74FFF01232370204B0124204E204821491C70214A5C70002386F800801F4F03701F4E0B701F4820491370204A3B7033704FF4000703704FF080760B7036
:400700004FF400100221042317601660106014601160136095B1174A137843F001031370154B16498022032008701A70012001F093FD134B04221A70BDE8F0810D4A13784D
:4007400003F0FE031370EBE77C81FF1F3882FF1F9D81FF1FA081FF1FBC81FF1FBF81FF1FB481FF1FBE81FF1FC181FF1F9C81FF1F00E100E0096000400860004028600040E4
:40078000126000400E4BF0B501220E481A700E4C5A700E490023DFF84CE003700C4F0D4E0D4D0E480E4A8EF8003023700B70032480213B7033702B7004701170F0BD00BFDE
:4007C0003882FF1FA081FF1FBF81FF1FB481FF1FBE81FF1FC181FF1F9C81FF1F2860004008600040BC81FF1F014B1878704700BFBF81FF1F044B1A7802F0FF001AB1187891
:400800000022C0B21A707047BC81FF1F034B00EB400003EB80035878704700BFC481FF1F69B3431E072B27D8F0B41B4D07012E467B5D3E44747803F00F0344EA0323023BE3
:400840009BB29A421ED852B1541E144DA4B20C443D4401392B7A01F8013FA142FAD1104B00EB400003EB80000023437043791046DBB2B370F0BC70470022104670470A4628
:40088000104670477A5D737802F00F0243EA0222023A92B2D7E700BFFC5F004070600040C481FF1F431E072B0CD8074B00EB400203EB820300225A705A79044B0001D2B20E
:4008C00003449A70704700BFC481FF1FFC5F0040264B27481B790278264902EB420201EB8202927ADBB2934234D0427802EB420201EB82018A7A934214BFFF2301231B4913
:400900000A7812F0800F4A7820D1D2B2202A0CD0222A1DD18A781848184920F81320CA5C42F00202CA5400F0AFBB10B414491548C3EBC3020A440724104904804260CA5C1C
:4009400042F00102CA5410BC00F070BB212A03D0002070470023D2E709490A4AC3EBC3030B4407211180536000F06CBA006000408C81FF1FC481FF1F9881FF1F8481FF1FF9
:40098000CC80FF1FA881FF1F10B5174A0023174C1370537020781649C0B2421E072A0B701FD96078C0B2431E072B17D9114B1A7812B122780D490AB9012010BD0E4A107828
:4009C0000028F9D01B78082BF6D80B78082BF3D81078082894BF0020012010BDFFF762FFE4E7FFF75FFFDCE78481FF1F9081FF1F7D81FF1F8881FF1F8C81FF1F024B034A45
:400A00001B78D05CFFF702BF7D81FF1F9081FF1F074B08491B78084ACB5C0146D8B200EB400302EB8302128992B2FFF7F9BE00BF7D81FF1F9081FF1FC481FF1FC37890F918
:400A4000020003F00303002809DB032B05D00C48C2F34003C15442F0020210467047032B07D0084802F0010342F00102C154104670470548C2F38003C15442F00402ECE781
:400A80009081FF1F8881FF1F8C81FF1F30B4324A1378DBB2042B2BD0062B1BD0022B01D030BC70472D4B2E481978038800240B449BB22C49038014708B6833B18B68012223
:400AC0001A708B6802885A808C60274B03221A7030BC7047234B9A68002AF6D0996803201F4A087099681088002248809A60ECE71E4B1B481978028801F00F010239C9B212
:400B00000A4492B2174B02801A8892B2B2B109B3174C002000E0E9B15D68225C0139D2B22A705A68C9B201325A601A880130013A92B21A801A8892B2002AECD10D4B0E4A0F
:400B400019701378084983F080030B201370087030BC70470021F1E7A081FF1F9C81FF1F9E81FF1FA881FF1FBD81FF1F2960004000600040C081FF1F3282FF1FF8B5994AD4
:400B80001378DBB2D80605D5190604D45D0650D49C062CD4F8BD03F00F03012BFAD11378DBB213701378DBB21F0600F113818E4B9A6842B1996802208C4A0870996810885F
:400BC000002248809A608A4B1B7803F06003202B00F0FA80402B00F0F080002B00F0F780844903230B700B781E0602D5F8BDFFF74DFF7C4A13781B0600F1C3807E497F4B27
:400C000008781B787E4903430B7009788B42C1D178490C460B781078DBB2000605D42378DBB21370137803F00F0308788342F1D1F8BD74480278D2B2042A00F0AD80062A83
:400C400000F0A080022AD4D1684D6F4C664B26782988314489B22980198889B2002900F0D9805968624D0978C9B229705968013159601988013989B21980198889B2002917
:400C800000F0AE8059680978C9B269705968013159601988013989B21980198889B2002900F09B805A681278D2B2AA705A6801325A601A88013A92B21A801A8892B2002AB1
:400CC00000F0B0805A6811781A46C9B2E9705968013159601988013989B219801B889BB2002B00F0A18053681B78DBB22B715368013353601388013B9BB2138013889BB216
:400D0000002B00F0938053681B78DBB26B715368013353601388013B9BB2138013889BB2002B00F0858053681B78DBB2AB715368013353601388013B9BB2138013889BB235
:400D4000002B77D053681B78DBB2EB715368013353601388013B9BB2138013889BB2002B6AD023780823244D22492A780F2782F0800202262A700F700670204A137023707F
:400D800037E7F8BD214B1A7832B11A78204C42F080020021227019700022134B0270996839B19968012411480C709968008848809A60104903230B701BE701F05DF9002803
:400DC0003FF40EAF0B490EE701F070FAF7E700F02BFFF4E707490B7005E713462278C2E70123FBE728600040A881FF1F9E81FF1F00600040BD81FF1F3282FF1FC081FF1FBA
:400E000029600040A081FF1F9C81FF1FBE81FF1F086000402378082B10D00B4608490A700270AAE70323D9E70423D7E70523D5E70623D3E70723D1E70823CFE70B4692E77E
:400E4000BD81FF1F714AF0B413889BB2002B00F0B1806F4D6F4C704E02210023297023703380916819B191680B7091684B806B49664FC8798B79118843EA002389B28B428F
:400E8000674838BF3B8007783188604B394489B23180128892B2002A00F09F8059685F4A0978C9B211705968013159601988013989B21980198889B2002900F0978059685F
:400EC0000978C9B251705968013159601988013989B21980198889B2002900F0898059680978C9B291705968013159601988013989B21980198889B200297BD05968097831
:400F0000C9B2D1705968013159601988013989B21980198889B200295CD059680978C9B211715968013159601988013989B21980198889B200295FD059680978C9B251711C
:400F40005968013159601988013989B21980198889B2002952D059680978C9B291715968013159601988013989B21980198889B2002945D059680978C9B2D1715A680132C7
:400F80005A601A88013A92B21A801B889BB2002B38D0037808232278224E82F080020F2702212270377029701F4A13700370F0BC01207047164C174D1A48022718491A4AD1
:400FC000277080260F242E7004700B7013700120F0BC704704230278DDE70378082B13D01049134602220A702A70DDE70123F2E70223F0E70323EEE70523ECE70623EAE760
:401000000723E8E70823E6E71346C4E7A881FF1FA081FF1F3282FF1F9E81FF1F006000409C81FF1FBD81FF1FC081FF1F70B41049104D1148042680240022104B2E70047000
:401040000A80996819B199680A7099684A800C4A0A4CD0799279198842EA00238AB2934238BF2380074B0B221A70012070BC70479E81FF1FA081FF1F3282FF1FA881FF1F98
:4010800000600040BD81FF1F70B40748074E084C084A0623802500210370337025701170012070BC704700BFA081FF1FBD81FF1F3282FF1FC081FF1F08490120084A094B04
:4010C0000870927C1A7B02F00302824203D0DA7B82F08002DA7301225A7370470B600040FC5F0040C481FF1F09490220094A0A4B087092F822201A7E02F00302012A03D074
:40110000DA7E82F08002DA7601225A76704700BF0B600040FC5F0040C481FF1F0B4904200B4A0C4B087092F8322093F8242002F00302012A05D093F8272082F0800283F882
:401140002720012283F82520704700BF0B600040FC5F0040C481FF1F704700BFFFF712BB70B58C4C22792378D2B213F0800F637809D1DBB20A2B00F08E800B2B16D0092BDF
:4011800071D0002070BD013B052BFAD801A151F823F000BF3D120000231200001B1200008311000083110000C7110000012AE8D8A378012BE5D8A3787749DBB28B54BDE81A
:4011C0007040FFF761BF734CE378212B00F0C080E378222BD5D1714B18780138C0B200F039FF23796E49DBB200EBC300C95C42696C4B02EBC1025268D1690A46487812F853
:40120000021B41EA002119805A601B889BB2002BB7D0BDE87040FFF715BE012AB1D85E4B06E0012AADD85B4B9B78002BA9D15E4B5C491A4401230B804A60EAE7594D002243
:40124000564B2A8018780138C0B200F003FF5149CB780A79DBB2D2B2012A56D92B889BB2002B8ED0D5E74F4D00224C4B2A8018780138C0B200F0EEFEE3782279DBB2D2B2C9
:40128000012A1FD92B889BB2002B3FF47AAFBDE87040FFF7CBBE012A3FF673AFA37803F0FF05002B7FF46DAFE3783F48DBB23F498354845C8B5C9C4265D28D54BDE8704082
:4012C000FFF7E2BE364E591EB65C0229F6B2D9D800EBC202526903F1005302EBC6067168013BA27811F83300D2B2904201EBC303C8D3596802EB420292008B188A5A596883
:401300009B6869602A80AB60BCE7254E5C1EB65C022CF6B2A2D800EBC202526903F1005302EBC6067068013B8A7810F83310D2B2914200EBC30391D3596802EB420293007E
:40134000CA185068C95A936868602980AB6085E7124B18780138C0B200F07CFE23791049DBB200EBC300C95C42690E4B02EBC1025268516A0A781A8059601B889BB2002B5D
:401380003FF4FFAE45E78B5C012B97D9835CDBB28B5493E7006000403882FF1FBF81FF1F3082FF1FA881FF1F4082FF1F3C82FF1F00F078BE4F4B50491B78504A0978013BED
:4013C00002EBC1025268DBB2117C994240F2828002EBC3035B694A491A7A0878DB68C0B2002A00F08680511EC9B202312DE9F04703EBC101434D444E083300274FF0010E7B
:4014000002E008338B4263D013F8082C8242F8D12A5C13F8074C9442F3D113F8062C13F805CC02F07F024FEA420808EB020906EB8904E77013F806AC0CF0030C84F804A07B
:4014400013F805AC06F829A033F8049CA4F8089013F9069CB9F1000F3FDBBCF1010F0CBF4FF0050C4FF0090C84F805C06770DFF8A0C04FEA0219CC4442448CF802E006EBAD
:401480008202B2F80880214CC8F307288CF80080B2F808804C445FFA88F88CF80180B2F806C008335FFA8CFC84F806C0B2F806C08B42CCF3072C84F807C0B2F806C05FFA72
:4014C0008CFC84F804C0D288C2F3072262719BD1BDE8F08700231B7AFFDEBCF1010F0CBF4FF0070C4FF00D0C84F805C084F801E0BDE77047BF81FF1F9D81FF1FA42400006F
:40150000B481FF1F3082FF1FC481FF1F70600040FC5F00402DE9F043044689B04E4E03AD0FCE0FC533682B70002C00F09180222203232270637001A800F000FE9DF806103D
:401540009DF804509DF805000DF1200E01F00F089DF80720F04405F00F0700F00F060EEB151515F814CC764418F8145C0EEB10100EEB11110DF1200877449DF8083017F879
:4015800014EC16F8147C10F8146C11F8140C02F00F0108EB121212F8149C08AA02EB1312414411F8148C03F00F0312F8141C08AA1A44002384F802C02772A6712573A0720D
:4015C000A17484F804E084F8108084F80E90E3706371E3716372E3726373E3736374E37412F814EC9DF809009DF80A109DF80B2008AD00F00F0701F00F062F4405EB1010F6
:4016000005EB11110DF1200C2E4402F00F0565440CEB121216F8146C17F814CC12F8142C10F8147C11F8140C15F8141C84F814E06375E3756376E3766377E37784F821309A
:4016400084F818C0A7752677A07684F82010A27709B0BDE8F08300BF542400002DE9F04F594D00232B7085B0AB70EB702B81AB726B706B712B73AB73EB73AB82AB756B7351
:401680006B742B76AB76EB762B8485F822306B766B7785F8243085F8263085F82730AB8585F82E3085F8253085F8293085F8303085F8323085F833302B8785F83A3085F80A
:4016C000313085F8353085F83C3085F83E3085F83F30A5F8443085F8463085F83D3085F8413085F8483085F84A3085F84B30A5F8503085F8523085F8493085F84D3085F89E
:40170000543085F8563085F85730A5F85C3085F85E3085F8553085F8593085F8603085F8623085F86330A5F8683085F86A3085F8613085F8653028B12449254A0B70137097
:401740004B705370234B1B78002B00F0FD81214B214A1B7821491278013B01EBC2025268DBB2117C994240F2F28102EBC303D3F814A01B4ADAF804309AF808B0DB79012651
:4017800013F0400F1378DAF80C4014BF43F0010303F0FE0313700BF1FF33DBB203933344DB0001935346DFF8249000225FFA86FABBF1000F00F0D981019906EB46084FEA40
:4017C0008808671811E000BFC481FF1F3082FF1FA481FF1FBF81FF1F9D81FF1FA4240000C181FF1F0834BC423CD0A17801F07F0E7645F7D105EB080CBCF808E0A0881FFAB1
:401800008EFE864538BFACF80800207894F801E019F800008645E5D105EB08000171E17805F8081094F902E0E178BEF1000F01F00301C0F28F81012914BF09210521417103
:401840004FF000014170A17901F0F7010229C9D1204651460293FFF7F1F80834BC420246029BC2D1D9680136092E0C469ED1BBF1000F13D0039801F10802023001EBC00009
:4018800012F8063C12F8081C03F07F0303EB4303083205EB830382429972F1D1B64BB74A1B78B7491278013B01EBC2025268DBB2117C994240F2578102EBC3035B69002B5E
:4018C00000F0A2815A68127903EBC2035C6900236B82AB8AAB4E9AB2EA832B8CAA4813449AB26A85AB8D0C2113449AB2EA862B8F346013449AB2A5F84220B5F84430A34C66
:4019000013449AB2A5F84E20B5F8503013449BB2A5F85A30B5F85C2013449BB2A5F86630B5F8683001706B7C002B00F06981237C13F0800F964B06BF08229A7099706A8A57
:40194000914BD2B29A716A8A9248C2F30722DA716A8A0C21D2B21A716A8A8C4CC2F307225A7101706B7F002B00F04681237F13F0800F894B06BF08229A709970EA8B854BD4
:40198000D2B29A71EA8B8548C2F30722DA71EA8B0C21D2B21A71EA8B7C4CC2F307225A71017095F82930002B00F0228194F8283013F0800F7A4B06BF08229A7099706A8D4D
:4019C000764BD2B29A716A8D7648C2F30722DA716A8D0C21D2B21A716A8D6C4CC2F307225A71017095F83530002B00F0FD8094F8343013F0800F6C4B06BF08229A709970F8
:401A0000EA8E684BD2B29A71EA8E6848C2F30722DA71EA8E0C21D2B21A71EA8E5B4CC2F307225A71017095F84130002B00F0D88094F8403013F0800F5D4B06BF08229A700E
:401A40009970B5F84220594BD2B29A71B5F842205848C2F30722DA71B5F842200C21D2B21A71B5F84220494CC2F307225A71017095F84D30002B00F0AF8094F84C3013F0DB
:401A8000800F4D4B06BF08229A709970B5F84E20484BD2B29A71B5F84E204848C2F30722DA71B5F84E200C21D2B21A71B5F84E20364CC2F307225A71017095F85930002B9D
:401AC00000F0868094F8583013F0800F3C4B06BF08229A709970B5F85A20384BD2B29A71B5F85A203748C2F30722DA71B5F85A200C21D2B21A71B5F85A20244CC2F30722E1
:401B00005A71017095F865308BB394F8643013F0800F2D4B0ABF082299709A70B5F86620284BD2B29A71B5F866202849C2F30722DA71B5F86620FF20D2B21A71B5F8662043
:401B4000C2F307225A71087005B0BDE8F08F00235B68FFDE012914BF0D21072141714FF0010141706FE60024B1E621467BE6164B80229A70D2E700BFBF81FF1F9D81FF1FBA
:401B8000A4240000B881FF1F80600040C481FF1F0C600040906000401C600040A06000402C600040B06000403C600040C06000404C600040D06000405C600040E06000407B
:401BC0006C600040F06000407C6000400A6000400E4B80229A707EE70D4B80229A7055E70C4B80229A702CE70B4B80229A7007E70A4B80229A70E2E6094B80229A70BDE667
:401C0000084B80229A709AE61C4660E66C6000405C6000404C6000403C6000402C6000401C6000400C60004070B5A44AA44C13780021DBB221801906527816D4013A0A2A5A
:401C400011D8DFE812F06500100098001000C900100010001000D20010002D00974B1A79012A40F27F81002070BD0A2AFBD801A151F822F0F91E0000671C0000671C00004D
:401C8000671C0000671C0000671C0000491E0000671C00002F1F0000671C0000331E0000864B8848884C1A79884903782478013B01EBC4014968DBB20C7CD2B29C4240F258
:401CC0003E8101EBC3035B695B681B79934201D2022AC8D87E497F4D8B5C784CDBB2AB54A3787D4EDBB28B5423792279DBB2D2B23270EA5CCB5C9A4206D0784B01221A704F
:401D00000378002B40F01E81BDE87040FFF7BCB903F00303012BA1D0C0F03B81022BA2D1664A937803F0FF01002B9CD1137903F07F035A1E072A96D8694A03EB430002EB9D
:401D400080029078674C00F0FE009070D17021461B017F251D555078194400F0FD00507010795378020600F15381012B0CBF082309238B70C8E703F00303012B3FF46EAFFE
:401D8000C0F01581022B7FF46EAF4C4A937803F0FF01002B7FF467AF137903F07F035A1E072A3FF660AF4E4A03EB430002EB800290781B0140F001009070D170517841F022
:401DC00002015170127912F0800F464A1A4414BF8D238923937097E7384B434A9B78DBB21370BDE87040FFF74FB9344B9B7803F0FF028BB1344B35491878531E01EBC00172
:401E00004968DBB2087C98427FF62DAF01EBC3035B69002B3FF427AF2A4B19788A423FF473AF01212D4C08461A702170FFF716FC6AE70122214B22801B79254A1344636039
:401E4000BDE87040FEF7FEBF1C4BDA78012A00F09280DA78022A00F0BC80DA78032A40F0B4809A78002A00F0DE80204A117859B11946002301E0107830B1157801338878D4
:401E8000DBB298422A44F6D80C4B19489D789978EE2D08BF024629B116499B78097C994200F0BC801378002B3FF4DDAE137823806260BDE87040FEF7C5BF00BF006000400E
:401EC000A881FF1FBF81FF1F9D81FF1FA42400003082FF1FA481FF1FB481FF1FBC81FF1FC481FF1FFC5F0040BE81FF1F44250000902400002826000013F0030325D0022B87
:401F00007FF4B1AE494A23801379494A03F07F0303EB430302EB83039A78464BD2B200211A7059706360BDE87040FEF78BBF424B012222806360BDE87040FEF783BF0023A8
:401F40005B68FFDEFFF736FADEE602213B4A21801178384AC9B2117053706260BDE87040FEF770BF98781B793549DBB2CA5C22EA0002CA54C8E6334A334B1178122203EB34
:401F8000C1035B685B6863602280BDE87040FEF759BF264B9B78012B7FF465AE274A137803F0FD031370BDE87040FFF76DB81F4B9B78012B7FF457AE204A137843F00203AA
:401FC0001370BDE87040FFF75FB8BDE8704000F06DB91C499B781C4A0978DBB202EBC1025268117C99427FF63EAE02EBC3035B69002B3FF438AE5B6863606368DA78636849
:402000009B7843EA02232380BDE87040FEF71ABF012B0CBF0C230D238B7075E60B48FFF779FA0A4A3EE70A4A2EE700BF00600040C481FF1F8081FF1FBF81FF1FC181FF1F8C
:402040003482FF1F9D81FF1FA42400004482FF1F44250000064B074A1B7802EBC30253681A7C824286BF03EBC0035869002070479D81FF1FA4240000074B1A78120601D4DC
:40208000002070475B78012BFAD1044A044B11785A601980FEF7D6BE0060004068240000A881FF1F024B1878C0F38010704700BF8F450040B0F5004F70B506461AD90446BE
:4020C0000D4DA4F50044686800F0C6F8B4F5004FF7D8A6F50043013B23F4FF4323F07F03A6F50046F61AA86800FB06F0BDE8704000F0B2B8004DF6E7E880FF1F024B1B782B
:4021000000FB03F000F0A8B8E880FF1F054B00F01F001A6800F1100352F8230042F82310704700BF08ED00E000F01F0000F16040490100F56440C9B20170704710B4144B88
:40214000144A1B781449DBB203601478023243EA042303600C78114943EA0443036012F8044C043143EA0463036011F8043CDBB2436012F8064C43EA04234360097810BC56
:4021800043EA01434360127843EA0263436070470301004904010049EC46004001010049044A137803F07F0343EAC010C0B21070704700BF20510040044A4001137800F0CF
:4021C000200003F0DF0318431070704700510040044A8001137800F0400003F0BF0318431070704700510040044A137803F07F0343EAC010C0B21070704700BF0051004021
:40220000044A8000137800F0040003F0FB0318431070704710510040014B1A7818707047C0510040044A0001137800F0100003F0EF0318431070704710510040044A40013E
:40224000137800F0200003F0DF031843107070471051004000000000142816D902B4012114381049097811F0C001890904B40E4A515C04BC00BF00BF00BF8841FDD500BF2A
:4022800000BF02BC704700BF00BF70F10400FCD570470B050709EFF3108072B6704780F3108870470048004092220000134A137803F00303012B1CD0022B09D00023104A94
:4022C0001268D35C022B12D0032B15D1FEF748BF13790C4A03F07F0303EB430302EB8303074A9B7A1268DBB2D35C022BECD1FEF7EFBA1379DBB2E2E700207047006000409B
:40230000B881FF1FC481FF1F014B1868704700BF5881FF1F0E4B70B51E460E4C0025E41AA410A54204D056F8253098470135F8E700F084F9084B094C1E46E41AA4100025F5
:40234000A54204D056F8253098470135F8E770BD4826000048260000482600005026000003460244934202D003F8011BFAE7704700000000405100403000000001400010E7
:4023800000140140000800400140000A004C0140000200500140200001450040035200400217014002190140034001400541014003420140034301400447014008480140EF
:4023C00003490140024C0140015101407E02180119017C40EA02EE0AEA02EE0A33813640CC7052809F01A640A780D4209F01A6C0A7809F01A6C0A78008080B040F40C20E86
:4024000023802680A680AE40AF81C860EA40EE505F809B80D620AC08AF44002A00E2E2000200000000FFFF00000000004000000000000000C0000000003F3F00000000007C
:4024400000808000000000000001010001000000040014013031323334353637383941424344454600000000280000000001040001000000000000000001435955534200E9
:402480000000303030303100000000000000000012034D005300460054003100300030000100000001000000AC240000010000002826000000000000000000000100000029
:4024C000C424000001000000E425000003000000F02400000000000000000000000000000000000000000000EC240000020A000000008102080002000100820140000A005C
:402500000100030240000A00320005010902A1010901A100050919012903150025019503750181029501750581010501093009311581257F750895028106C0C0000000003B
:4025400002030000040309042C0343007900700072006500730073002000530065006D00690063006F006E0064007500630074006F00720038034300440043002000430043
:402580006F006D006D0075006E00690063006100740069006F006E00200049006E0074006500720066006100630065002603430044004300200044006100740061002000AA
:4025C00049006E007400650072006600610063006500100355005300420055004100520054000000090243000201018096090400000102020002052400010004240202053A
:402600002406000105240100010705810208000009040100020A0000030705820140000107050302400000001201000202000008B40432F20100010480014300F8B500BF3E
:40264000F8BC08BC9E4670474D00000001050000F8B500BFF8BC08BC9E4670472900000070260000C880FF1F98000000080100000000000000C2010000000800C201000021
:4026800000080000A120000000000200000000002E0000000000D859B0B3000080E7BD02000000000000000000000000000000000000000000000000000000000000000067
:4026C0003A2600000000000000000000000000000000000000000000000000000000000000000000000000000000000000000000000000000000000000000000000000007A
:40270000F880FF1F00000000000000000000000000000000000000000000000000000000000000000000000000000000000000000000000000000000000000000000000003
:402740000000000000000000000000000000000000000000000000000000000000000000000000000000000000000000000000000000000000000000000000000000000059
:402780000000000000000000000000000000000000000000000000000000000000000000000000000000000000000000000000000000000000000000000000000000000019
:4027C00000000000000000000000000000000000000000000000000000000000000000000000000000000000000000000000000000000000000000000000000000000000D9
:402800000000000000000000000000000000000000000000000000000000000000000000000000000000000000000000000000000000000000000000000000000000000098
:0200000480007A
:0200000490006A
:0400000000004005B7
:0200000490105A
:04000000BC90ACAF55
:0200000490303A
:0200000080037B
:0200000490402A
:4000000000000000000000000000000000000000000000000000000000000000000000000000000000000000000000000000000000000000000000000000000000000000C0
:400040000000000000000000000000000000000000000000000000000000000000000000000000000000000000000000000000000000000000000000000000000000000080
:400080000000000000000000000000000000000000000000000000000000000000000000000000000000000000000000000000000000000000000000000000000000000040
:4000C0000000000000000000000000000000000000000000000000000000000000000000000000000000000000000000000000000000000000000000000000000000000000
:0200000490501A
:0C00000000012E16106900012E24906CE7
:00000001FF