:4000000000800020110000000D0400000D04000008B5044B1A6803F53F5302331A6000F0FDF900BFFA46004010B5054C237833B9044B13B10448AFF300800123237010BD5F
:400040006881FF1F0000000028210000084B10B51BB108490848AFF300800848036803B910BD074B002BFBD0BDE81040184700BF000000006C81FF1F28210000C880FF1F30
:400080000000000008B50121002000F04BFB00F087FB20B100F07EFB08B100F041FD08BD08B500F07DFB20B100F074FB08B100F037FD08BD08B500F06DFB28B100F0D6FD0B
:4000C00010B10122014B1A7008BD00BF8481FF1F08B5FFF7D7FF08BD0122014B1A7070478581FF1F38B50F4C237843F0800323702378DBB20C4D2B600C4B1870237803F0D8
:400100007F0323702378DBB2094A13600A2001F081FE237843F0800323702378DBB22B6038BD00BF005100408C81FF1F205100401082FF1F08B5002001F062FF0A2001F070
:4001400047FE012001F05CFF0A2001F041FE08BD08B5012001F042FF012001F033FF012001F024FF012001F04BFF002001F012FF002001F003FFFF2001F03CFF08BD00BFC5
:4001800008B59F20FFF7AEFFBF20FFF7ABFFDF20FFF7A8FFFF20FFF7A5FFFFF7D9FFFFF7C9FF08BD08B5FFF7EBFF62B6FFF790FF08BD00BF08B5FFF7F5FF0A4801F02CFF28
:4001C00000F060FD0028FBD0074800F0F7FC074B1B78002BFDD0064800F060FD0022034B1A70FEE7D90000002C2100008481FF1F9081FF1FF8B572B66F4A137843F004036B
:4002000013706E4D00242F46264604EB4403AA88314657F8130001F07FFF01340635062CF3D1674F0026DFF8E0E157F8043F23F0FF0413F0FF0511D006F1105000F11A03FC
:400240005B00013DEDB21B30284440001A785978115502338342F9D101362E447745E4D10023584A1360083213600832136002F55942F332137843F002031370103213784C
:4002800043F002031370A2F57F42113A4E4B03CB10605160C03203CB106051604B4C93E8070003C422804A4A0C3303CB10605160103203CB10605160103203CB10605160D1
:4002C000A2F56162137843F0080313706122414B1A700C22A3F5F0631A80182502331D70052202331A8002331D7040F2124202331A8002331D70062203F276231A7052228A
:40030000A3F580731A70344B1B78DBB2334A137040F61732324B1A8041F25122023B1A8005331C7804F001044FF4F07001F088FE2C4F4FF4F0760BE03B7803F0010343EA31
:40034000440404F00304304601F07AFE013D02D0032CF1D100E0FEE7234A4FF48073138007231370002321490B7048200231087013700532137002221D4B1A701D4A137852
:4003800043F007031370C122124B1A701A4B1B78DBB203F00701194A11701B09013213704422174B1A70A3F5A653163B154C0FCB07C42380F8BD00BFE84600403021000065
:4003C000FCFFFF470076004088000048F051004012510040004800400F010049A14600402242004025420040044000400640004001400040A2430040CF0100496E580040F0
:4004000076580040B04300403000004808B501F057FE03680C2B00D1FEE7FEE780B5144F07B3144E0025B64656F8102C56F80C0C56F8084C4CB1043A034652F8041F43F830
:40044000041B191AA142F8D100E003465EF8040C28B11A4642F8045BD11A8142FAD11036013FE0D101F032FEFFF7A4FEFEE700BF010000005C23000010B5114A114B1A609A
:40048000114A136843F400731360104A00231048104C032B94BF54F82310014642F8041F0133302BF5D10C4B1A780C4B1A700C4A0C4B1A60FFF79EFE01F0B2FB10BD00BF72
:4004C0000004FA050CED00E014ED00E0FC7FFF1F0D04000000000000BC760040C080FF1F0080FF1F08ED00E0F8B501F0B1FD0546484A137843F0010313701032137843F0E4
:40050000010313700127444B1F700226943B1E7002F5E2521B32137803F07F031370002001F078FC3D4C237803F0F90323703C4A137803F0DF03137023783B4323703846B0
:4005400001F068FC282001F065FC364B1A7802F07F021A701A7802F0BF021A70237833432370304601F056FC237843F00403237000232D4A1370013213702C4B03F10901A0
:40058000FF2203F8012F8B42FBD1284601F064FD0721172001F056FC2549172001F044FC0721182001F04EFC2249182001F03CFC0721152001F046FC1F49152001F034FC69
:4005C0000721002001F03EFC1C49002001F02CFC0721012001F036FC1949012001F024FC0721022001F02EFC1649022001F01CFC0021162001F026FC1349162001F014FCFE
:4006000007210C2001F01EFC10490C2001F00CFCF8BD00BFA54300409D6000409443004012600040F8510040846000401F82FF1F451200004110000041120000991100002A
:40064000C9110000011200004D120000FD12000008B5264B18700023254A1370254A1370254A1370254A1370254A1370254A1370254A1370254B4FF400021A604FF0807248
:400680001A604FF400121A6001221A6002221A6004221A6007201E4A10704FF480021A6020221C4B1A7011B1012906D00BE01A4A137803F0FE0313700AE0174A137843F079
:4006C0000103137004E0144A137843F0010313700322124B1A708022203B1A70012001F0AFFC04220E4B1A7008BD00BF4582FF1F4882FF1F6482FF1F6782FF1F5C82FF1F3B
:400700006682FF1F6982FF1F4482FF1F00E100E09E6000409C60004009600040286000401260004038B504460D46064B1B7823B9FFF7DAFE0122034B1A7029462046FFF78A
:4007400087FF38BD8681FF1F00230A4A13700A4A13700A4A13700A4A13700A4A13700A4A13700A4A13700322094B1A708022203B1A7070474882FF1F6482FF1F6782FF1FA1
:400780005C82FF1F6682FF1F6982FF1F4482FF1F28600040014B1878704700BF6782FF1F064B1B7813F0FF0F05D0044B1878C0B200221A7070470020704700BF6482FF1F11
:4007C00000EB4000024B03EB80004078704700BF6C82FF1F431EDBB2072B0BD80001064BC218C05C00F00F00537843EA0020023880B2704700207047FC5F004010B50446D3
:4008000000EB4003184800EB8300037913F0800F19BF0A0C4FF480430B0C4FF48042022C0AD0032C0FD0012C14D10021084601F087FB0E4B185511E00021084601F062FB20
:400840000A4B18550AE00021084601F03DFB074B185503E0631EDBB2072B03D801F07CFA034B185510BD00BF6C82FF1F1482FF1F2082FF1F2DE9F843431EDBB2072B6DD893
:4008800004460E46154600EB4003354A02EB8303DB889BB2C3F500739D4207D900EB400302EB8303DD88C5F50075ADB204EB44032B4A02EB8303DB7843EA15234FEA0418C6
:4008C000284A08EB020708F80230EBB27B70264B1B5DFF2B03D131462046FFF78FFF04EB44031F4A02EB830300225A7076B36DB31E4F385D01F0C6F9DFF86C901123FE2268
:40090000294619F8040001F041FA22010832184D2A4492B2B1B219F8040001F04BFA19F80410385D01F0EAF90121385D01F08EF918F8053043F0020308F8053018F8053031
:4009400003F0FD0308F80530BDE8F88304EB4404034B03EB84046379DBB2BB70BDE8F8836C82FF1FFC5F00402082FF1F1482FF1F706000402DE9F047002945D00446154625
:400980008846431EDBB2072B40D8FFF723FFA84203D22046FFF71EFF05461E4B1B5DFF2B03D141462046FFF729FFDFF8709019F8040001F067F9DFF85CA01223FE222946D8
:4009C0001AF8040001F0E2F9270107F10801124E314489B21FFA88F21AF8040001F0EAF91AF8041019F8040001F088F9012119F8040001F02BF9BB5D43F00203BB55BB5DEE
:400A000003F0FD03BB5502E0002500E000252846BDE8F0872082FF1F706000401482FF1F431EDBB2072B0BD800EB4002054B03EB820300225A705A79D2B20001024B1A54A7
:400A4000704700BF6C82FF1FFE5F00400C4B1B7803EB43030B4A02EB83039B7A014683420CD0074B5B7803EB430302EB8303987AC0B2884214BFFF200120704700207047B9
:400A80003482FF1F6C82FF1F10B5204C2079FFF7DDFF237813F0800F0ED06378DBB2212B2FD11B4B07221A80C0EBC000194A1044586000F025FB10BD144B5B78DBB2202B11
:400AC00002D0222B10D01EE0114A07231380C0EBC00310490B4453600F4A135C43F00103135400F035FB10BD084B9B780B4A22F81030094A135C43F00203135400F0CEF998
:400B000010BD002010BD002010BD00BF006000405082FF1FCC80FF1F2C82FF1F4082FF1F08B50023204A1370204A13705370204B1878C0B2431EDBB2072B01D8FFF770FF61
:400B40001B4B5878C0B2431EDBB2072B01D8FFF767FF184B1B7813F0FF0F1BD0144B1B7813F0FF0F18D0144B1B7813F0FF0F15D0104B1B78DBB2082B12D80D4B1B78DBB2A3
:400B8000082B0FD80C4B1878C0B2082894BF0020012008BD012008BD012008BD012008BD012008BD012008BD8781FF1F2C82FF1F3882FF1F3082FF1F3482FF1F2DE9F84FF0
:400BC0008046274B1B78274A12F803A05FFA8AFA03783BB100240134A4B218F80430002BF9D100E0002400265546DFF87C900AEB4A0709EB87073B899BB29C4227D9B7F8D2
:400C000008B01FFA8BFB5A4608EB06012846FFF731FECBEB0404A4B234B95C463B899BB2A3421BD1A34600245E44B6B205EB450209EB8202537813F0FF0FFBD0002CDAD167
:400C4000002211465046FFF715FEBDE8F88F224608EB06012846FFF70DFEDFE7BDE8F88F8781FF1F3082FF1F6C82FF1F08B5034B1B78034AD05CFFF7A3FD08BD8781FF1FD3
:400C80003882FF1F08B5034B1B78034AD05CFFF797FD08BD8781FF1F3082FF1F38B50D4B1B780D4AD45CE4B204EB44020B4B03EB82031A8992B201462046FFF75BFE0546DF
:400CC0002046FFF77DFD0128FAD02046FFF7A8FE284638BD8781FF1F3882FF1F6C82FF1FC37803F0030390F9020000280FDA032B06D002F001030B48C15442F001020EE067
:400D0000C2F380030848C15442F0040207E0032B05D0C2F340030548C15442F002021046704700BF3082FF1F3482FF1F3882FF1F10B4244B1978244A13880B449BB2138020
:400D4000224B1B889BB2002B33D000211F4B204C5A681278D2B262545A6801325A604A1CD0B21A88013A92B21A801A8892B212B101310829ECD1134B1B78DBB2082B02D0CD
:400D800068B100E00020134A137883F0800313700F22114B1A700222104B1A7004E002230D4A13700D4A13700D4B1870054B187006E0044B1B78DBB2082BE3D00020EEE7F4
:400DC00010BC70474482FF1F4682FF1F5082FF1F00600040DA82FF1F6582FF1F4882FF1F6882FF1F0222074B1A708022064B1A700F22064B1A700023054A1370054A137057
:400E0000012070474882FF1FDA82FF1F6582FF1F4482FF1F6882FF1F30B4194B197801F00F010239C9B2174A13880B449BB21380154B1B889BB2BBB1B1B10020124B134CD2
:400E40005D68C2B2A25CD2B22A705A6801325A600139C9B21A88013A92B21A801A8892B212B101300029EBD1094B1970094A137883F0800313700B22074B1A7030BC70475F
:400E8000296000404682FF1F5082FF1F006000406882FF1FDA82FF1F6582FF1F0623064A1370064A13708022054B1A700022054B1A700120704700BF4882FF1F6582FF1FA1
:400EC000DA82FF1F6882FF1F064B9B6843B1054B9A6810709A6804490988518000229A60704700BF5082FF1F4682FF1F08B5134B1A78D2B21A701B78DBB213F0800F02D0FE
:400F00000F4A137008BD0220FFF7DEFF0D4B1B7803F06003202B05D0402B06D043B900F0B3FC06E001F09CF803E000F065FE00E0002010B90322024B1A7008BD28600040EB
:400F40006582FF1F0060004008B5084B1978084A13880B449BB213800022064B1A700120FFF7B2FF0322044B1A7008BD4482FF1F4682FF1F4882FF1F6582FF1F08B50B4BBD
:400F80001B78DBB2042B06D0062B07D0022B0BD1FFF7DAFF08BDFFF73FFF08BD0320FFF793FF0322024B1A7008BD00BF4882FF1F6582FF1F08B50022044B1A700120FFF787
:400FC00083FF0322024B1A7008BD00BF4882FF1F6582FF1F08B50B4B1B7813F0FF0F07D0084A137843F0800307490B70002313700022064B1A700120FFF766FF0322044B83
:401000001A7008BD6682FF1F086000404882FF1F6582FF1F08B5094B1B78DBB2042B06D0062B07D0022B07D1FFF782FE08BDFFF7C1FF08BDFFF7CEFF08BD00BF4882FF1F9E
:4010400008B5214B1B78DBB213F0100F3BD013F0800F0BD003F00F03012B34D1FFF746FF1A4B1B7813F0800F0BD008BD13F0400F02D0FFF7CFFF04E013F0200F23D0FFF70B
:401080007DFF114B1B7813F0800F1CD1104B1B78104A12781343104A13701278D2B2934211D10A4908480B78DBB2027812F0800F05D10B78DBB20370037803F00F030A7863
:4010C000D2B29342EFD108BD286000406582FF1FDA82FF1F6882FF1F296000400022064B1A80064B9B682BB1044A916800230B7092685380704700BF4682FF1F5082FF1FBF
:4011000008B50F4B1B889BB213B9FFF76BFE15E002220C4B1A7000220B4B1A70FFF7DEFF0A4AD179937943EA0123054A128892B293423CBF024A1380FFF7FAFD012008BD04
:401140005082FF1F4882FF1FDA82FF1F0060004008B504220B4B1A7080220B4B1A70FFF7BDFF0A4AD179937943EA0123084A128892B293423CBF064A13800B22054B1A70A1
:40118000012008BD4882FF1FDA82FF1F006000405082FF1F6582FF1F0122094B1A700F3B9B7C084B1B7B03F00303934204D0054AD37B83F08003D3730122024B5A73704798
:4011C0000B6000406C82FF1F08B5FEF769FF0222094B1A700F3B93F82230084B1B7E03F00303012B04D0054AD37E83F08003D3760122024B5A7608BD0B6000406C82FF1F75
:4012000008B504220C4B1A700F3B93F832300B4B93F8243003F00303012B06D0074A92F8273083F0800382F827300122034B83F82520FEF73FFF08BD0B6000406C82FF1FAA
:40124000704700BF08B5FFF77FFA08BD274B1B78002B49D02DE9F04103F0FF000123244F244E4FF0000EDFF890C010F0010F35D019461C01E519AA7895F8018008EA020253
:4012800012F0010F18D003EB430806EB880898F8048018F0800F0FD014F8078008F0FE0804F8078003EB430406EB84046479E4B20CEB031888F8024012F0020F0DD001EB0B
:4012C000410406EB8404247914F0800F05D101EB410106EB810181F801E0AA700133DBB24008C2D1BDE8F081704700BF9F600040706000406C82FF1FFC5F004008B500F04A
:4013000087FC08BD70B588B0044603AD144E0FCE0FC533682B7004B3222323700323637001A800F099FD0DF10305234604F12000002115F8012F08AC04EB121414F8144CF7
:401340009C70D97002F00F0208AC224412F8142C1A71597104338342EBD108B070BD00BF542100002DE9F0470123274D0C264FF01F0E264C264F4FF0800C4FF008081A46A7
:40138000190148194E5580F801E003EB430104EB8101497911F0FF0F0DD003EB430104EB8101097911F0800F07EB031114BF8E7081F8028003E007EB031181F802C04FEA81
:4013C000420909EB020104EB8101B1F806A05FFA8AFA80F806A0B1F806A0CAF3072A80F807A0C988C9B201714A4404EB8202D288C2F3072242710133092BC0D1FF22054B00
:401400001A70BDE8F08700BF706000406C82FF1FFC5F00400A600040064B1B78064A02EBC30253681A7C824286BF03EBC0035869002070474582FF1F682100002DE9F84F92
:40144000494B1B7813F0FF0F00F08C80464B18780138C0B2FFF7E0FF017AC468434B1A78D2B200297ED004F108030139C9B2023104EBC104DFF8FCE03D4F4FF00009DFF8DB
:40148000F8804FF0010A13F8081C914267D11EF80210C9B213F8075C8D4260D113F8061C01F07F0113F8055C05F0030501EB410C07EB8C0686F8039013F806BC86F804B04B
:4014C00013F805BC07F82CB033F804CCA6F808C013F9060C002807DA012D0CBF07250D25757186F801A00AE0012D0CBF0525092501EB410007EB8000457180F801900801BF
:4015000000EB080B8BF802A04E00751807EB8505B5F808C0CCF3072C00F808C0B5F808C05FFA8CFC8BF801C0B5F806C05FFA8CFC00F1804000F5C040703080F806C0B5F8EB
:4015400006C0CCF3072C80F807C0ED88EDB20571314407EB8101C988C1F3072141710833A34290D1BDE8F88F6782FF1F5C82FF1F6C82FF1FD882FF1FFC5F004008B5074B44
:4015800018780138C0B2FFF747FF28B14268127900EBC203586908BD002008BD6782FF1F2DE9F04F85B00021634D0B464A00561805EB860405F82630A370E3702381A37234
:4015C0006370637101310929F0D130B15B4900230B705B4A13704B7053705A4B1B7813F0FF0F00F0A580574B18780138C0B2FFF713FF82464368DB7913F0400F524A1378D3
:4016000014BF43F0010303F0FE03137090F808B00BF1FF33DBB203930133DB00029301250022DFF81481DFF81491EBB20193DAF80C40BBF1000F46D0029BE61805EB4507CD
:4016400008EB8707A37803F07F03AB4238D105EB450308EB83031B899BB2A1888B4204D205EB450308EB83031981237819F80330DBB26178994223D1A3783B71E3783B70C9
:40168000E37803F0030394F90210002907DA012B0CBF07230D237B7101237B7006E0012B0CBF052309237B7100237B70A37903F0F703022B04D101992046FFF711FB024661
:4016C0000834B442BED10135092DAED1DAF80C30BBF1000F14D003F108020398023003EBC000154C12F8063C03F07F0312F8081C03EB430304EB8303997208329042F1D146
:40170000FFF73CFF114B1860012100230A4C4A00501804EB8000C380028913449BB203F0010213449BB201310929F0D1FFF71AFE05B0BDE8F08F00BF6C82FF1FD882FF1F8D
:401740004C82FF1F6782FF1F6982FF1F6082FF1F08B5134B1B7903F07F035A1ED2B2072A1CD803EB43020F4901EB8202917841F0010191700021D170517841F002015170D0
:40178000127912F0800F4FEA0313074A1A4414BF8D2389239370FFF781FB08BD002008BD006000406C82FF1FFC5F004038B5204B1B7903F07F035A1ED2B2072A35D803EBF1
:4017C00043021C4901EB8202917801F0FE0191700021D170180118494518445C04F07F044454517801F0FD015170127912F0800F0CD003EB43030F4A02EB83035B78DBB21C
:40180000012B0CBF0C230D23AB700BE003EB4303084A02EB83035B78DBB2012B0CBF08230923AB70FFF73AFB38BD002038BD00BF006000406C82FF1FFC5F004010B50E4B31
:401840001C79E4B20D4B18780138C0B2FFF7E4FD43681B79A34201D2022C0AD8084A135DDBB208490B55044B9B78DBB21355012010BD002010BD00BF006000406782FF1F34
:40188000D882FF1F4C82FF1F10B59A4B1B78DBB20021994A118013F0800F00F0BD80954A5278D2B20A2A00F28381DFE812F07900810181018101810181010B008101A20054
:4018C0008101AA008B4BDB78DBB2012B0DD18B4B1A788B4B03EBC2035B685A68864B5A6012221A80FFF70CFC10BD824BDB78DBB2022B13D17F4B9878FFF78EFD002800F031
:40190000598142687C4B5A605A68D1785A68927842EA01221A80FFF7F3FB10BD754BDB78DBB2032B39D1734B9B7813F0FF0F14D0744B1B7813F0FF0F11D00023714A6D48BC
:4019400011780A440133DBB28178C9B2994207D9117811F0FF0FF3D102E06A4A00E0694A644B9B7813F0FF0F0BD0624B9B78DBB26549097C994204D1644C2046FFF7C2FC73
:401980002246137813F0FF0F00F0168113785A490B804A60FFF7B4FB10BD00F061FB10BD13F0030317D0022B40F0088152490B80504B1B7903F07F0303EB4303544A02EB4F
:4019C00083039A78D2B2534B1A7000225A704B60FFF796FB10BD484902230B804E4B1A78D2B24C4B1A7000225A704B60FFF788FB10BD414B01221A80484A5A60FFF780FBC4
:401A000010BD3D4A012313803A4B1B7944490B445360FFF775FB10BD364A5278013A0A2A00F2CE80DFE812F04900CC009700CC000B00CC00CC00CC001300CC002E002D4B92
:401A40009B78DBB2374A1370FFF728FA10BD294B9B7803F0FF0433B1601EC0B2FFF7DCFC002800F0AF802D4B1B78DBB29C4206D02A4B1C7001202C4B1870FFF791FDFFF790
:401A80000DFA10BDFFF7DAFE002800F09D80194A1379DBB21279D2B224490A70244AD25C1F49C95CD3B28B4204D001221E4B1A70FFF7C4FCFFF7F2F910BD03F00303012BEF
:401AC00038D053B1022B40F081800A4B9B7813F0FF0F7DD1FFF76AFE10BD064B9B78DBB2012B77D10C4A137803F0FD031370FFF7D5F910BD006000405082FF1F4582FF1FC8
:401B000068210000D0210000B4220000E082FF1F6C82FF1F8881FF1F6982FF1F6782FF1FD882FF1F6682FF1F6482FF1F5C82FF1F4C82FF1F2D4B1B79DBB2012B4CD82B4BC9
:401B400098781B79DBB22A49CA5C22EA0002CA54FFF7A4F910BD03F00303012B17D04BB1022B3BD1214B9B7813F0FF0F38D1FFF7EFFD10BD1D4B9B78DBB2012B32D11D4AE8
:401B8000137843F002031370FFF788F910BD174B1B79DBB2012B27D8144B98781B79DBB21349CA5C22EA0002CA54FFF777F910BD002010BD002010BD002010BD002010BDC8
:401BC000002010BD002010BD002010BD002010BD002010BD002010BD002010BD002010BD002010BD002010BD002010BD00600040DC82FF1F6982FF1F044B1B7813F0800F1D
:401C00001CBF024B5B780020704700BF00600040024B1878C0F38010704700BF8F450040074A7F23137080215170064A013BDBB202F80839002BF9D10022034B1A707047F7
:401C4000E880FF1FF87B004000780040172815D831B103010A495A5C42F020025A5405E0030107495A5C02F0DF025A540001044A835C43F0010383540020704701207047FB
:401C80001070004017280BD80001064BC25C02F0FE02C254C25C02F0DF02C25400207047012070471070004017280BD80001064A835C490001F00E0103F0F10319438154A1
:401CC00000207047012070471070004041F6FF73994208BF4FF400519A4208BF4FF40052172808D8C00000F1804000F5EC408180C280002070470120704700BF172805D8E0
:401D0000034B03EB0010417200207047012070471070004017281BD810B4C00000F1804404F5EC4401F07F0141EAC211C9B2217003F00F039DF8042043EA0213DBB26370C6
:401D40009DF8083003F00F03A3700020E07001E00120704710BC704710B500F079F90A4B5B78182B0BD9084A1478013B5370E30003F1804303F5F0431B78137000E0FF24A1
:401D800000F06AF9204610BDE880FF1F10F0800F0CD111F4704F0BD1C00000F1804000F5F04001808270C37000207047012070470120704710F0800F08D1C00000F180406F
:401DC00000F5F0408180C280002070470120704770B50646B0F5004F13D904460C4D286800F02EF9A4F50044B4F5004FF7D8A6F50043013B23F4FF4323F07F03A6F50046A4
:401E0000F61A034B586800FB06F000F019F970BDF080FF1F08B5034B1B7A00FB03F000F00FF908BDF080FF1F00F01F0000F11003034A126852F8230042F82310704700BFD3
:401E400008ED00E000F01F0000F1604000F564404901C9B201707047134B1B78DBB20360124A127843EA02230360114A127843EA024303600F4A127843EA026303600E4B00
:401E80001B78DBB243600D4A127843EA022343600B4A127843EA024343600A4A127843EA02634360704700BF0301004904010049EC4600400201004901010049000100491E
:401EC0000501004906010049F0B583B016461F460B4C022525700023019300930A4601462846FFF717FF3A4631462078FFF7EEFE29462078FFF7D8FE207803B0F0BD00BF41
:401F00000081FF1FF0B583B016461F460B4C012525700023019300930A4601462846FFF7F9FE3A4631462078FFF7D0FE02212078FFF7BAFE207803B0F0BD00BF0181FF1F08
:401F4000F0B583B016461F460B4D00242C700194009423460A4601462046FFF7DBFE3A4631462878FFF7B2FE02212878FFF79CFE287803B0F0BD00BF0281FF1F044A137889
:401F800003F0FE0300F0010018431070704700BFF0510040044A137803F0FE0300F0010018431070704700BFC0510040044A1378400000F0020003F0FD030343137070478C
:401FC000F0510040044A1378800000F0040003F0FB03034313707047C0510040044A1378C00000F0080003F0F703034313707047C0510040014B1A78187070472051004034
:40200000044A1378000100F0100003F0EF03034313707047C05100400823064A136002F688321268D0640021034A1170A2F203321360704780E100E003E400E000000000D8
:402040000230800803D000BF01380046FCD17047EFF3108072B6704780F31088704700BF08B5144B1B7803F00303012B02D0022B04D00FE00F4B1B79DBB20CE00D4B1B7956
:4020800003F07F0303EB43030B4A02EB83039B7ADBB200E00023022B07D8084A1268D35C022B04D1FEF7F0FC08BD002008BD002008BD00BF006000406C82FF1F6082FF1F26
:4020C000014B1868704700BF6481FF1F0E4B70B51E460E4C0025E41AA410A54204D056F8253098470135F8E700F01EF9084B094C1E46E41AA4100025A54204D056F82530EE
:4021000098470135F8E770BD3423000034230000342300003C23000003460244934202D003F8011BFAE770470000000000000000405100403000000001400010001401408E
:40214000000800400140000A004C014000020050014020003031323334353637383941424344454600000000010000007021000001000000B4220000000000000000000081
:402180000100000088210000010000007022000003000000B42100000000000000000000000000000000000000000000B0210000020A00000000810308000200010082021A
:4021C00040000A000100030240000A0002030000040309042C0343007900700072006500730073002000530065006D00690063006F006E0064007500630074006F00720095
:40220000100355005300420055004100520054003803430044004300200043006F006D006D0075006E00690063006100740069006F006E00200049006E00740065007200C8
:402240006600610063006500260343004400430020004400610074006100200049006E00740065007200660061006300650000000902430002010180C809040000010202E5
:402280000103052400000004240202052406000105240100010705810308000A09040100020A0000040705820240000007050302400000001201000202000008B40432F28E
:4022C0000100010280014300000000000000000000000000000000000000000000000000000000000000000000000000000000000000000000000000000000000000000016
:4023000000000000000000000000000000000000000000000000000000000000000000000000000000000000F8B500BFF8BC08BC9E4670474D00000079040000F8B500BFE8
:40234000F8BC08BC9E4670472900000060230000C880FF1FA0000000A0010000000000000000000000C2010000000800C201000000080000A120000000000200000000009E
:402380007F800000070000000000D859B0B300002E00000080E7BD02FFFFFF0000000000C8220000E82200000823000000000000000000000000000000000000C62200002B
:4023C0000000000000000000000000000000000000000000000000000000000000000000000000000000000000000000000000000000000000000000000000000481FF1F3A
:40240000000000000000000000000000000000000000000000000000000000000000000000000000000000000000000000000000000000000000000000000000000000009C
:40244000000000000000000000000000000000000000000000000000000000000000000000000000000000000000000000000000000000000000000000000000000000005C
:40248000000000000000000000000000000000000000000000000000000000000000000000000000000000000000000000000000000000000000000000000000000000001C
:4024C00000000000000000000000000000000000000000000000000000000000000000000000000000000000000000000000000000000000000000000000000000000000DC
:020000040003F7
:0200000480007A
:400000000145004002520040021701400219014003400140054101400342014003430140044701400A48014003490140024C0140015101407E0219807C40EA02EE0AEA0265
:40004000EE0A33813648CCF05B049F01A648A780D6409F05A648A7809F05A648A78008080B040F40C20E2340260827049F04A608AE40AF81C8E0EA40EE5063409340D840F7
:40008000AC08AF4400EA000000C0C00040000000001D1D00000000004000000303000000C0000000000B0B000000000000FFFF00000000000080800080000000000000001B
:4000C0000000000000000000000000000000000000000000000000000000000000000000000000000000000000000000000000000000000000000000000000000000000000
:4001000000000000000000000000000000000000000000000000000000000000000000000000000000000000000000000000000000000000000000000000000000000000BF
:40014000000000000000000000000000000000000000000000000000000000000000000000000000000000000000000000000000000000000000000000000000000000007F
:40018000000000000000000000000000000000000000000000000000000000000000000000000000000000000000000000000000000000000000000000000000000000003F
:0200000490006A
:0400000000004005B7
:0200000490105A
:04000000BC90ACAF55
:0200000490303A
:0200000009E114
:0200000490402A
:4000000000000000000000000000000000000000000000000000000000000000000000000000000000000000000000000000000000000000000000000000000000000000C0
:400040000000000000000000000000000000000000000000000000000000000000000000000000000000000000000000000000000000000000000000000000000000000080
:400080000000000000000000000000000000000000000000000000000000000000000000000000000000000000000000000000000000000000000000000000000000000040
:4000C0000000000000000000000000000000000000000000000000000000000000000000000000000000000000000000000000000000000000000000000000000000000000
:0200000490501A
:0C00000000012E16106900012E231A4A80
:00000001FF