:400000000080002011000000F9050000F905000008B5044B1A6803F53F5302331A6000F0F3FA00BFFA46004010B5054C237833B9044B13B10448AFF300800123237010BD8E
:400040004881FF1F00000000F8080000084B10B51BB108490848AFF300800848036803B910BD074B002BFBD0BDE81040184700BF000000004C81FF1FF8080000C880FF1F02
:40008000000000000122014B1A7070476481FF1F034B19685A68501C5860885C704700BFCC80FF1F10B5FFF7F3FF0446FFF7F0FF04EB002080B210BD10B5FFF7E9FF04463D
:4000C000FFF7E6FF04EB0024FFF7E2FF04EB0044FFF7DEFF04EB006010BD00BF10B50446002000F03BFB204600F078FB002000F029FB012000F01AFB012000F0F5FA0120C1
:4001000000F020FB002000F011FB012000F026FB012000F0E9FA10BD38B505460C46104600F0ECFA002000F0F5FA2846FFF7D6FF012000F0EFFA2046FFF7D0FF38BD00BFDE
:4001400010B50446012000F015FB204600F046FB002000F00FFB122000F0C6FA012000F009FB10BD08B5002000F010FB0A2000F0A5FA012000F00AFB0A2000F09FFA08BDBB
:4001800008B5012000F0EAFA012000F0DBFA012000F0CCFA012000F0F9FA002000F0BAFA002000F0ABFAFF2000F018FB08BD00BF08B59F20FFF7C4FFBF20FFF7C1FFDF20E4
:4001C000FFF7BEFFFF20FFF7BBFFFFF7D9FFFFF7C9FF08BD2DE9F8436F4C1C236360FFF76BFF6E4B586034236360FFF765FF343060606B4800F020FB00F0D4FA00F0E0FA6F
:4002000000F0F2FAFFF7D4FF62B600252E462F462C4600E00025614B1B78012BFBD1002C40F0A880FFF734FF8046A0F14F03912B00F2AA80DFE803F0494CA85151A8A8A886
:40024000A8A8A8A8A8A8A8A8A8A85DA165A8A89D68A8A8A8A8A8A8A8A8747474747474747474747474747474747777777777777777777777777777777787878A8FA8A8A827
:40028000A8A8A8A8A8A8A8A8A8A8A8A8A8A8A8A8A8A8A8A8A8A8A8A8A8A8A8A8A8A8A8A8A8A8A8A8A8A8A8A8A8A8A8A8A8A8A8A8A8A8A8A8A8A8A8A8A8A8A8A8A8A8A8A83E
:4002C000A8A8A8A8A8A8A8A8A898FFF7EBFE5BE0FFF7DEFEFFF734FF56E0FFF7D9FE8146FFF7D6FE08F0010201464846FFF714FF4AE0FFF7D7FE0446002841D0441EA4B2CC
:4003000042E040F271343FE0FFF7C2FEFFF7C0FEFFF7D2FE204B5F68384458603E4633E000F00F0430E006F101093E4400221D4B995D2A20FFF7F0FE18F00F0422D0013CEA
:40034000A4B24E4620E0FFF7B7FE1DE0FFF7A0FEFFF7B2FE18E0FFF79BFEFFF7ADFEFFF797FEFFF7A9FE0FE0FFF7A6FE3E1801250AE0FEE7013CA4B206E040F2DE2403E0FD
:40038000012501E04E460125002D7FF443AF0022024B1A703FE700BFCC80FF1F6481FF1F85000000FC080000FEE700BFF0B40022174611E050F82760F3B226F0FF0608E0E7
:4003C00001EB420511F812406D78A5550132013BDBB2002BF4D10137072FEBD9F0BC7047064B1B78DBB203F00701054A11701B09013213704422034B1A707047CF010049EB
:400400006E5800407658004008B50A46002100F06AFA08BD08B500F05BFA08BD38B50522284B1A80182202331A70082226492748FFF7F0FF0223264A137008214FF04022B1
:40044000117002F500721370224B1B78DBB202F2A142137040F617321F4B1A8041F25122023B1A80002419250CE01C4B1B7803F0010343EA440404F003044FF4F07000F0E6
:40048000EBF9013D0DB1032CEFD115B90320FFF78BFF134B4FF480721A8007221A70002210490A704820023108701A700222033B1A7004220A331A700B4A137843F080031B
:4004C000137038BD804000408000004800410040004300400B01004922420040254200400440004006400040A043004038B572B62C4A137843F00403137000240CE02A4D91
:40050000630019194A0011462A44084691882858FFF77AFF0134E4B2052CF0D923494FF09040FFF743FF224A137843F0020313701032137843F00203137008221D491E4819
:40054000FFF768FF08221D491D48FFF763FF08221C491D48FFF75EFF08221C491C48FFF759FF08221B491C48FFF754FF08221B491B48FFF74FFF1B4A137843F00803137028
:40058000194C61232370FFF749FFC12323700122164B1A70FFF724FF0E2215491548FFF739FF38BDE8460040287D02002000004803500140500000480251004058000048F9
:4005C000C251004060000048F2510040680000481251004070000048225100407800004832510040224300400048004004000840A0430040B043004008B500F03DF903681F
:400600000C2B00D1FEE7FEE708B5104E104D16E029686B68AC68002204E051F8040B43F8040B0432A242F8D1E868002203E0002143F8041B04328242F9D11035013E002E31
:40064000E6D100F01FF9FFF7C5FDFEE701000000747D020008B5104A104B1A60104A136843F40073136000230AE0032B03D80D4A52F8231000E00C490C4A42F82310013336
:400680002F2BF2D90A4B1A780A4B1A70074A0A4B1A60FFF72BFF08BD0004FA050CED00E014ED00E000000000F90500000080FF1FBC760040C080FF1F08ED00E010B504463D
:4006C00005E0084B186800F0C7F8A4F50044B4F5004FF6D8034B586800FB04F000F0BCF810BD00BFD480FF1F08B5034B1B7A00FB03F000F0B1F808BDD480FF1F044A13781A
:4007000003F0FE0300F0010018431070704700BFF0510040044A137803F0FE0300F0010018431070704700BFC0510040044A137803F0FD03400000F0020018431070704712
:40074000F0510040044A137803F0FB03800000F00400184310707047C0510040044A137803F0F703C00000F00800184310707047C0510040044A137803F07F03C001C0B2F5
:4007800018431070704700BF00510040044A137803F0EF03000100F01000184310707047C0510040054A137843F0010313701032137843F001031370704700BFA2430040FF
:4007C000054A137843F0010313701032137843F001031370704700BFA1430040014B1A781870704720510040054A137843F0020313701032137843F002031370704700BFE3
:40080000A1430040014B1B681864704708ED00E04001C0B2014B1870704700BF00E400E00122014B1A60704700E100E00122014B1A60704780E100E010B50446FFF7F6FFC0
:400840002046FFF7DFFF0020FFF7E2FFFFF7E8FF10BD00BF000000000230800803D000BF01380046FCD17047EFF3108072B6704780F31088704700BF014B1868704700BF7B
:400880004481FF1F0E4B70B51E460E4C0025E41AA410A54204D056F8253098470135F8E727F056FA084B094C1E46E41AA4100025A54204D056F8253098470135F8E770BD27
:4008C0005C7D02005C7D02005C7D0200647D020010B5431E0A44914204D011F8014B03F8014FF8E710BD03460244934202D003F8011BFAE7704700000000000056676D20EE
:400900002674020050010000999E360000000000BA72020094B5050000000000000000003C00000009001000B50A7500000000000C00000000000000000000006766006D12
:4009400063000080808080808080808080808080808080808080808080808080808080808080808080807F7F87879D9DF2F23AA3A3ADAD9393917B7B535337375C5CA67CF5
:400980007C3A3A6161B35C5C9090E6E6B6B6C74B4BFFFF1515C08A8ABFBF7878A8A8C5535362620000699F9F00002F2F38382F58585656AEAE2CACACBFBF7878ACACEB707B
:4009C0007094948F8FCABDBDACACA0A06363898080808058583F47476A6A1A1A3333309393AAAA8282C37676D1D1D6D6BCBCE3C7C7B8B8AFAFC0CBCB5F5F7D7D9696695ACC
:400A00005A2C2C2C2C2C2D2D4B4B17174848757B7B7B7B8F8F98C4C4BABACECEADADBFD4D49999BABAB18787999977776969605C5C42424444423C3C3939515158585F709A
:400A40007074748D8D93BDBDBBBBB9B9C4C4C3BDBDBABAAEAEA19B9B7E7E72726868534A4A454536363A33333535464651515E69697A7A83839AA4A4A8A8BFBFBCBCC0C00C
:400A8000C0C5C5B8B8ABA1A18F8F7C7C6C6C6355554A4A3F3F3F3A3A37373E3E4848525E5E6F6F8080899B9BA5A5B6B6B8B8BCC2C2C0C0C0C0B7ADADA2A28D8D83836E6100
:400AC0006157574E4E423E3E373738383A3A414D4D59596B6B7980809292A3A3A8A8B4C2C2C2C2BFBFBEC1C1B4B4AAAA9D9D907F7F6E6E63635249493E3E3D3D3E3E3A4233
:400B00004241414A4A5A6A6A777783839595A3A9A9B0B0B9B9BDC1C1C0C0BCBCB6B6ACA3A3939387877A6B6B5D5D55554B4B43424241414545414A4A525258586868758571
:400B40008591919B9BA4AEAEB4B4B6B6BCBCBBBBBBB4B4ACACA39A9A8989797971716B5E5E51514A4A464646434348484B4B4C555564646D6D76838394949C9C9F9FAEB2B1
:400B8000B2B5B5B8B8B9B7B7B4B4A9A9A6A6998C8C83837575685D5D5858515149494A474745454A4A4E51515E5E656574747F8D8D98989D9DA9B0B0B4B4B6B6B8B8B9B4C4
:400BC000B4AFAFACACA197978E8E7F7F7272685D5D525250504D4848454545454C4C5057575C5C6868767F7F8A8A92929D9DA2ACACB1B1B1B1B6B6B6B5B5ADADABABA29C2B
:400C00009C8D8D8484796F6F64645D5D55554E494949494A4A4B4C4C5252595964646C77777F7F8F8F96A2A2A7A7ACACB1B1B4B7B7B2B2B3B3ABA6A69E9E98988C8C8376B4
:400C4000766C6C64645D585852524E4E50504D52525454595961636370707777838388939397979E9EA6A7A7ACACA7A7A8A8A9A5A5A0A09B9B978F8F8A8A81817777726B2A
:400C80006B63635F5F5A5858585856565A5A5C5F5F626266666B70707B7B808086868E95959A9A9D9DA0A4A4A1A1A3A3A6A69F9C9C9B9B9696938A8A86867E7E77777168A3
:400CC00068676760605C5C5C5C5C59595C5C5F606066666B6B6C73737D7D828287878F93939A9A9D9DA0A1A1A2A2A3A3A2A2A19C9C99999595918D8D7F7F87879D9DF2F2CC
:400D00003AA3A3ADAD9393917B7B535337375C5CA67C7C3A3A6161B35C5C9090E6E6B6B6C74B4BFFFF1515C08A8ABFBF7878A8A8C5535362620000699F9F00002F2F38380E
:400D40002F58585656AEAE2CACACBFBF7878ACACEB707094948F8FCABDBDACACA0A06363898080808058583F47476A6A1A1A3333309393AAAA8282C37676D1D1D6D6BCBCF8
:400D8000E3C7C7B8B8AFAFC0CBCB5F5F7D7D9696695A5A2C2C2C2C2C2D2D4B4B17174848757B7B7B7B8F8F98C4C4BABACECEADADBFD4D49999BABAB187879999777769694C
:400DC000605C5C42424444423C3C3939515158585F707074748D8D93BDBDBBBBB9B9C4C4C3BDBDBABAAEAEA19B9B7E7E72726868534A4A454536363A3333353546465151EA
:400E00005E69697A7A83839AA4A4A8A8BFBFBCBCC0C0C0C5C5B8B8ABA1A18F8F7C7C6C6C6355554A4A3F3F3F3A3A37373E3E4848525E5E6F6F8080899B9BA5A5B6B6B8B82E
:400E4000BCC2C2C0C0C0C0B7ADADA2A28D8D83836E616157574E4E423E3E373738383A3A414D4D59596B6B7980809292A3A3A8A8B4C2C2C2C2BFBFBEC1C1B4B4AAAA9D9D2D
:400E8000907F7F6E6E63635249493E3E3D3D3E3E3A424241414A4A5A6A6A777783839595A3A9A9B0B0B9B9BDC1C1C0C0BCBCB6B6ACA3A3939387877A6B6B5D5D55554B4BB2
:400EC00043424241414545414A4A52525858686875858591919B9BA4AEAEB4B4B6B6BCBCBBBBBBB4B4ACACA39A9A8989797971716B5E5E51514A4A464646434348484B4B7A
:400F00004C555564646D6D76838394949C9C9F9FAEB2B2B5B5B8B8B9B7B7B4B4A9A9A6A6998C8C83837575685D5D5858515149494A474745454A4A4E51515E5E65657474EB
:400F40007F8D8D98989D9DA9B0B0B4B4B6B6B8B8B9B4B4AFAFACACA197978E8E7F7F7272685D5D525250504D4848454545454C4C5057575C5C6868767F7F8A8A92929D9D22
:400F8000A2ACACB1B1B1B1B6B6B6B5B5ADADABABA29C9C8D8D8484796F6F64645D5D55554E494949494A4A4B4C4C5252595964646C77777F7F8F8F96A2A2A7A7ACACB1B159
:400FC000B4B7B7B2B2B3B3ABA6A69E9E98988C8C8376766C6C64645D585852524E4E50504D52525454595961636370707777838388939397979E9EA6A7A7ACACA7A7A8A846
:40100000A9A5A5A0A09B9B978F8F8A8A81817777726B6B63635F5F5A5858585856565A5A5C5F5F626266666B70707B7B808086868E95959A9A9D9DA0A4A4A1A1A3A3A6A6CF
:401040009F9C9C9B9B9696938A8A86867E7E7777716868676760605C5C5C5C5C59595C5C5F606066666B6B6C73737D7D828287878F93939A9A9D9DA0A1A1A2A2A3A3A2A2A3
:40108000A19C9C99999595918D8D85857C7C79796F696967676363605D5D5D5D5F5F5B5B60606065656B6B6A727279797E7E86868C8F8F97979B9B9FA2A2A3A39F9FA0A082
:4010C0009E9F9F9C9C9696948C8C8A8A82827B7B75707B53535337375C5CA6A67C7C7C3A3A6161B3B3B35C5C9090E6E6B6B6B6C7C74B4BFFFFFF1515C0C08A8ABFBFBF780E
:4011000078A8A8C5C5C55353626200006969699F9F00002F2F2F38382F2F5858565656AEAE2C2CACACACBFBF7878ACACEBEBEB707094948F8F8FCACABDBDACACA0A0A0630B
:40114000638989808080808058583F3F4747476A6A1A1A33333330309393AAAA828282C3C37676D1D1D1D6D6BCBCE3E3C7C7C7B8B8AFAFC0C0C0CBCB5F5F7D7D96969669CB
:40118000695A5A2C2C2C2C2C2C2C2D2D4B4B4B171748487575757B7B7B7B8F8F989898C4C4BABACECECEADADBFBFD4D4999999BABAB1B18787879999777769696060605C2A
:4011C0005C424244444442423C3C393951515158585F5F70707074748D8D9393BDBDBDBBBBB9B9C4C4C4C3C3BDBDBABAAEAEAEA1A19B9B7E7E7E7272686853534A4A4A45A4
:401200004536363A3A3A3333353546465151515E5E69697A7A7A83839A9AA4A4A8A8A8BFBFBCBCC0C0C0C0C0C5C5B8B8ABABABA1A18F8F7C7C7C6C6C636355554A4A4A3FA0
:401240003F3F3F3A3A3A37373E3E48485252525E5E6F6F80808089899B9BA5A5B6B6B6B8B8BCBCC2C2C2C0C0C0C0B7B7ADADADA2A28D8D8383836E6E616157574E4E4E42C3
:40128000423E3E37373738383A3A41414D4D4D59596B6B79797980809292A3A3A8A8A8B4B4C2C2C2C2C2BFBFBEBEC1C1B4B4B4AAAA9D9D9090907F7F6E6E63635252524942
:4012C000493E3E3D3D3D3E3E3A3A42424141414A4A5A5A6A6A6A777783839595A3A3A3A9A9B0B0B9B9B9BDBDC1C1C0C0BCBCBCB6B6ACACA3A3A3939387877A7A6B6B6B5DAE
:401300005D55554B4B4B43434242414145454541414A4A52525258586868757585858591919B9BA4A4A4AEAEB4B4B6B6BCBCBCBBBBBBBBB4B4B4ACACA3A39A9A89898979CF
:401340007971716B6B6B5E5E51514A4A464646464643434848484B4B4C4C55556464646D6D767683838394949C9C9F9FAEAEAEB2B2B5B5B8B8B8B9B9B7B7B4B4A9A9A9A649
:40138000A699998C8C8C8383757568685D5D5D585851514949494A4A474745454A4A4A4E4E51515E5E5E656574747F7F8D8D8D98989D9DA9A9A9B0B0B4B4B6B6B8B8B8B9FA
:4013C000B9B4B4AFAFAFACACA1A197978E8E8E7F7F72726868685D5D525250504D4D4D484845454545454C4C505057575C5C5C686876767F7F7F8A8A92929D9DA2A2A2AC2E
:40140000ACB1B1B1B1B1B6B6B6B6B5B5ADADADABABA2A29C9C9C8D8D848479796F6F6F64645D5D5555554E4E494949494A4A4A4B4B4C4C525252595964646C6C7777777FFA
:401440007F8F8F969696A2A2A7A7ACACB1B1B1B4B4B7B7B2B2B2B3B3ABABA6A69E9E9E98988C8C83838376766C6C64645D5D5D585852524E4E4E50504D4D5252545454595D
:4014800059616163636370707777838388F23A3A3AA3A3A3A3ADADAD939393939191917B7B7B7B535353533737375C5C5C5CA6A6A67C7C7C7C3A3A3A61616161B3B3B35C84
:4014C0005C5C5C90909090E6E6E6B6B6B6B6C7C7C74B4B4B4BFFFFFF15151515C0C0C08A8A8A8ABFBFBFBF787878A8A8A8A8C5C5C553535353626262000000006969699F35
:401500009F9F9F000000002F2F2F383838382F2F2F58585858565656AEAEAEAE2C2C2CACACACACBFBFBFBF787878ACACACACEBEBEB707070709494948F8F8F8FCACACABDDE
:40154000BDBDBDACACACACA0A0A06363636389898980808080808080585858583F3F3F474747476A6A6A6A1A1A1A3333333330303093939393AAAAAA82828282C3C3C37661
:40158000767676D1D1D1D1D6D6D6BCBCBCBCE3E3E3C7C7C7C7B8B8B8AFAFAFAFC0C0C0CBCBCBCB5F5F5F5F7D7D7D969696966969695A5A5A5A2C2C2C2C2C2C2C2C2C2C2D2B
:4015C0002D2D2D4B4B4B4B171717484848487575757B7B7B7B7B7B7B8F8F8F8F989898C4C4C4C4BABABABACECECEADADADADBFBFBFD4D4D4D4999999BABABABAB1B1B18723
:4016000087878799999999777777696969696060605C5C5C5C424242444444444242423C3C3C3C39393939515151585858585F5F5F707070707474748D8D8D8D939393BD72
:40164000BDBDBDBBBBBBBBB9B9B9C4C4C4C4C3C3C3BDBDBDBDBABABAAEAEAEAEA1A1A19B9B9B9B7E7E7E7E727272686868685353534A4A4A4A454545363636363A3A3A3303
:4016800033333335353535464646515151515E5E5E696969697A7A7A838383839A9A9AA4A4A4A4A8A8A8A8BFBFBFBCBCBCBCC0C0C0C0C0C0C0C5C5C5B8B8B8B8ABABABA133
:4016C000A1A1A18F8F8F8F7C7C7C6C6C6C6C636363555555554A4A4A3F3F3F3F3F3F3F3A3A3A3A373737373E3E3E484848485252525E5E5E5E6F6F6F808080808989899B04
:401700009B9B9BA5A5A5A5B6B6B6B8B8B8B8BCBCBCC2C2C2C2C0C0C0C0C0C0C0B7B7B7ADADADADA2A2A2A28D8D8D838383836E6E6E616161615757574E4E4E4E4242423EA3
:401740003E3E3E373737373838383A3A3A3A4141414D4D4D4D5959596B6B6B6B7979798080808092929292A3A3A3A8A8A8A8B4B4B4C2C2C2C2C2C2C2BFBFBFBFBEBEBEC1F8
:40178000C1C1C1B4B4B4B4AAAAAA9D9D9D9D9090907F7F7F7F6E6E6E63636363525252494949493E3E3E3E3D3D3D3E3E3E3E3A3A3A424242424141414A4A4A4A5A5A5A6A48
:4017C0006A6A6A7777777783838395959595A3A3A3A9A9A9A9B0B0B0B9B9B9B9BDBDBDC1C1C1C1C0C0C0C0BCBCBCB6B6B6B6ACACACA3A3A3A3939393878787877A7A7A6BEC
:401800006B6B6B5D5D5D5D5555554B4B4B4B43434342424242414141454545454141414A4A4A4A5252525258585868686868757575858585859191919B9B9B9BA4A4A4AE19
:40184000AEAEAEB4B4B4B4B6B6B6BCBCBCBCBBBBBBBBBBBBBBB4B4B4ACACACACA3A3A39A9A9A9A89898989797979717171716B6B6B5E5E5E5E5151514A4A4A4A4646464603
:40188000464646434343434848484B4B4B4B4C4C4C555555556464646D6D6D6D76767683838383949494949C9C9C9F9F9F9FAEAEAEB2B2B2B2B5B5B5B8B8B8B8B9B9B9B76D
:4018C000B7B7B7B4B4B4B4A9A9A9A6A6A6A69999998C8C8C8C838383757575756868685D5D5D5D58585858515151494949494A4A4A474747474545454A4A4A4A4E4E4E51B9
:401900005151515E5E5E5E656565747474747F7F7F8D8D8D8D9898989D9D9D9DA9A9A9B0B0B0B0B4B4B4B4B6B6B6B8B8B8B8B9B9B9B4B4B4B4AFAFAFACACACACA1A1A19791
:401940009797978E8E8E8E7F7F7F727272726868685D5D5D5D525252505050504D4D4D48484848454545454545454C4C4C4C505050575757575C5C5C686868687676767F48
:401980007F7F7F8A8A8A8A9292929D9D9D9DA2A2A2ACACACACB1B1B1B1B1B1B1B6B6B6B6B6B6B6B5B5B5B5ADADADABABABABA2A2A29C9C9C9C8D8D8D848484847979796F83
:4019C0006F6F6F646464645D5D5D555555554E4E4E494949494949494A4A4A4A4B4B4B4C4C4C4C52525252595959646464646C6C6C777777777F7F7F8F8F8F8F969696A25D
:401A0000A2A2A2A7A7A7A7ACACACB1B1B1B1B4B4B4B7B7B7B7B2B2B2B3B3B3B3ABABABA6A6A6A69E9E9E9E9898988C8C8C8C838383767676766C6C6C646464645D5D5D58D5
:401A4000585858525252524E4E4E505050504D4D4D5252525254545459595959616161636363637070707077777783838383888888939393939797979E9E9E9EA6A6A6A7C3
:401A8000A7A7A7ACACACACA7A7A7A8A8A8A8A9A9A9A5A5A5A5A0A0A09B9B9B9B9797978F8F8F8F8A8A8A8A818181777777777272726B6B6B6B6363635F5F5F5F5A5A5A587C
:401AC000585858585858585656565A5A5A5A5C5C5C5F5F5F5F626262666666666B6B6B707070707B7B7B7B808080868686868E8E8E959595959A9A9A9D9D9D9DA0A0A0A47D
:401B0000A4A4A4A1A1A1A1A3A3A3A6A6A6A69F9F9F9C9C9C9C9B9B9B969696969393938A8A8A8A868686867E7E7E7777777771717168686868676767606060605C5C5C5CD7
:401B40005C5C5C5C5C5C5C5959595C5C5C5C5F5F5F606060606666666B6B6B6B6C6C6C737373737D7D7D7D828282878787878F8F8F939393939A9A9A9D9D9D9DA0A0A0A189
:401B8000A1A1A1A2A2A2A2A3A3A3A2A2A2A2A1A1A19C9C9C9C999999959595959191918D8D8D8D858585857C7C7C797979796F6F6F69696969676767636363636060605D55
:401BC0005D5D5D5D5D5D5D5F5F5F5B5B5B5B606060606060606565656B6B6B6B6A6A6A72727272797979797E7E7E868686868C8C8C8F8F8F8F9797979B9B9B9B9F9F9FA24A
:401C0000A2A2A2A3A3A3A39F9F9FA0A0A0A09E9E9E9F9F9F9F9C9C9C969696969494948C8C8C8C8A8A8A8A8282827B7B7B7B75757570D09D9DBEC146465B845D5D444B368B
:401C40003665648B8B33716B6B76B7F0F0947EC9C975D2949492A33D3DBBA074745A518E8E4241A5A54D8C4444346E7B7B52052828364E5757575C6262A198D8D8A957D12C
:401C8000D1C2D1BABA98D8C1C1E6C7ABAB99737F7F960F5151AD29454539524B4B54894A4A1A898888897146465AB9868649C474748FECC0C0CCBAF2F2B89A9797B996A8EB
:401CC000A899766969A7775656473A46465A5C494955415656388B84847BB5A7A7B79F7474B6A59C9C94849A9AAD6B7E7E68717070593E5B5B555B70703F6E71717E645821
:401D0000589BBCA0A0A79FC8C8AC7D96969E92A4A4967D90907F6566665E535D5D644F5F5F763A55554B5F4848716E565674928B8B6E9489899DBBC5C5A6C88E8E98B6AC9D
:401D4000AC9A95939391797F7F506A2B2B5E6D53534643323265515D5D70615454869A94949BA4A3A3AA9AC5C5BEA9ABABA8AD9E9E8C9F9A9A79785C5C826471715A6F4E33
:401D80004E7A4B666641555555425968686C77666690959494A7B993939C9BB3B3B5A6A4A498B873737F708787677A777762756F6F649173736F948D8D78978E8E886E7A8D
:401DC0007A816986866B7C8080768596968D91999996919E9E8F957F7FACAB93938281878789786C6C6C6C737380755C5C728A6A6A9086777772937F7F937A868691737F4B
:401E00007F73936F6F7E985A5A85888B8B8B858C8C807A8B8B80777E7EA77E7474817F7F7F79A47575648186867C6A66668F76616172A16868847B81818A7187876C798059
:401E4000807E7686867F869090918A8383758D8B8B6966A5A5857D7979788E7878818A838381627C7C89786B6B63768080688F858588738D8D6E7E86867B8F8A8A9C8BA6EC
:401E8000A68F756C6C8C7C777767867A7A797883837B778282877F737395826F6F7D9283837D877B7B6A988F8F7A949E9EA1758F8FA47F818189827E7E75587A7A766C81FE
:401EC0008173787C7C729374747E8392928E8C8D8D857E87878D7265657B727D7D887B86867D86656579879090847B8686938E8A8A646A73737C6873735E787878646271C0
:401F0000717A7E8C8C9C718E8EA3AC94948F7E9B9B96A57D7D787580809695717175737B7B62769090735B8B8B77756A6A847576768F6D74748E8F8080678D8282A5AA95D2
:401F40009591878B8B8D797474868864646B5D64647F704D4D7A788989808D6F6F7B907C7C747C84847D84A7A78A768F8F90A589898193848493887777956A7F7F7D787B91
:401F80007B82678C8C727978788E8B70707D8077777477818189758282767D848481998A8A86877E7E8E786C6C747B878783787D7D8B867C7C7E936868668A7A7A657C5FE7
:401FC0005F7D6787878B7594949E73999982939A9A86988F8F8B7F7D7D88827979898573736B83616170444B3665648B33716B76B7F0947EC975D29492A33DBBA0745A51A5
:402000008E4241A54D8C44346E7B520528364E57575C62A198D8A957D1C2D1BA98D8C1E6C7AB99737F960F51AD294539524B54894A1A89888971465AB98649C4748FECC030
:40204000CCBAF2B89A97B996A8997669A77756473A465A5C49554156388B847BB5A7B79F74B6A59C94849AAD6B7E687170593E5B555B703F6E717E64589BBCA0A79FC8ACDF
:402080007D969E92A4967D907F65665E535D644F5F763A554B5F48716E5674928B6E94899DBBC5A6C88E98B6AC9A959391797F506A2B5E6D5346433265515D706154869A70
:4020C000949BA4A3AA9AC5BEA9ABA8AD9E8C9F9A79785C8264715A6F4E7A4B664155554259686C7766909594A7B9939C9BB3B5A6A498B8737F7087677A7762756F649173A6
:402100006F948D78978E886E7A8169866B7C807685968D919996919E8F957FACAB9382818789786C6C6C7380755C728A6A90867772937F937A8691737F73936F7E985A8507
:40214000888B8B858C807A8B80777EA77E74817F7F79A4756481867C85C63DC268EFCA8AA0B83F5E62D6CA3BC0B1CFDCB7E276D2A8C542C07ECA9AB4B2C1D95479A915E144
:40218000C223B9398AD0D79CB8A4E73B263C8E1931344D21A517360913212A131E0E10100E1716191814191314181A1E202521271D21202227292E37374B4D48565A6BACB9
:4021C000C3A6CB9EBDCCCCD0DAE5E2CEE0EBEECBDBE2EDEAEDEFF0F3E3E7DEF7F2ECF1F7F9F9F9F5F4F1F3F2F1EEECEDECE2E3D6E0DDCEDFDBE1DCD3C4C4CAD6D2D2C37C74
:4022000054B9A58A744357373B39411C1B2D251E1D1B16231A151D10131C1C0F1A140B12190F121C1F1B1818181F221D19332C1E3332662D3253543639476B9E89C2AAC43A
:40224000C878A3A7C1AF94C0B6A5C7C7DAC5CDD2B2E4D6C9CFDCD1CCD3D0D2C1D6C6B6D3C8BEC8C2CBB6C7C2B1A4C4A59EA8A9A3846876549D5B537376483C58592F3E38E3
:40228000313D3A2F34262236303A3B464F3A3C3E2433262735293A2E313D3A41562C3E3E333D3D30384C3B6C684A42599942458C3F5E504D42535672535D6C595840488EDB
:4022C0003E4F7A3A46354B444474725676675BB890B7835B864B6C9D6484AE8FA7ADA7B5B2C7C3BCC8B7C1BFC7C7CEC0D0D0CAD2BED8D4C8C8BBCFCFBAD4C9BACAC0A4C9A5
:40230000B8BEA6B0B8A9939D81A08398856A98515E63926E725D659A507771606F5B6561595659434164414A5066823E6C4C387459586259923C429E644B6065619A7E9782
:4023400074A9BD8178C1BB9B67C7B0B7C7BFAFCAC8C0B1C8BCC4C1CAC9C4CBC0BAC2CEBA9CC8D19AA0B098CBA8C8D2AEB4AF81C177C6B4B1CA9580BEA5B3B98497776AA6AE
:402380008764747E857F5C805693727D9789805360705D7071757B9B7D788A9D975E93699887A17B97896783A96AA670A597AA74638F9483748F7BA3869F8770A998A18F70
:4023C000A77984849B8B688A9D808A8861937F8E92879C798B8F5A8E4A649A508E52724B5D42633A458744A259567E466B424C5B523F51494445395A59828C576C826F6E83
:402400007A70875E93A89EA57887A687ACA09FC4A6A3A3757E7BA09DABAF7BA176B79BA272C0938890955B875B9C9669787355996D834C865956496851554B69714B5E4301
:40244000375245364058423F454D503F4043494A4C4C3C5A5843764D775850906F5B8B555C7E7277908C8CB5A47E9974857A83A05EBC99899BB98BBFADB09AAE74A885830F
:4024800085596C9B6F9269A3AC8DAF4D775759545A734DAB6CAB8FA07D817E83525D4E583A5162416958478B875C595996645A706E5E8057AC6795778475A6624E8D816082
:4024C0009C6B978C61A395ABBE7D90B7B7A7A4B575B5B9A7B1C3B2C1BBB0C0C2A9D1C2CFCCA0CEBF8BCFB7C2B0B3ABC2B4C0B4A393BA7BA19C9A8E76C05E986B6184A763B2
:402500009640A25A508C6468843E53526250415B407C3D588E4A5E4D624A484B3A65498F97445D544E5D516768505A8D5C684E836EA48FA78C9C8C9873C277A3ABB5AAAB27
:40254000C4AF9DB39AB9AFB1B2BCC1BABE8DB28EA0AB7EB2B55EB45E89A467A39F6C7C589861A4616D997C5C7F86867DB14C7E59815E57939E3C8E6856918FA256B1A56541
:4025800067958D8C5EC07B7E678B579EC34CA28D848555BC818C9E506E7C947E978987A9669566AD77708B9359B890865594914A6C96657196A98E768B8354BAAC5C92A8F2
:4025C000C24EBB86AB73A7AB7FB9A9847194A35152824DA88D7E9A6A8346445E5A314E2D523B425D4955374F3D435345693E4A4B31642B863A55486F42633A5D3D685843C7
:402600008549576F5572567F6E5384586F75A74786917AC272C1B683C4597FBD71AABB85BD5A96A0B086B655A89F80A5A68DA65BA66F5EB25A85A7514B626A9F45AF9F54C1
:4026400082533EA370A261845B6F3A8071699E606F884AA8479D74946D5A53A764A1A572A78660B972A8967495815D8A50B0766489634E9A847E897DA14F4E52396B6C37AB
:40268000794C6864867B7276595547708D589E56806A7E8664A18E8F9A5EA35972878F897EAB59AB73A95BAD7E9657B19A74C39A78C278B89F87B0B0A4B5BEA283C171BF58
:4026C000AEAFB57F7CA25BA2939D818C7EABBB60978D5CA089768081A74C70A8A25A91856163786C557F706B598C7B5759738A3D727A3D919A4B5260834F458A50586D8741
:402700004A836B7664965DB983A39C92739D6EB37DA65BA855BBA1A4ABABB6A6A1AFA4AC9AB6ADB0A4BB98CCC59CC9BBABC0B2C2B4C2C49DB6A982A9BE95A2A1A69860AB15
:402740008385C04A9D5657B0537FB83A567665635D6A744B69883DAC7A585283755D47A85D9491625C8153AF91A2A78981925BB2948EA29F58B973AAAA83B35C7DA38B9AD5
:4027800077A9A26497644FABA069AC677B935DA7AA75B1515E91557CB847A27F63A855A871525E654E6A4E64457975485E8E4D84605D5D3956555857B13969935078469B63
:4027C00056579E4A43705567515B6C5C7492638C6F65705C63935E93997C9C7687A3A976B67BA198A87290A7A6B5A8C0BE79A5A59566B66D5CA8767D8668A5508791617E87
:40280000747E7C78BA66AC6E83716487A4516376507E68544D6867657C5063714F6E505D6A5D467954578E407C76518363716D574C5A566D787A955D6D5A6C4C5B6E5D78EF
:4028400066757071A74B9F5E8C9E4CA85E57A25677A58C6E5BA7825C609B6B90828A7C7AAB688CABB36FA7695E997FA8B15ECA3D86AF76A0959998A1A89FA879BB4E919BF5
:402880008392A9A281A1AB6B84A2858AB466B15D928066ABA27F92826F945981884C81566B836C85A2658C8C5B9E8E95B84BA382849EA08480A5BA71A19DAB7E83BC8CA990
:4028C00089B6A1B3AA889C9C948F77B6B46282A2A092A1A3979DA48CA3A0A5A09CB5A5AC9F969EA06194709D5EAA55947473794BAD3F5A748D4A5D515152675C7369A67D98
:40290000998093826BA16F9F85A08884826A7A71728A5EA3519E6964817C7D6A9F667B75AA7E81989D718E8F868CAB87AC8E9DA75DB17FA0A9A9A7AAAB6C9A66A78E7FB03C
:402940009182989E989DB885B6A1B7959AADAA93BE987FB99B7B7A877D7D75AA52A061A157687E42646473577568697892719A5E76735E9466836A9263A088A46E9A597435
:402980005A795A5E588C457F6B5B7A4A954A72486D45555A4C545D515B5055564D4F56414E473D5C4258524D5B51515368466F3B544B436E685E7E6F7D6754855A6E9266FA
:4029C0007B6B6C946A7082708C76998E56A06B9D5CA6738D7E9AA7729E938EA88DB9A79DAF8990A8A5A8AFABB4A199C6A1B1B88FADA9A7C3A9BFC1A5B0AC99AFA8A4C079BF
:402A0000B6829EA6A5ABB68A9B9B88A28289874D93483CA34B5A5252584A406B335B7C33503E473E38515D36574B3B6C45484C393B483551494C3A4C4B4343563F584751BA
:402A4000504D58725388986A6A70666C7F8AAC8699A7969FAC9FA9A3AFAF91B867BE89AFB69DABAABCA9BCB0B7A592BCB6B0C49DAEA8ACBBA1BFAAB9A1BAB4B2B5B3B5A52E
:402A8000B697AB77A0959AB19AAA90B1859CA67DA79AA7A6A4A478A49F749273A2939CA08E91A28988AAA79B9F8D769C855E7A5D5A6B578A6768715C617E6A4D69465C4CFE
:402AC00064605C645178555D7E456B546349594E634D486157567C4A6B514B5D455D6E507B51896374707660846182637AA08589AA7D9C9786A99AA8AC89A2AFA0ABAFBC07
:402B0000B2AEBBACA8BAA2C0B3B9BEABB5BEACBF9DC1B0B081B7A7A4B5A5A4B28BAC81A4A17F9EA27EA666A3726F905C7E5A5363585055635D85579A5A6A69537A447C4CE9
:402B400061665E53624C5E726865575C6A4B55725764547E4F819842954E6C7974996E7F678069848D579E66A2588276816F8584978D8F8375928358806D8D6C827C8363E1
:402B80009759687E7D5E706C7B62557362645D6C6F5A676559987D716E746C81676E7C5E6B7553855669745C785A63647D836C798763757B679C757F8B6D927A927B95AB7B
:402BC0009B9F9AA869A98FA79D9CB17690AB77A49DB0B2A9A6B994AEAF93B299A0A182B36EA3A088A89D999F7F8B8F64AA6D65AE598F78558C447B6A5A8B90516067665A7B
:402C000068768659735744755069635B924F658251796D607C4F746B4C8B77548059965D7A8B687E7C5D77646E8A706682516B685781787F7E76767788769472999984A346
:402C4000989581A5A095A99FA8A6ABAAA0AA9BA9A0AF99B6A5AFADB192A4989A95A5AF8F9EA57E9E8B938698A9907BA89D78997E94838D9A78979680849780847790918264
:402C80009B74917C7489797C9A8FA27C6DA878769D5E888B938466AC816A9A747C787A7D767895585D9667897F8EA15374675E7169767689768F70998B698B868C8186763E
:402CC0008B8186889F8F9894769B7B799F6EB57497A7929A9A66947A82977FA6A988927F9B736C9A7C747F776B777D77638797776587599C75728F5E778757A079767E5AF4
:402D0000648750A25C8D7F68837864A3838696718E7D6BA28A88A271898382A08B92AB5C88835CAF729AA26694736CA18EA0A667928D62988477A76BA28372A77388A0636A
:402D40008A7165AE578A6F5B7473618F59A46875569D587482676A5A5D5D547C8551626A5E5E5D616D5A7E5A786969695A78665A63775E776960665C5D5E62677B57875983
:402D8000537963628D578A5D7D738377A06682835DA481A5AA81A28375AA6AAA9A8EA18D76AA70ACA18BA98479B194AFA993AC8D79B87EA6AA90A19575A17B93A56F957F3A
:402DC0006E946DA4797D916F92597D656F6677635E8372627D689147725B59576759705970595C626A556E58685553735272796D735D6A58715A8E597E7369687681876CAD
:402E00009382799A82849478A17083A06A936EA995A497917DA1889C9D8C957E959C9CA19B9BA691A29988ACA0A6A39992A692A0B08EB18A7D9C7799A381AE858A7F7F7505
:402E400091718A8E8A9D73828C718A5C66856D8B816C7E7F79749B5A7D5A64897D7082656F9274787D7C76756D7E70836894938C936F91885EA1A15DA27079969D9FAA7792
:402E8000AB937FB2A68FA09BA37497919694A599A97EAE7F83B1A076A4907F8E6AA1A870B55C85996DA48592A06F6BA671A5777F90737F855EA277806B675E7D637387649B
:402EC0005C654F8359726C6C7D74715D6F767B5B77875D7E528D716C6971807E8F6B82817A8167938786798981867E67936899748C8FA07A8C7D8F889488A1808E7381703C
:402F0000797F83849793827A7385808AAC5E8F6D787C73879F57A57375918F7184808C75599E5E867F7989677485569D85606E79598B529178637A6C62876D67785968570D
:402F40005D7E697F837863975A8A62766E6A8A636C707979619E7E839B7F7972617B57718C687981848B849892748B61697F649D6588877A77896E968F6BA45973835399E2
:402F8000758A92656D925A929272A453887A758F82768F768577619B735B9C567D6359AB629E9A5D897E7C7A8285845768755685748E8A8E84746A8E686E88648466678863
:402FC0005B91855E9F6A7297709A7F78737978987C888B97917F9B6F87827E8B858F8F7D7CAB7FA79482A06794688686A2799599889479A79698A27B85957C907B9BA367F9
:40300000A98199917F97937DA26571A47EA5A285A478909C9B8BAD66A3796B9664A67E94907F848F7F9C88869D57925E61A16D978A6C7E63647584669B616B8A707F728154
:403040009561835A6D63557F5390716166815D97757B936783605D9D84648865867089838D8EA3737AA4809E80ADA37E8F9676A6A68DA690AB8C7AAC8DA0A0A5AC957F7F38
:403080007F7F7F6E6EDBDBDB757560607474757575454546466868686A6A666672728C8C8C51515B5B6E6E6E3535CBCB9D9D2323234949FFFF878787EEEE8C8C9D9DC5C59D
:4030C000C5AEAEC4C4DCDCDCAFAFC6C6BEBEB1B1B1B2B2ADADA0A0A09B9B959584847A7A7A7C7C69694343433A3A3535363629292935351F1F232323313114142E2E202017
:403100002022222C2C262626333325253C3C3C3C3C424250504C4C4C5A5A646469696B6B6B707077779494947E7EACAC9595A6A6A69E9EA7A7B9B9B9B7B7AFAFCBCBC3C357
:40314000C3CECEC4C4D8D8D8C6C6D6D6D5D5C3C3C3D7D7AEAECBCBCBCACABABABDBDAFAFAFB1B1B2B2AAAAAAA6A69F9FA8A8AFAFAFA3A39999B5B5B59C9CA9A99A9AB6B64F
:40318000B68A8AA4A497979795959292898987878783838282757575737374746969606060606059595555554F4F4C4C454540404040403939333333373734342F2F2C2C12
:4031C0002C33332A2A2C2C2C30302F2F35352F2F2F38383D3D3A3A3A4040494949494F4F4F4E4E56565959595858626267677979796F6F8888717171838383838585848428
:40320000848D8D888889898986868A8A92929090908E8E94948D8D8D8E8E8C8C8B8B949494929298989595959494979798989292929A9A96969595959B9B98989C9C9C9C1C
:403240009C9D9D9999A3A3A39F9FA8A8A6A6AFAFAFA9A9B0B0ADADADB1B1B3B3ACACB0B0B0B1B1B2B2B0B0B0B1B1ADADAEAEABABABABABA7A7A6A6A6A4A4A0A0A1A19D9D04
:403280009D9B9B93939797979292909089898B8B8B8686818187878781817E7E7C7C7B7B7B75757070757575717175757676747474777775757272726B6B71716C6C6D6D7A
:4032C0006D6A6A6A6A6C6C6C6B6B676764646C6C6C656569696868686868646461616060606262646461616161615F5F5A5A6262625D5D63636161615C5C606064646D6DB1
:403300006D6A6A6F6F6F6F6F7171727270707171717474707070707072727676777775757575757676777777787877777474757575737372726E6E6E7373737371717272ED
:40334000726F6F7474727272757575757676747474787874747575757878797979797D7D7D7C7C7E7E82828284848686828282828283837F7F82828287878585858588884D
:4033800088888889898A8A8A8B8B89898C8C868686888887878A8A8A8787898988888585858A8A89898989898B8B84848585868686878786868989898686888889898B8B04
:4033C0008B8A8A89898989898A8A88888888878787888885858484848282838388888787878585858587878786868585878785858583838585868686878788888989888825
:403400008886868787848484878786868484868686828285858585858080828281817B7B7B7B7B7A7A79797978787979777776767679797676767676777776767878787815
:4034400078777777777575757575727275757777777878767678787876767676777776767672727373737373727274747373737373747474747676767878787878787878F0
:40348000787676777778787877777B7B7C7C7B7B7B7D7D7C7C7E7E7E7D7D7E7E80807F7F7F7F7F80807E7E7E7F7F818182828181817F7F7C7C7D7D7D7D7D7B7B7B7B7A7AE0
:4034C0007A79797A7A7A7A7A7C7C767679797A7A7A7C7C7B7B7E7E7E7D7D7B7B7E7E8080807F7F8383808080858584848888888888898987878787878B8B888889898686AF
:40350000868A8A8A8A898989898988888888848484858583838585858383838381818282828484828282828282828181828285858585858282848484868683838282838370
:40354000838585848487878781818484858587878785858585878787878786868686888888858583838282827F7F808080807F7F7F81818080818181818182828181808073
:403580008081818181828282838382828181828282818181817F7F7F8181808080808080807F7F818181818182828080818181818181818181828282818180807E7E7F7FDA
:4035C0007F808080807E7E7E7E7E7D7D7E7E7E7E7E7F7F7E7E7B7B7B7B7B7A7A7A7A7A7A7A7A7A79797979797878787878787878787777767674747474747575747476764A
:403600007678787878787878787879797A7A7A7A7A7A7A7C7C7D7D7D7E7E7E7E7F7F7F7F7F80808080828282818180808181818181818183838383838484838382828282FE
:403640008282828181808080808080808181818181808080807F7F7F7F7F7F7F80807F7F7F7F7F7F7F7F7F7F7E7E7F7F7F7F7F7F7F7F7F80807F7F7F7F7F7F7F80807F7F64
:403680007F80808181818181828283838282838383838383838383838484848483838484848383828282828282828282828282828282828181818181818181818080808089
:4036C000807F7F7F7F7F7F7F7F7F7F7F7E7E7E7E7E7E7E7F7F7F7F7F808080807F7F80808081818080808080818181818181828282828282828282828282818182828282C0
:4037000082828282828282828282818181818181818181808080808080807F7F82691616455E5454FF78CCCC8FCDB9B9D77975757682707059727C7C708484848E95939315
:40374000928F9D9D999D8585878D808072788787788B7A7A716E7B7B6E6D7272568C80808E848787808A83838D7587876F727171868773736B6F7F7F888880807F9C8A8A28
:40378000738E81818E70757581717E7E727E83836D887C7C798E7C7C858277777D838282787D919183857A7A7E8872727A777A7A6D6E7B7B8A6B6F6F7D809191898789898E
:4037C0007988909085927D7D7C908282837A7B7B857C7979899F84846E76676770816C6C7A777E7E71797B7B799676768F687D7D917088888E738888997F8383838C9292CA
:403800008C936E6E89856A6A726B7D7D86847979687D74747A7881817D758686787B83837F7D797979858C8C83899494958A8C8C8B7C86869E8376767B64838370687171F2
:403840007D6D73738A7C797975728E8E807E8181987594947D787F7F89737D7D7C727A7A685A8989776D74747C7A8E8E8A778E8E8A958B8B877E8686948F7C7C9C8B8D8D0C
:403880007B8A8080797A8585707D6E6E7C716B6B68886C6C7A7872726C709090948285857F9F8C8C8E898A8A916C858586927C7C877E80807D807575797D71717D8C7B7B85
:4038C0006C6371717F868B8B7C7B7B7B7C6D9C9C7C8E7E7E908187878C7D767678917D7D818A81816C8B7777918C929283828888886D77776A71787870617878697489892B
:4039000081868A8A787880808F757C7C808C90907D7F81817D866F6F9B7D8F8F858E8A8A8B7B8E8E867F7373897F68687271626274907A7A71767C7C8D868585837D818196
:403940008381878768799B9B7C838989937E7E7E81827F7F998C7676836D7A7A8E66838371867E7E8B6579797A8077776B7A707081747B7B5A7D7C7C788B81817D988888AA
:40398000857D9595818B7E7E8A7B898978876F6F728D8F8F6C6D767681678888706E8080797D828279848181857A787889938C8C89958585927485857B8B7D7D6D7D8888D9
:4039C00065757E7E85757171937D6969918576768185949484837F7F878A86868C818E8E848082828A8885857D7E7171647370707D6E74747C8B7575728780807F7E929222
:403A0000B39A9595969187877886707080749393756E7A7A7A827A7A6F827A7A707F8585617F74747D8C7F7F83849E9E848E96968D88959583748F8F86819999787C8B8B56
:403A400070767878686B84847A688B8B8767757586998080898D7F7F8A888181887D7C7C878073738B8883837B886D6D96797B7B986C81817F7D7E7E6C697F7F82827B7BCE
:403A8000777D8282927E808086828080828379797B8988888685919184848888777B7E7E748372726F7C8484806A909076828C8C7D7C90909381808084879090847F878767
:403AC0007E5E818183857171708283837E7973737F787C7C8F816161778485857F8E8383817D8B8B869096968A869595778A818164756A6A72746B6B807681817B75858562
:403B000074877070898787878F808D8D93847D7D828B8282858088887C7B7070706A75757F71717170857D7D6C818E8E778F898980817474868079797B908E8E78877F7FAA
:403B40007988858577838A8A7573797982776262847D7D7D6C7076767F7B76765D938181878B797980919797828E88888D8D78787878838374737F7F93817C7C877D82829E
:403B8000867C87877A708B8B767F7D7D786B7F7F787A8282867B8282939C7C7C987F949481788080887A76767C8075758B7A77777B716E6E7A707676746C7373837A909083
:403BC00089877D7D8D916E6E937A7E7E85867A7A7882717180867B7B888184846C7C767679717D7D6D677F7F847A8787777A7676878D7D7D877A8E8E917C8080847C85851B
:403C0000759374746C777F7F80718484747569697B858B8B837C91918F8794947A8588887C799191717681817C8A7F7F97807E7E88798080797F7E7E6A8573736A676969F7
:403C40007B7D7E7E7E837B7B898E7E7E7C988F8F768188888A908C8C8B777F7F846E7E7E686B86867B817B7B8275838387788A8A8A878080857A70708A8882827287838307
:403C8000908B6C6C85777F7F8E6F74747F7C7D7D797B80808386797982908686808778787A817B7B80807D7D89918A8A769D76767F8E8A8A79768484747B6E6E777C757561
:403CC0007E6D737370797E7E79828F8F7E85828279968C8C8C8698987C959090837D8F8F84897373726B81817470565672757474706A70707E7776767E8876767F7F797988
:403D0000977C85859AA68F8F8A9794947A857D7D73757979778275757D757D7D738276767E786D6D717D84846D728181897B84848A67858592888585807A9292828A82823C
:403D40008A7B88887F8A7D7D7E966E6E7289727274747F7F736F78786F7872727B7F8585777F8888888E929282868383907C7E7E7A7D7E7E7A7688887E787A7A706B7575DD
:403D80007E8A72726C808B8B89777C7C7F837C7C80787E7E7E887E7E887C7E7E7D918080878977777D77858571887B7B74866E6E87837777777D7A7A7B827B7B77877E7E91
:403DC0008B8291918782929281828080858277777D6E86868376777776818484726486868E7A747480887272847A737382808989807C7676878581817F8576768B7F8282E8
:403E00007A82848485817A7A71857D7D7774707089827B7B7E748181818377777B7386868D8A7878767D8C8C816A7979828980807F8680808685888882898282897C8080BA
:403E4000797C80807D807A7A756B7D7D75788282838C80808D86818188937F7F759A888876798282747F7373837B7575837F8181748285857E7B828281776E6E797A8989A7
:403E80008A7880807F8B848486797D7D7D82898986757F7F837C7F7F7F8778788B7B7B7B7B7971717780707083878282737A75759780757581857575847788886E8986866B
:403EC0007C8083837F887F7F857F78788086858575818B8B827986867E808484837388887A70707081777676807F7F7F8983878786868A8A867E8585828B7A7A847E7373BC
:403F0000717F838391797C7C87798A8A807B7B7B807F7E7E727A75757B848080727E82827F787C7C787F7F7F91838D8D8D888E8E7C8D8F8F818281816B797D7D70786A6AB7
:403F40007B7F73737474787884787979878A75757E8A717186828282858075758088868682877E7E858E7F7F7E8A7F7F827A717174807B7B6E7C7373827C747477827F7F16
:403F80008178858584898C8C80818A8A8C808C8C917C83837C847C7C7D7786866E788585847C79797E8479797D8074747A87808078878181897F8A8A858083838483919188
:403FC0007B8372727D7E83837B77787873707D7D787B838376848A8A857B77777F86878787857B7B7A8883838A7F85857F8A7979887F8686717771717F767E7E7675878738
:4040000085798585767D87877E7A85857A837F7F86818C8C827D87878389808080817C7C83817979757579796E7D6F6F807A7878788180807C8084847B8884848D8786869C
:40404000858988887E8781817C8578787C747A7A75757E7E787E72727E7A80807C818888817B86867F7C7D7D798580807F807D7D818485858282838381827B7B807F848474
:4040800077847C7C7D7C82827B8179797478727281757D7D7A797D7D83828B8B82858B8B89858888898179797D757B7B7B8272727A877F7F767D7B7B807B82828281808070
:4040C0007E7876767F7E8181857E7E7E7E837D7D828382827D8083837C7D76767E7A78787C7E7D7D7E7982827E8C7B7B807F858581817F7F7F818A8A7A7B75757883828222
:404100007D7C7E7E867C7F7F81807D7D8687878783758080777F7B7B847480807B837F7F85857B7B7B83767688757D7D7A838181848080807D828282897F7F7F81798383AF
:40414000807C7F7F7E7F7E7E7D7E7F7F797987877C8488887F7D7A7A7A8078787A7B83837F8581817C7A88887A7D8787818181817B8479798883797986797E7E7C7E777788
:404180007E7C7C7C777B7F7F807E7A7A81848383868B81818482818182837C7C7E807C7C81827C7C7E817B7B757F8484787980807E837F7F837D81817D857F7F797D858534
:4041C000897E81818480818182817D7D7E7F83838381797982807A7A798079797D797C7C78797E7E7F7C81817B857E7E82817F7F828385857E8287877981838380828383DF
:404200007F837E7E7D7F7A7A7F7579797A74747476797F7F7B807B7B887F818182828A8A8589818184808A8A867F84847F7E80807C7D7D7D79788080827D7A7A767E7F7FDA
:40424000807E7F7F7F7F81817E847F7F80877D7D7E838080827E81817D868282797A7F7F7F807B7B76837A7A7D7B7C7C808182827F7B8080867B7C7C7D7C8686807E7C7C81
:404280007F818181807E838380857B7B847D7777807F7A7A7C797F7F7D7B80F2F2F23A3A3A3AA3A3A3A3A3ADADADAD939393939391919191917B7B7B7B5353535353373762
:4042C00037375C5C5C5C5CA6A6A6A67C7C7C7C7C3A3A3A3A3A61616161B3B3B3B3B35C5C5C5C9090909090E6E6E6E6B6B6B6B6B6C7C7C7C7C74B4B4B4BFFFFFFFFFF1515C1
:404300001515C0C0C0C0C08A8A8A8ABFBFBFBFBF7878787878A8A8A8A8C5C5C5C5C55353535362626262620000000069696969699F9F9F9F9F000000002F2F2F2F2F383826
:4043400038382F2F2F2F2F585858585656565656AEAEAEAEAE2C2C2C2CACACACACACBFBFBFBF7878787878ACACACACEBEBEBEBEB7070707070949494948F8F8F8F8FCACAE8
:40438000CACABDBDBDBDBDACACACACA0A0A0A0A063636363638989898980808080808080808058585858583F3F3F3F47474747476A6A6A6A6A1A1A1A1A3333333333303065
:4043C00030309393939393AAAAAAAA8282828282C3C3C3C3C376767676D1D1D1D1D1D6D6D6D6BCBCBCBCBCE3E3E3E3C7C7C7C7C7B8B8B8B8B8AFAFAFAFC0C0C0C0C0CBCB73
:40440000CBCB5F5F5F5F5F7D7D7D7D969696969669696969695A5A5A5A2C2C2C2C2C2C2C2C2C2C2C2C2C2C2D2D2D2D4B4B4B4B4B17171717174848484875757575757B7B4F
:404440007B7B7B7B7B7B7B8F8F8F8F9898989898C4C4C4C4C4BABABABACECECECECEADADADADBFBFBFBFBFD4D4D4D49999999999BABABABABAB1B1B1B187878787879999F2
:40448000999977777777776969696960606060605C5C5C5C5C424242424444444444424242423C3C3C3C3C39393939515151515158585858585F5F5F5F70707070707474D2
:4044C00074748D8D8D8D8D93939393BDBDBDBDBDBBBBBBBBBBB9B9B9B9C4C4C4C4C4C3C3C3C3BDBDBDBDBDBABABABAAEAEAEAEAEA1A1A1A1A19B9B9B9B7E7E7E7E7E7272C1
:4045000072726868686868535353534A4A4A4A4A4545454545363636363A3A3A3A3A3333333335353535354646464651515151515E5E5E5E5E696969697A7A7A7A7A83831A
:4045400083839A9A9A9A9AA4A4A4A4A8A8A8A8A8BFBFBFBFBFBCBCBCBCC0C0C0C0C0C0C0C0C0C5C5C5C5C5B8B8B8B8ABABABABABA1A1A1A1A18F8F8F8F7C7C7C7C7C6C6C3B
:404580006C6C6363636363555555554A4A4A4A4A3F3F3F3F3F3F3F3F3F3A3A3A3A3A373737373E3E3E3E3E4848484852525252525E5E5E5E5E6F6F6F6F8080808080898925
:4045C00089899B9B9B9B9BA5A5A5A5B6B6B6B6B6B8B8B8B8B8BCBCBCBCC2C2C2C2C2C0C0C0C0C0C0C0C0C0B7B7B7B7ADADADADADA2A2A2A2A28D8D8D8D83838383836E6E68
:404600006E6E6161616161575757574E4E4E4E4E42424242423E3E3E3E3737373737383838383A3A3A3A3A414141414D4D4D4D4D59595959596B6B6B6B7979797979808035
:4046400080809292929292A3A3A3A3A8A8A8A8A8B4B4B4B4B4C2C2C2C2C2C2C2C2C2BFBFBFBFBEBEBEBEBEC1C1C1C1B4B4B4B4B4AAAAAAAAAA9D9D9D9D90909090907F7F68
:404680007F7F6E6E6E6E6E63636363525252525249494949493E3E3E3E3D3D3D3D3D3E3E3E3E3A3A3A3A3A4242424241414141414A4A4A4A4A5A5A5A5A6A6A6A6A6A7777D9
:4046C0007777838383838395959595A3A3A3A3A3A9A9A9A9A9B0B0B0B0B9B9B9B9B9BDBDBDBDC1C1C1C1C1C0C0C0C0BCBCBCBCBCB6B6B6B6B6ACACACACA3A3A3A3A3939318
:40470000939387878787877A7A7A7A6B6B6B6B6B5D5D5D5D5D555555554B4B4B4B4B43434343424242424241414141454545454541414141414A4A4A4A52525252525858AB
:404740005858686868686875757575858585858591919191919B9B9B9BA4A4A4A4A4AEAEAEAEB4B4B4B4B4B6B6B6B6BCBCBCBCBCBBBBBBBBBBBBBBBBBBB4B4B4B4B4ACAC70
:40478000ACACA3A3A3A3A39A9A9A9A89898989897979797979717171716B6B6B6B6B5E5E5E5E51515151514A4A4A4A464646464646464646464343434348484848484B4B2A
:4047C0004B4B4C4C4C4C4C5555555564646464646D6D6D6D6D767676768383838383949494949C9C9C9C9C9F9F9F9FAEAEAEAEAEB2B2B2B2B2B5B5B5B5B8B8B8B8B8B9B941
:40480000B9B9B7B7B7B7B7B4B4B4B4A9A9A9A9A9A6A6A6A6A6999999998C8C8C8C8C838383837575757575686868685D5D5D5D5D58585858585151515149494949494A4A35
:404840004A4A4747474747454545454A4A4A4A4A4E4E4E4E4E515151515E5E5E5E5E6565656574747474747F7F7F7F8D8D8D8D8D98989898989D9D9D9DA9A9A9A9A9B0B06D
:40488000B0B0B4B4B4B4B4B6B6B6B6B8B8B8B8B8B9B9B9B9B9B4B4B4B4AFAFAFAFAFACACACACA1A1A1A1A1979797978E8E8E8E8E7F7F7F7F7F7272727268686868685D5DD0
:4048C0005D5D5252525252505050504D4D4D4D4D48484848484545454545454545454C4C4C4C5050505050575757575C5C5C5C5C6868686868767676767F7F7F7F7F8A8A77
:404900008A8A92929292929D9D9D9DA2A2A2A2A2ACACACACACB1B1B1B1B1B1B1B1B1B6B6B6B6B6B6B6B6B6B5B5B5B5ADADADADADABABABABABA2A2A2A29C9C9C9C9C8D8DB6
:404940008D8D8484848484797979796F6F6F6F6F64646464645D5D5D5D55555555554E4E4E4E4949494949494949494A4A4A4A4A4B4B4B4B4B4C4C4C4C525252525259593B
:40498000595964646464646C6C6C6C77777777777F7F7F7F7F8F8F8F8F9696969696A2A2A2A2A7A7A7A7A7ACACACACB1B1B1B1B1B4B4B4B4B4B7B7B7B7B2B2B2B2B2B3B379
:4049C000B3B3ABABABABABA6A6A6A69E9E9E9E9E98989898988C8C8C8C8383838383767676766C6C6C6C6C646464645D5D5D5D5D5858585858525252524E4E4E4E4E50501A
:404A000050504D4D4D4D4D525252525454545454595959595961616161636363636370707070777777777783838383888888888893939393939797A79988A8B27BAD7DA4FA
:404A4000A172BB8F9AA0897FAA93A28691A2727D86748585848B648888939397979E9E9EA6A6A7A7ACACA7A7A7A8A8A9A9A5A5A5A0A09B9B97978F8F8F8A8A818177777717
:404A800072726B6B63635F5F5F5A5A585858585856565A5A5C5C5F5F5F626266666B6B6B70707B7B80808686868E8E95959A9A9A9D9DA0A0A4A4A1A1A1A3A3A6A69F9F9F57
:404AC0009C9C9B9B96969393938A8A86867E7E7E77777171686867676760605C5C5C5C5C5C5C59595C5C5F5F5F606066666B6B6B6C6C73737D7D82828287878F8F93939339
:404B00009A9A9D9DA0A0A1A1A1A2A2A3A3A2A2A2A1A19C9C999995959591918D8D8585857C7C79796F6F696969676763636060605D5D5D5D5F5F5B5B5B6060606065656595
:404B40006B6B6A6A72727979797E7E86868C8C8C8F8F97979B9B9F9F9FA2A2A3A39F9F9FA0A09E9E9F9F9C9C9C969694948C8C8C8A8A82827B7B75757570706767676767F4
:404B8000666661615D5D5F5F5F5E5E61616161616666676768686F6F6F75757A7A80808083838C8C93939595959A9A9E9E9D9D9D9E9EA0A09F9F9C9C9C9B9B9595949494E6
:404BC0008F8F8C8C87878181817D7D79797272726F6F6B6B6767676767636360606363636262656564646868686A6A6C6C717171777779797F7F84848487878D8D8F8F8F7A
:404C000095959999989899999998989A9A9B9B9B9898999995958F8F8F8F8F8B8B88888880807E7E797975757571716C6C6868686565646462626262625F5F62626464647A
:404C4000666667676D6D71717175757A7A808080868687878E8E929292989899999C9C9C9E9E9F9F9E9E9C9C9C9C9C979796969693938E8E8A8A85858582827B7B767676FA
:404C800071716D6D6A6A666666656561616262626464626265656666666A6A6C6C6F6F6F767676767B7B808080858586868C8C8C909091919595989898989897979B9B9B94
:404CC000999996969696949494939390908B8B8B898983837F7F7B7B7B777773736D6D6D6A6A686863636767676262656565656566666A6A6B6B6F6F6F7070747477777799
:404D00007B7B7E7E81818888888A8A8C8C919191949492929595979797979797979494949494929290908C8C8C8989898986868683837F7F7A7A75757572726F6F6C6C6C92
:404D40006A6A696966666767676767676768686868686C6C6E6E707070757577777C7C7C7F7F838387878A8A8A8F8F919193939396969595959596969694949494919191AA
:404D80008F8F8D8D8B8B898989868683837E7E7E7B7B7878767675757570706E6E6D6D6D6B6B6C6C6A6A6B6B6B6C6C6B6B6F6F6F7272737374747575757B7B7D7D7E7E7E11
:404DC0008080838384848888888B8B8C8C8B8B8B8E8E90908E8E90909091918F8F9090908E8E8C8C8B8B8888888787848483838380807D7D7B7B7878787575747471717148
:404E000070706F6F6E6E6D6D6D6E6E6F6F6F6F6F6F6F7171747476767678787A7A7A7A7A7D7D81818282848484868689898888888C8C8D8D8C8C8C8C8C8D8D8E8E7F7F7F4B
:404E40007F878787879D9D9DF2F2F27975757682707059727C7C708484848E9593937F7F82691616455E5454FF78CCCC8FCDB9B9D76A668F766172A168847B818A71876C74
:404E800079807E76867F8690918A83758D8B6966A5857D79788E78818A8381627C89786B637680688F8588738D6E7E867B8F8A9C8BA68F756C8C7C7767867A7978837B770D
:404EC00082877F7395826F7D92837D877B6A988F7A949EA1758FA47F8189827E75587A766C8173787C7293747E83928E8C8D857E878D72657B727D887B867D866579879074
:404F0000847B86938E8A646A737C68735E78786462717A7E8C9C718EA3AC948F7E9B96A57D78758096957175737B627690735B8B77756A8475768F6D748E8F80678D82A5A8
:404F4000AA9591878B8D79748688646B5D647F704D7A7889808D6F7B907C747C847D84A78A768F90A589819384938877956A7F7D787B82678C7279788E8B707D807774773C
:404F800081897582767D8481998A86877E8E786C747B8783787D8B867C7E9368668A7A657C5F7D67878B75949E739982939A86988F8B7F7D8882798985736B8361707975FD
:404FC00076827059727C7084848E9593928F9D999D85878D80727887788B7A716E7B6E6D72568C808E8487808A838D75876F72718687736B6F7F8888807F9C8A738E818EB1
:40500000707581717E727E836D887C798E7C8582777D8382787D9183857A7E88727A777A6D6E7B8A6B6F7D809189878979889085927D7C9082837A7B857C79899F846E76B3
:405040006770816C7A777E71797B7996768F687D9170888E7388997F83838C928C936E89856A726B7D868479687D747A78817D7586787B837F7D7979858C838994958A8C6B
:405080008B7C869E83767B64837068717D6D738A7C7975728E807E819875947D787F89737D7C727A685A89776D747C7A8E8A778E8A958B877E86948F7C9C8B8D7B8A80791F
:4050C0007A85707D6E7C716B68886C7A78726C70909482857F9F8C8E898A916C8586927C877E807D8075797D717D8C7B6C63717F868B7C7B7B7C6D9C7C8E7E9081878C7D04
:405100007678917D818A816C8B77918C92838288886D776A717870617869748981868A7878808F757C808C907D7F817D866F9B7D8F858E8A8B7B8E867F73897F68727162BE
:4051400074907A71767C8D8685837D8183818768799B7C8389937E7E81827F998C76836D7A8E668371867E8B65797A80776B7A7081747B5A7D7C788B817D9888857D958179
:405180008B7E8A7B8978876F728D8F6C6D76816788706E80797D82798481857A7889938C8995859274857B8B7D6D7D8865757E857571937D6991857681859484837F878A0E
:4051C000868C818E8480828A88857D7E716473707D6E747C8B757287807F7E92B39A95969187788670807493756E7A7A827A6F827A707F85617F747D8C7F83849E848E967B
:405200008D889583748F868199787C8B707678686B847A688B876775869980898D7F8A8881887D7C8780738B88837B886D96797B986C817F7D7E6C697F82827B777D82926E
:405240007E808682808283797B8988868591848488777B7E7483726F7C84806A9076828C7D7C90938180848790847F877E5E818385717082837E79737F787C8F8161778456
:40528000857F8E83817D8B8690968A8695778A8164756A72746B8076817B75857487708987878F808D93847D828B828580887C7B70706A757F717170857D6C818E778F891C
:4052C0008081748680797B908E78877F79888577838A757379827762847D7D6C70767F7B765D9381878B79809197828E888D8D7878788374737F93817C877D82867C877ADD
:40530000708B767F7D786B7F787A82867B82939C7C987F94817880887A767C80758B7A777B716E7A7076746C73837A9089877D8D916E937A7E85867A78827180867B8881BB
:40534000846C7C7679717D6D677F847A87777A76878D7D877A8E917C80847C857593746C777F8071847475697B858B837C918F87947A85887C79917176817C8A7F97807E7A
:40538000887980797F7E6A85736A67697B7D7E7E837B898E7E7C988F7681888A908C8B777F846E7E686B867B817B82758387788A8A8780857A708A8882728783908B6C852B
:4053C000777F8E6F747F7C7D797B808386798290868087787A817B80807D89918A769D767F8E8A797684747B6E777C757E6D7370797E79828F7E858279968C8C86987C95A8
:4054000090837D8F848973726B81747056727574706A707E77767E88767F7F79977C859AA68F8A97947A857D7375797782757D757D7382767E786D717D846D7281897B8434
:405440008A6785928885807A92828A828A7B887F8A7D7E966E72897274747F736F786F78727B7F85777F88888E92828683907C7E7A7D7E7A76887E787A706B757E8A726C94
:40548000808B89777C7F837C80787E7E887E887C7E7D91808789777D778571887B74866E878377777D7A7B827B77877E8B82918782928182808582777D6E8683767776810C
:4054C000847264868E7A74808872847A73828089807C768785817F85768B7F827A828485817A71857D77747089827B7E74818183777B73868D8A78767D8C816A7982898022
:405500007F8680868588828982897C80797C807D807A756B7D757882838C808D868188937F759A88767982747F73837B75837F817482857E7B8281776E797A898A78807F8F
:405540008B8486797D7D828986757F837C7F7F87788B7B7B7B7971778070838782737A759780758185758477886E89867C80837F887F857F7880868575818B8279867E8054
:40558000848373887A7070817776807F7F89838786868A867E85828B7A847E73717F8391797C87798A807B7B807F7E727A757B8480727E827F787C787F7F91838D8D888E00
:4055C0007C8D8F8182816B797D70786A7B7F73747478847879878A757E8A7186828285807580888682877E858E7F7E8A7F827A7174807B6E7C73827C7477827F8178858444
:40560000898C80818A8C808C917C837C847C7D77866E7885847C797E84797D80747A8780788781897F8A8580838483917B83727D7E837B777873707D787B8376848A857B77
:40564000777F868787857B7A88838A7F857F8A79887F867177717F767E767587857985767D877E7A857A837F86818C827D8783898080817C8381797575796E7D6F807A787C
:405680007881807C80847B88848D87868589887E87817C85787C747A75757E787E727E7A807C8188817B867F7C7D7985807F807D81848582828381827B807F8477847C7D0A
:4056C0007C827B817974787281757D7A797D83828B82858B8985888981797D757B7B82727A877F767D7B807B828281807E78767F7E81857E7E7E837D8283827D80837C7D08
:40570000767E7A787C7E7D7E79827E8C7B807F8581817F7F818A7A7B757883827D7C7E867C7F81807D868787837580777F7B8474807B837F85857B7B837688757D7A8381BF
:405740008480807D8282897F7F817983807C7F7E7F7E7D7E7F7979877C84887F7D7A7A80787A7B837F85817C7A887A7D878181817B847988837986797E7C7E777E7C7C7774
:405780007B7F807E7A818483868B8184828182837C7E807C81827C7E817B757F847879807E837F837D817D857F797D85897E8184808182817D7E7F8383817982807A7980FD
:4057C000797D797C78797E7F7C817B857E82817F8283857E82877981838082837F837E7D7F7A7F75797A747476797F7B807B887F8182828A85898184808A867F847F7E80DE
:405800007C7D7D797880827D7A767E7F807E7F7F7F817E847F80877D7E8380827E817D8682797A7F7F807B76837A7D7B7C8081827F7B80867B7C7D7C86807E7C7F818180C6
:405840007E8380857B847D77807F7A7C797F7D7B807D807983827F8284817D847E837D817E82807C82798082787D7C7B7C7E807C78827E7E81827D848280848381867F7C69
:4058800080847F7D7E82807F807E797D7E7D7D7D7D817C7F7A818180837B7B85827E7D807E817B808080827D80807C7D80827A7F7E7C7E7E7F8281837F7F7F817C7E837C31
:4058C0007D7D807F7E847F807B7F807F7980777C7F827D827E7E7E7C847D81817F868587817E7F7E81797B767D7B7C8180817D7F7E8080827F7F8483867E7D7E80828680DA
:405900007E7C8282827E7E7E7D7D7F7B7B7B807C7D817F7D7F7F8180807C8685837F807F7E7E7F7D7F7D807F7F83807D7A7D7F817A7C807B807F7E7D7B817F8081817E80B7
:40594000838481807F7E8282818181807C7D80797B7E7A797D7D7B81807E827C83807D807E82818181827F8180818380807F7C7E807E7F7E7D7B7F7E797B7E837E827E8066
:4059800081807E81847F80807C7C7C82807B7E817E7E7F7E818080807F84837F827E817F7D7A7C7D7E7C7D80818180827F7E7B807F7D7D7D817F7D837D807F817F7E7F8023
:4059C0007F82807E817F7D7F7D7D807D7B827E808080817C807F7F7E7F81877E847E7D7E81807A7E7F7F7D7E7E7C7B807C7F7D7B7E7E808283817C80837C878481808186D5
:405A000082847D7F7F7E7B7B7A7D7C7E7D7A797E7C7C7E7E8080818481818183807D8083807F7E817D84817E7F7F807E807F7D7A7F7D7D7F7D7D7C7E7F7F8082817F817FB7
:405A4000807E837C807F83807F827F81817E807E7C7F7C7D7E7F7B7E7A7E7F807C7F7F8582818083838582838382837F7F7F7F7C7C7B7A7E7C7C7A7C7D7C7F7D7E817D8266
:405A800081818281808482808184807E8080807F7E7E807D80807D7C7D7E7E7F7C7C7D7E7E7F7F80827E838182807F82807F817F817D807E7F7F807D817E7E807F807F7F09
:405AC0007E7E7F7D807F80807F807F8080807D807F7F80817F80808280807E7E7F7D7F7F817F807F808482D0C838CCC7DE4070676767676661615D5D5F5F5E5E61616166C7
:405B0000666767686F6F75757A7A8080838C8C939395959A9E9E9D9D9E9EA0A09F9C9C9B9B9595948F8F8C8C878781817D797972726F6F6B6767676763636060636262653B
:405B4000656464686A6A6C6C71717777797F7F848487878D8F8F9595999998989998989A9A9B9B98999995958F8F8F8F8B888880807E7E79757571716C6C686865646462DA
:405B80006262625F62626464666667676D717175757A7A80868687878E8E92929899999C9C9E9E9F9E9E9C9C9C9C97979693938E8E8A8A8582827B7B767671716D6A6A669C
:405BC000666565616262646462626565666A6A6C6C6F6F7676767B7B80808585868C8C90909191959898989897979B9B999696969694949390908B8B898983837F7B7B7789
:405C00007773736D6A6A686863636767626565656566666A6B6B6F6F70707474777B7B7E7E8181888A8A8C8C91919494929595979797979794949494929290908C898989E7
:405C4000898686837F7F7A7A757572726F6C6C6A6A6969666767676767676868686C6C6E6E70707577777C7C7F7F8383878A8A8F8F919193969695959595969694949491FD
:405C8000918F8F8D8B8B8989868683837E7B7B787876767570706E6E6D6D6B6B6C6A6A6B6B6C6C6B6F6F727273737474757B7B7D7D7E7E808383848488888B8B8C8B8B8E0F
:405CC0008E90908E909091918F8F90908E8C8C8B8B8888878484838380807D7D7B7878757574747170706F6F6E6E6D6D6E6F6F6F6F6F6F717474767678787A7A7A7D7D8145
:405D0000818282848686898988888C8C8D8C8C8C8C8D8D8E8D8D8C8C8B8B8989898A8A8888868683828280807E7E7D7D7A777776767575757070707070706F6F6E6F6F6F33
:405D40006F6F6F727575767677777A7A7C8080828286868889898B8B8E8E8F8F90919191919090908F8F8D8D8B8B8787878484828280807E7A7A79797777767673727272BC
:405D8000727171707171707072727272737474767678787A7C7C7E7E7F7F80808383838484868687888889898A8A8A8A8B89898B8B8A8A89888887878787858583848482F1
:405DC0008280807F7D7D7C7C7B7B7A7A79777777777676757474747474747575747575767678787779797A7A7B7B7E7E7F8080818182828585858787888888888A8A8A897C
:405E0000898A8A8A898989898888868685848482828181807F7F7C7C7B7B7C7C7978787878777777767676767676767677777777777979797A7A7B7B7C7C7D7D7E7F7F8000
:405E4000808181828282838385858585868686878787878787878787878787878685858484838382828281817F7F7E7E7D7C7C7B7B7A7A787878777777777676767676770B
:405E80007777777879797A7A7B7B7C7C7D7E7E7F7F80808282828383848484848585858686858586858586867F7F7F87879D9DF2F2F23A3AA3A3ADAD93939391917B7B530A
:405EC000535337375C5CA6A67C7C7C3A3A6161B3B3B35C5C9090E6E6B6B6B6C7C74B4BFFFFFF1515C0C08A8ABFBFBF7878A8A8C5C5C55353626200006969699F9F00002F44
:405F00002F2F38382F2F5858565656AEAE2C2CACACACBFBF7878ACACEBEBEB707094948F8F8FCACABDBDACACA0A0A063638989808080808058583F3F4747476A6A1A1A33B3
:405F4000333330309393AAAA828282C3C37676D1D1D1D6D6BCBCE3E3C7C7C7B8B8AFAFC0C0C0CBCB5F5F7D7D96969669695A5A2C2C2C2C2C2C2C2D2D4B4B4B1717484875F1
:405F800075757B7B7B7B8F8F989898C4C4BABACECECEADADBFBFD4D4999999BABAB1B18787879999777769696060605C5C424244444442423C3C393951515158585F5F70B0
:405FC000707074748D8D9393BDBDBDBBBBB9B9C4C4C4C3C3BDBDBABAAEAEAEA1A19B9B7E7E7E7272686853534A4A4A454536363A3A3A3333353546465151515E5E69697A8B
:406000007A7A83839A9AA4A4A8A8A8BFBFBCBCC0C0C0C0C0C5C5B8B8ABABABA1A18F8F7C7C7C6C6C636355554A4A4A3F3F3F3F3A3A3A37373E3E48485252525E5E6F6F8013
:40604000808089899B9BA5A5B6B6B6B8B8BCBCC2C2C2C0C0C0C0B7B7ADADADA2A28D8D8383836E6E616157574E4E4E42423E3E37373738383A3A41414D4D4D59596B6B79B9
:40608000797980809292A3A3A8A8A8B4B4C2C2C2C2C2BFBFBEBEC1C1B4B4B4AAAA9D9D9090907F7F6E6E636352525249493E3E3D3D3D3E3E3A3A42424141414A4A5A5A6A40
:4060C0006A6A777783839595A3A3A3A9A9B0B0B9B9B9BDBDC1C1C0C0BCBCBCB6B6ACACA3A3A3939387877A7A6B6B6B5D5D55554B4B4B43434242414145454541414A4A521A
:40610000525258586868757585858591919B9BA4A4A4AEAEB4B4B6B6BCBCBCBBBBBBBBB4B4B4ACACA3A39A9A898989797971716B6B6B5E5E51514A4A464646464643434872
:4061400048484B4B4C4C55556464646D6D767683838394949C9C9F9FAEAEAEB2B2B5B5B8B8B8B9B9B7B7B4B4A9A9A9A6A699998C8C8C8383757568685D5D5D5858515149C7
:4061800049494A4A474745454A4A4A4E4E51515E5E5E656574747F7F8D8D8D98989D9DA9A9A9B0B0B4B4B6B6B8B8B8B9B9B4B4AFAFAFACACA1A197978E8E8E7F7F727268B0
:4061C00068685D5D525250504D4D4D484845454545454C4C505057575C5C5C686876767F7F7F8A8A92929D9DA2A2A2ACACB1B1B1B1B1B6B6B6B6B5B5ADADADABABA2A29C2A
:406200009C9C8D8D848479796F6F6F64645D5D5555554E4E494949494A4A4A4B4B4C4C525252595964646C6C7777777F7F8F8F969696A2A2A7A7ACACB1B1B1B4B4B7B7B268
:40624000B2B2B3B3ABABA6A69E9E9E98988C8C83838376766C6C64645D5D5D585852524E4E4E7F7F7F87879D9DF2F2F23A3AA3A3ADAD93939391917B81817B75858574872A
:406280007070898787878F808D8D93847D8482D0C838CCC7DE40A79988A8B27BAD7DA4A1727F7F879D9DF23A3AA3ADAD9391917B5337375CA6A67C3A3A61B3B35C9090E64A
:4062C000B6C7C74BFFFF15C0C08ABFBF78A8A8C55362620069699F00002F38382F585856AE2C2CACBFBF78ACACEB7070948F8FCABDACACA063638980808058583F47476AD9
:406300001A3333309393AA8282C37676D1D6D6BCE3C7C7B8AFAFC0CBCB5F7D7D9669695A2C2C2C2C2D2D4B17174875757B7B7B8F98C4C4BACECEADBFBFD49999BAB1B187FA
:406340009977776960605C42424442423C393951585F5F7074748D9393BDBBBBB9C4C4C3BDBABAAEA1A19B7E7E726868534A4A45363A3A3335354651515E69697A83839ACF
:40638000A4A8A8BFBCBCC0C0C0C5B8B8ABA1A18F7C6C6C6355554A3F3F3F3A3A373E3E48525E5E6F8080899B9BA5B6B6B8BCBCC2C0C0C0B7ADADA28D8D836E6E6157574EE2
:4063C000423E3E3738383A41414D59596B79798092A3A3A8B4B4C2C2C2BFBEBEC1B4B4AA9D90907F6E6E635252493E3E3D3E3E3A4241414A5A5A6A7777839595A3A9A9B021
:40640000B9BDBDC1C0C0BCB6B6ACA3A39387877A6B5D5D554B4B434242414545414A4A52586868758585919B9BA4AEAEB4B6B6BCBBBBBBB4ACACA39A9A897979716B6B5E6C
:40644000514A4A4646464348484B4C4C5564646D768383949C9C9FAEAEB2B5B5B8B9B9B7B4A9A9A699998C83837568685D585851494A4A4745454A4E4E515E5E6574747F65
:406480008D98989DA9A9B0B4B4B6B8B8B9B4B4AFACA1A1978E8E7F7272685D5D5250504D484545454C4C5057575C6868767F7F8A929D9DA2ACACB1B1B1B6B6B6B5ADADAB31
:4064C000A29C9C8D8484796F6F645D5D554E4E49494A4A4B4C4C525959646C6C777F7F8F96A2A2A7ACACB1B4B4B7B2B2B3ABABA69E98988C8383766C6C645D5D5852524EA8
:40650000504D4D525454596161637070778383889397979EA6A6A7ACACA7A8A8A9A5A5A09B97978F8A8A817777726B6B635F5F5A585858565A5A5C5F5F6266666B70707B22
:406540008086868E95959A9D9DA0A4A4A1A3A3A69F9C9C9B9696938A8A867E7E777171686760605C5C5C5C59595C5F5F6066666B6C73737D8282878F8F939A9A9DA0A0A14F
:40658000A2A3A3A2A1A19C99999591918D85857C796F6F6967676360605D5D5D5F5B5B606065656B6A6A7279797E86868C8F8F979B9F9FA2A3A39FA0A09E9F9F9C969694CA
:4065C0008C8A8A827B7B7570706767676661615D5F5E5E616161666767686F6F757A7A80838C8C9395959A9E9E9D9E9EA09F9F9C9B9595948F8F8C8787817D7D7972726FFA
:406600006B67676763636063636265656468686A6C71717779797F8484878D8D8F959599989999989A9A9B98989995958F8F8F8B8880807E79797571716C6868656464625D
:40664000625F5F6264646667676D7171757A7A808687878E92929899999C9E9E9F9E9E9C9C97979693938E8A8A8582827B7676716D6A6A6665656162626462626566666A23
:406680006C6F6F7676767B80808586868C9090919598989897979B9999969696949393908B8989837F7F7B7777736D6D6A686863676262656565666A6A6B6F6F7074747764
:4066C0007B7E7E8188888A8C8C919494929595979797979494949290908C8989898686837F7A7A7572726F6C6C6A696966676767676868686C6C6E70707577777C7F7F83EC
:40670000878A8A8F919193969695959596949494918F8F8D8B8B898686837E7E7B7878767570706E6D6D6B6C6C6A6B6B6C6B6B6F7273737475757B7D7D7E80808384848869
:406740008B8C8C8B8E8E908E8E9091918F90908E8C8B8B888787848383807D7D7B787875747171706F6F6E6D6D6E6F6F6F6F6F71747676787A7A7A7D7D8182828486868944
:40678000888C8C8D8C8C8C8D8D8E8D8D8C8B8B89898A8A888686838282807E7E7D7A7A777675757570707070706F6E6E6F6F6F6F7275757677777A7C7C808282868888891E
:4067C0008B8E8E8F90909191919090908F8D8D8B878787848282807E7E7A79797776767372727271707071707072727273747476787A7A7C7E7E7F808083838384868687AF
:406800008889898A8A8A8B89898B8A8A898888878785858384848280807F7D7D7C7B7B7A797777777676757474747474757474757678787779797A7B7B7E7F7F80818182AD
:40684000858585878888888A8A8A89898A8A8A898988888685858482828180807F7C7C7B7C7979787878777777767676767676777777777979797A7B7B7C7D7D7E7F7F8047
:4068800081828282838385858586868687878787878787878787868585848383828282817F7E7E7D7C7C7B7A7A787878777777767676767777777879797A7B7B7C7D7D7E0C
:4068C0007F808082828283848484858585868685868585868585858585848383828282818080807F7E7E7E7E7E7D7C7C7B7B7B7A7A7A7A7A7979797A7A7A7A7A7B7B7B7BAE
:406900007C7D7D7D7E7E7F808081818182828283838484848484848484848383838383828281818080807F7F7F7F7E7E7E7D7D7D7D7D7D7C7C7C7C7C7C7C7C7C7C7C7C7C71
:406940007C7C7C7C7D7D7D7D7D7E7E7E7E7F7F7F80808080818181828282828283838383838282828282828282818181808080807F7F7F7E7E7E7E7E7E7E7E7E7E7E7E7E2F
:406980007E7E7E7E7E7E7E7E7E7E7E7E85857C7C79796F696967676363605D5D5D5D5F5F5B5B60606065656B6B6A727279797E7E86868C8F8F97979B9B9FA2A2A3A39F9F61
:4069C000A0A09E9F9F9C9C9696948C8C8A8A6956A27085746E7D6E74817665925C5B6D627168807C69687054755A77775A9958686A5E7770686C6A5D8D6888678175648367
:406A00005E797C699888698D555D837C737E6D736E5A9A678E7F81737B7C6B7F73A07086816D7A6D838274927B73916C99777E996AA07D6E9E60957C608E6586897DA68350
:406A4000946E9B81888C7BA871A15C618371827F82899273A3709C8A5D90638D666F85728A7876887987706D7C75706486668566848C7B87696B846484657B69775B805B4A
:406A80009E68717A687C657D6F7F837F7470945B915C8F6C6E6871698779708378906E77978F7098638072646773739A678098749F7F8D9C68A0609785828C778D986583C6
:406AC0008A9191A184988975916A94996B868E7C936F8B8A7E8E7E849B73A670A9868A77898A738175877F699365877C89849480908A889D6C7C6E7973768B878B8D8DA13D
:406B00007DA55DA266967A6F8D84868D708E819E80A07E866C6A7C8B8995849193A4749D78976C98778D7D6C976E9F997877A2888C8686807B779169968095759D9B7485E7
:406B40009283867E86647A7B857C8D9E74678D757A8371778B88975E8F7078726FA161878274828C5D845B8D7C798181836C837C7F9A839C888D88757D857B976D957F8035
:406B80007F7893927E95978E9D8A8383878E739288937D6CA2748C8C9090A18E8F8C7E935D7490917F90827583747F827E8E87769E81797D788C7085878B7B956E8764818A
:406BC00069718D7C8E64967E7A956E866B737F6F7C7B7B78937F88797E79828D758C6F79816B7F7E6F976C8B8D887E7880689061936D909B7579918D689378A1698A786B06
:406C0000898170798DA26D799682737D828E7C82876D9F9172788D9F7F78948768756E7E7B84788486A171608D7683699C788C6C89787F8F7A7C8E8F8867837C6B746E795D
:406C4000757387757F8B747E7D888B708F7973826D93697B8E838395778973917E818779776A888B688F7090787F756D8A788C847C90767F90857E8373976F827081757762
:406C80008E787D7C7C827C8C777C7B828663A08876927A937077927A8E7F83777E8D7771997B7C807D927383807A89788B5BA18152280052280452280152280552280252F4
:406CC0002806522200522700522B80523001533001523101533108523201533200523401533401523501533500523601533600523807533807523907533902523A07533AC7
:406D000000523C01533C01523D01533D00523E01533E0052401853401852411853411E52421853427F52442753442752452753450F52462753467F52482853482852492881
:406D400053492D524A28534A7F524C0E534C1B524D18534D0D524E13534E7F52508E53508E52518E53511B52528E53520052548D53548D52558D53551F52568D5356005213
:406D8000588E53588E52598E53591F525A8E535A00525C53535C53525D53535D1F525E53535E0052600E53600E52610E53610E52620E53620052640E53640E52650E5365C0
:406DC0001252660E53660052680E53680E52690E53690C526A0E536A00526C03536C03526D03536D05526E03536E0052700053700052710053710052720053720052740070
:406E0000537400527500537500527600537600527800537800527900537900527A00537A00527C00537C00527D00537D05527E00537E0052801353801352811353813A52B3
:406E4000821353820052841353841352851353855A5286135386005288F75388F75289F753893A528AF7538A00528C09538C09528D09538DEF528E09538E005290005390A5
:406E800000529100539100529200539200529400539400529500539500529600539600529800539800529900539900529A00539A00529C00539C00529D00539D00529E00A4
:406EC000539E0052A42B53A43252A52B53A51A52A63253A60052A0DA53A09752A1DA53A18D52A29453A20052AC0052AD0052AE0052A80052A90052AA0052B03A53B03A5226
:406F0000B13A53B13B52B23A53B20052B4C053B4C052B5C053B5C052B6C053B6C0E000000000808080808080808080808080808080808080808080808080E00000000080F7
:406F40008080808080808080808080808080808080808080808080E000000000808080808080808080808080808080808080808080808080E0000000008080808080808051
:406F80008080808080808080808080808080808080E000000000808080808080808080808080808080808080808080808080E0000000008080808080808080808080808011
:406FC0008080808080808080808080E000000000808080808080808080808080808080808080808080808080E00000000080808080808080808080808080808080808080D1
:407000008080808080E000000000808080808080808080808080808080808080808080808080E000000000808080808080808080808080808080808080808080808080E030
:4070400000000000808080808080808080808080808080808080808080808080E000000000808080808080808080808080808080808080808080808080E000000000808050
:4070800080808080808080808080808080808080808080808080E000000000808080808080808080808080808080808080808080808080E000000000808080808080808010
:4070C00080808080808080808080808080808080E000000000808080808080808080808080808080808080808080808080E0000000008080808080808080808080808080D0
:4071000080808080808080808080E000000000808080808080808080808080808080808080808080808080E00000000080808080808080808080808080808080808080808F
:4071400080808080E000000000808080808080808080808080808080808080808080808080E000000000808080808080808080808080808080808080808080808080E0006F
:40718000000000808080808080808080808080808080808080808080808080E000000000808080808080808080808080808080808080808080808080E0000000008080808F
:4071C000808080808080808080808080808080808080808080E000000000808080808080808080808080808080808080808080808080E000000000808080808080808080CF
:40720000808080808080808080808080808080E000000000808080808080808080808080808080808080808080808080E0000000008080808080808080808080808080808E
